:020000040800F2
:10000000A006002005010008710E00081F0E000860
:100010006D0E0008F50C00088719000800000000AC
:10002000000000000000000000000000C9120008ED
:10003000F90C000800000000B1110008DD130008F1
:100040001F0100081F0100081F0100081F01000810
:100050001F0100081F0100081F0100081F01000800
:100060001F0100081F0100081F0100081F010008F0
:100070001F0100081F0100081F0100081F010008E0
:100080001F0100081F0100081F0100081F010008D0
:100090001F0100081F0100081F0100081F010008C0
:1000A0001F0100081F0100081F0100081F010008B0
:1000B000411400081F0100081F0100081F0100086B
:1000C0001F0100081F0100081F0100081F01000890
:1000D0001F010008391600081F010008C11600089A
:1000E0001F0100081F0100081F010008DFF810D0E1
:1000F00000F038FC00480047652B0008AFF3008093
:10010000A00600200648804706480047FEE7FEE7B5
:10011000FEE7FEE7FEE7FEE7FEE7FEE7FEE7FEE7B7
:10012000E1130008ED000008D2B201E000F8012B55
:10013000491EFBD270470022F6E710B513460A4667
:1001400004461946FFF7F0FF204610BD30B50546BE
:100150002A460B4612F8010B13F8014B08B1A042D6
:10016000F8D01CB1002802D06D1CF1E7284630BD44
:10017000421C10F8011B0029FBD1801A70470000B7
:100180000FB400B58DB010A909900B9000914FF0FD
:10019000FF300A9000200C90054806900548079013
:1001A0006A4609A80F9900F0AFFA0DB05DF814FB8C
:1001B00025070008430700082DE9FF5F1D464FF0A3
:1001C000FF3BD5E9014691465F464FF00008A9691B
:1001D0007F1C01988847296A824688470028F6D103
:1001E000BAF1FF3F0CD024F4C064002E19DD600684
:1001F00014D5BAF12B0F09D0BAF12D0F0ED103E0AF
:10020000584604B0BDE8F09F44F48064A9697F1C9F
:1002100001988847761E8246002E02DDBAF1300F23
:1002200003D0B9F1000F26D032E0A969761E44F45C
:1002300000747F1C019888478246002E05DDBAF1C4
:10024000780F06D0BAF1580F03D0B9F1000F10D0D3
:100250001EE0B9F1000F02D0B9F1100F18D1A96951
:10026000761E24F400747F1C019888478246102073
:1002700002E0082000E00A20814609E008FB0908A6
:10028000A969761E44F400747F1C01988847824651
:10029000002E05DD4946504600F022FA0028EDDA2E
:1002A000E96901988847A00502D46FF00100A8E72A
:1002B000E00725D1600613D5600502D5C8F100001E
:1002C00000E0404629680A1D2A600968220501D518
:1002D000087015E0220701D5088011E008600FE0E2
:1002E0002868011D29600068210502D580F800807A
:1002F00006E0210702D5A0F8008001E0C0F80080E8
:1003000038467EE72DE9FF5FD2E901A74FF00008EC
:10031000916999461446DDF838B0464601988847F9
:10032000054659EA0B0005D009E0A169761C019841
:1003300088470546216A284688470028F5D1681C69
:1003400003D05FEACA7005D015E04FF0FF3004B06B
:10035000BDE8F09F2068011D2160D0F800800AE010
:100360005FEACA7001D108F8015BA169761C7F1EA3
:10037000019888470546002F1ADD681C18D0B9F18E
:10038000000F0DD0E81705EBD060421120F01F00E0
:1003900059F822102A1A012090400142E0D107E0CA
:1003A000BBF1000FDCD1216A284688470028D7D04E
:1003B000E16901988847BBF1000F07D1002E05DDE8
:1003C0005FEACA7002D1002188F80010A068B84224
:1003D00003DDBBF1000F03D017B16FF00100B6E7EA
:1003E0003046B4E72DE9FE4F804681EA0300C00F96
:1003F0000C46009021F0004123F00045B8EB0200CC
:10040000A94105D24046214690461C460B4602466D
:1004100023F00040104347D0270DC7F30A00C3F371
:100420000A510290401A019040286BDAC3F313007E
:1004300040F4801B0098924620B10023D2EB030ABF
:1004400063EB0B0B01985946C0F14002504600F097
:1004500026F906460D4650465946019A00F02EF9F7
:1004600010EB08006141002487EA115284EAE77327
:100470001A4340D0009A62B3019A012A4FEA075208
:1004800015DC001B61EB02014FF0004202EA07524B
:10049000CDE90042001C41F5801132462B4600F0A8
:1004A00070F903B0BDE8F08F40462146F9E7001B24
:1004B00061EB0201001C41F5801300185B4120181C
:1004C000A2F5001747EB030140EAD570B6196D415C
:1004D00011E06D084FEA360645EAC0754FEA07524B
:1004E000001B61EB0201001C41F5801149084FEA35
:1004F00030000019514132462B4603B0BDE8F04FA1
:1005000000F030B90098012240000023D0EB020235
:1005100063EBE073009821464FEAE074B8EB00000B
:1005200061EB0401E9E783F000435BE781F0004100
:1005300058E72DE9F04D81EA030404F0004B21F067
:10054000004514464FF0000A23F0004150EA05022E
:1005500020D054EA01021DD0C5F30A570246C5F364
:100560001303C1F31300C1F30A5640F4801543F49A
:100570008013A7EB0608101BD64608F2FD3873EB74
:10058000050002D308F1010801E092185B41B8F1BF
:10059000000F03DA00200146BDE8F08D00204FF483
:1005A0008011064684460EE0171B73EB050705D342
:1005B000121B63EB050306434CEA010C49084FEAA2
:1005C000300092185B4150EA0107EDD152EA030076
:1005D00012D082EA040083EA0501084305D0101B0B
:1005E000AB4106D20122002306E000224FF0004377
:1005F00002E06FF0010253101AEB06004CEB0851B9
:1006000010EB0A0041EB0B01BDE8F04D00F0AAB879
:1006100030B50B46014600202022012409E021FAD2
:1006200002F59D4205D303FA02F5491B04FA02F5CF
:100630002844151EA2F10102F1DC30BD2DE9F05F66
:100640000546002092469B46884606468146402441
:100650001BE0284641464746224600F095F953469E
:100660005A46C01A914110D311461846224600F04E
:1006700016F82D1A67EB01084F462246012000218B
:1006800000F00DF817EB00094E41201EA4F1010403
:10069000DFDC484631462A464346BDE8F09F202A23
:1006A00004DB203A00FA02F1002070479140C2F1C9
:1006B000200320FA03F3194390407047202A06DBF9
:1006C000CB17203A41FA02F043EAE07306E041FA20
:1006D00002F3D040C2F1200291400843194670470E
:1006E0003A2800D2303820F02002412A01D3A2F16A
:1006F0003700884201D34FF0FF3070470268114441
:100700001378016018467047D1600449516104496B
:10071000116200211161114600F054B9FD06000874
:10072000B1090008426842B1016811F8013B23B1E8
:10073000521EC0E90012184670470121C160881E90
:10074000704742685AB1C368016843B983688B42F5
:1007500005D0491E521CC0E90012002070474FF01E
:10076000FF30704710B5141E73F1000408DA401C06
:1007700041F1000192185B411A4301D120F00100C0
:1007800010BD2DE9F04D92469B4611B1B1FA81F2B0
:1007900002E0B0FA80F220329046FFF780FF044674
:1007A0000F4640EA0A0041EA0B0153465A46084305
:1007B00013D0114653EA010019D0C8F14002504647
:1007C00000F0E2F805460E46504659464246FFF70D
:1007D00066FF084305D0012004E020463946BDE805
:1007E000F08D0020054346EAE0762C4337430A9813
:1007F0006305E40AA0EB08000022FD0A44EA47541E
:100800000A3002D500200146E9E7010510196941C7
:10081000DDE9084500196941BDE8F04DA2E72DE981
:10082000FE4F81EA030404F0004421F000410094EB
:100830004FF0000B23F0004350EA01045ED052EA6F
:1008400003045BD0C3F30A54C1F30A552C44A4F249
:10085000F3340194A0FB0254C1F3130141F480115D
:10086000C3F3130343F4801301FB024400FB034E64
:10087000840A970A44EA815447EA8357A4FB07682D
:1008800002958D0A05FB07854FEA932C04FB0C5457
:100890002705029D4FEA065847EA1637B5EB0805CB
:1008A0006EEB070C870E920E47EA811742EA83121D
:1008B000A7FB0201B6EB0B0164EB00042B0D43EA2E
:1008C0000C335E1844EB1C50DA465146E7FB02013C
:1008D000C5F313044FEA0B3343EA14534FEA0432CF
:1008E000019C43EA0603A4F10C040294009CCDE9A8
:1008F00000B4FFF746FF03B0BDE8F08F00200146CB
:10090000F9E7C1F30A52C1F3130140F2FF3341F496
:1009100080119A4202DA00200146704740F23343C8
:100920009A42A2F2334202DC524200F02DB8FFF7A5
:10093000B6BE000030B5041E71F1000404DB4FF0B8
:100940000044404264EB0101141E73F1000405DB16
:100950001C464FF00043524263EB0403994208BF28
:10096000904230BD064C074D06E0E06840F00103C0
:1009700094E8070098471034AC42F6D3FFF7BAFB6F
:10098000CC420008EC420008202A04DB203A21FA7D
:1009900002F00021704721FA02F3D040C2F1200298
:1009A0009140084319467047004870474842000884
:1009B00010B50446FFF7F8FF0068005D00F0010085
:1009C00010BD00002DE9F34F8BB04FF0000801F18E
:1009D0000C000C464FF0010B46460DF1080A019041
:1009E0006269012101989047051E2DD0252D2CD03C
:1009F000216A8847C0B16269012101989047216A44
:100A000088470028F7D1411E62690198904700E0AD
:100A1000761CA1690B988847216A88470028F7D17E
:100A2000E1690B988847DBE7A1690B98884707467F
:100A3000A84201D1761CD3E7E1690B9888477F1C57
:100A400002D1B8F1000F6FD047E1002762693D463F
:100A50003946019890472A2804D1626901210198FA
:100A600090470125DFF8889262690121019890473B
:100A7000A0F130010A290AD24F45E5DC07EB8701D6
:100A800000EB4107303FDFD445F01005ECE7E90605
:100A900001D46FF000476C280AD04C2814D0682885
:100AA00015D06A280DD074281CD07A281AD01DE0E1
:100AB00062690121019890476C2802D045F0040535
:100AC00014E045F002050DE045F020050AE06269FA
:100AD000012101989047682802D045F0080505E0FB
:100AE00045F400656269012101989047C4E9015706
:100AF00065283DD019DC58287AD00CDC452837D041
:100B000004DC252826D0412831D131E046282FD0D9
:100B100047282CD12CE05B2877D0612828D0632887
:100B20007CD0642823D15AE0D1E06F2848D008DC7B
:100B300066281DD067281BD0692821D06E2816D1C1
:100B400027E0702845D0732868D0752847D07828CA
:100B50000DD14DE0A1690B988847054625283FF443
:100B600069AFE1690B9888476D1C3FF46AAFB4E048
:100B700023466A466FF001000B99AFF300809FE0B7
:100B800045F040006060A80723464FF0000236D4CD
:100B90003EE0E8077FF447AF2068011D2160006850
:100BA000290501D506701BE7290701D5068017E73F
:100BB000A90703D5F117C0E9006111E706600FE747
:100BC00045F040006060A80723464FF0080216D4A5
:100BD0001EE040F60E0125EA0100606016E045F0D7
:100BE00040006060A80723464FF00A0207D40FE0D8
:100BF00045F040006060A80708D5234610226FF03A
:100C000001000B99AFF300805AE007E02346102261
:100C10006FF001000B99FFF7CFFA51E04FF0000998
:100C20004F464B46632802D05B2807D041E020792D
:100C3000C00601D40120A06001273AE062690121C9
:100C4000019890475E2805D14FF001096269494635
:100C500001989047216939B900210A46534643F863
:100C60002120491C0829FADBB0B3216969B9C117F1
:100C700000EBD16253110AEB830122F01F02821AAA
:100C800001200B68904003430B60626901210198C9
:100C900090475D28E8D1B9F1000F09D000205146F6
:100CA00051F82020D24341F82020401C0828F7DBCF
:100CB00002AB224600976FF001000B99FFF722FB71
:100CC00000280CDA401C08D1BBF1000F05D04FF012
:100CD000FF300DB0BDE8F08FFFE74046F9E7E907C8
:100CE00001D108F1010806444FF0000B78E600003E
:100CF000CCCCCC0C00BFFEE770472DE9F04102469A
:100D000000250026002000230024002791F803C0BE
:100D10000CF00F0591F803C00CF0100CBCF1000FA3
:100D200003D091F802C04CEA050591F800C0BCF16F
:100D3000000F31D0146800202BE04FF0010C0CFAAA
:100D400000F3B1F800C00CEA03069E4220D18300F4
:100D50004FF00F0C0CFA03F7BC4305FA03FC4CEA06
:100D6000040491F803C0BCF1280F06D14FF0010C28
:100D70000CFA00FCC2F814C00AE091F803C0BCF100
:100D8000480F05D14FF0010C0CFA00FCC2F810C05E
:100D9000401C0828D1D31460B1F800C0BCF1FF0F8B
:100DA00034DD546800202EE000F1080C4FF00108FB
:100DB00008FA0CF3B1F800C00CEA03069E4221D1F8
:100DC00083004FF00F0C0CFA03F7BC4305FA03FC49
:100DD0004CEA040491F803C0BCF1280F05D100F1DE
:100DE000080C08FA0CF8C2F8148091F803C0BCF1A2
:100DF000480F07D100F1080C4FF0010808FA0CF871
:100E0000C2F81080401C0828CED35460BDE8F081A1
:100E1000016170470AB1016100E04161704700BFA4
:100E2000FEE7000008B50121082000F0D3F94FF4D7
:100E30008050ADF8000010208DF8030003208DF8DD
:100E4000020069460848FFF758FF4FF40050ADF81C
:100E5000000069460448FFF750FF4FF44051024834
:100E6000FFF7D6FF08BD0000000C014000BFFEE701
:100E70007047000070B5002100230F22C47804B32E
:100E8000154C246804F4E064C4F5E064210AC1F15F
:100E90000403CA40447804FA03F1847814402143DF
:100EA00009010E4C0678A155047804F01F050124B1
:100EB000AC4005786D11AD0005F1E025C5F80041A5
:100EC00009E0047804F01F050124AC40044D0678C5
:100ED000761145F8264070BD0CED00E000E400E01E
:100EE00080E100E070B500240EE00021204600F013
:100EF000E0F8002504E0002000F04AF9681CC5B2C3
:100F0000802DF8DB601CC4B2082CEEDB70BD000045
:100F100008B50121082000F05DF914208DF80300C8
:100F200003208DF802004020ADF8000069460A4811
:100F3000FFF7E3FE8020ADF8000069460648FFF7A2
:100F4000DCFE012240210448FFF764FF01228021DA
:100F50000148FFF75FFF08BD000C014070B5054672
:100F6000002413E08020204100EA050280210E4881
:100F7000FFF750FF012240210B48FFF74BFF0022F3
:100F800040210948FFF746FF601CC4B2082CE9DB8A
:100F9000012240210448FFF73DFF00224021024882
:100FA000FFF738FF70BD0000000C014010B50122B2
:100FB00080210948FFF72EFF012240210648FFF754
:100FC00029FF002280210448FFF724FF002240214E
:100FD0000148FFF71FFF10BD000C014010B50022B3
:100FE00080210748FFF716FF012240210448FFF740
:100FF00011FF012280210248FFF70CFF10BD000005
:10100000000C014070B5002406E0002500E06D1CD6
:10101000B5F57A7FFBD3641CB4F57A7FF5D3FFF77F
:1010200077FFAE2000F0A4F8D52000F0A1F88020D2
:1010300000F09EF8A82000F09BF83F2000F098F800
:10104000D32000F095F8002000F092F8402000F046
:101050008FF8A12000F08CF8C82000F089F8DA2081
:1010600000F086F8122000F083F8812000F080F86C
:10107000CF2000F07DF8D92000F07AF8F12000F0C0
:1010800077F8DB2000F074F8302000F071F8A4202D
:1010900000F06EF8A62000F06BF88D2000F068F8E4
:1010A000142000F065F8AF2000F062F8FFF71AFF97
:1010B00070BD70B505460C4645F0B00000F058F81C
:1010C000102141EA141000F053F804F00F0000F072
:1010D0004FF870BD2DE9F04105460E461746721EC9
:1010E000D206110E6A1E5206100EFFF7E2FF002410
:1010F00009E0A7F12001134A02EB0111085D00F09D
:1011000047F8601CC4B2082CF3DB721ED206110E25
:101110006A1E012303EB4202D0B2FFF7CAFF00248C
:101120000BE0A7F12001074A02EB011204F10801CC
:10113000505C00F02DF8601CC4B2082CF1DBBDE857
:10114000F0810000D43B00082DE9F04107460E462F
:101150001546002407E02A5D3019C1B23846FFF772
:10116000B9FF601CC4B2285D0028F4D1BDE8F0814D
:1011700010B50446FFF71AFF7820FFF7EFFE0020B6
:10118000FFF7ECFE2046FFF7E9FEFFF727FF10BD53
:1011900010B50446FFF70AFF7820FFF7DFFE402076
:1011A000FFF7DCFE2046FFF7D9FEFFF717FF10BD63
:1011B0007047000029B1064AD2690243044BDA6144
:1011C00004E0034AD2698243014BDA6170470000B0
:1011D0000010024029B1064A92690243044B9A6109
:1011E00004E0034A92698243014B9A617047000010
:1011F0000010024030B500210022002400232D4DB4
:101200006D6805F00C0121B1042905D0082923D10E
:1012100005E0294D056022E0274D05601FE0254DC2
:101220006D6805F47012234D6D6805F48034022555
:1012300005EB92421CB9214D554305600BE01D4D55
:101240006D6805F400351DB11C4D5543056002E085
:10125000194D5543056002E0174D056000BF00BF02
:10126000144D6D6805F0F0010909154D6B5C0568BA
:10127000DD4045600F4D6D6805F4E061090A104DD1
:101280006B5C4568DD4085600A4D6D6805F4605112
:10129000C90A0B4D6B5C4568DD40C560054D6D6846
:1012A00005F44041890B074D6B5CC568B5FBF3F550
:1012B000056130BD0010024000127A0000093D00B7
:1012C0000000002010000020704710B500F002F868
:1012D00010BD00000CB5002001900090334800685C
:1012E00040F480303149086000BF3048006800F4A5
:1012F000003000900198401C0190009818B90198A6
:10130000B0F5A06FF1D12948006800F4003010B1A9
:101310000120009001E0002000900098012843D1B6
:101320002348006840F01000214908600846006822
:1013300020F0030008600846006840F002000860E2
:101340001A4840681949486008464068486008469D
:10135000406840F4806048600846406820F47C1093
:1013600048600846406840F4E81048600846006855
:1013700040F08070086000BF0C48006800F000700A
:101380000028F9D00948406820F003000749486068
:101390000846406840F00200486000BF03484068CB
:1013A00000F00C000828F9D10CBD0000001002402C
:1013B00000200240042808D14FF0E021096941F0E3
:1013C00004014FF0E022116107E04FF0E0210969CC
:1013D00021F004014FF0E0221161704770470000D6
:1013E00010B51348006840F0010011490860084634
:1013F0004068104908400E494860084600680E4998
:1014000008400B4908600846006820F48020086006
:101410000846406820F4FE0048604FF41F008860D2
:10142000FFF753FF4FF000600449086010BD000053
:10143000001002400000FFF8FFFFF6FE08ED00E09C
:1014400010B50121880700F032F8D8B101218807D2
:1014500000F01EF800214FF0804000F01CF80A4810
:10146000008820F4004000F5004007490880074844
:101470000078401C0549087008460078282801DBE0
:101480000020087010BD0000280000202E00002061
:10149000CA430282704721B1028842F001020280F1
:1014A00004E002884FF6FE731A400280704730B5A0
:1014B0000246002000230024158A05EA01039589CD
:1014C00005EA010413B10CB1012000E0002030BD99
:1014D0001AB183890B43838102E083898B43838123
:1014E0007047000070B5002400220023058C4FF6E1
:1014F000FE7635400584028C8388048B4FF68F7509
:101500002C40B51E2C400D882C43751E2A400D8999
:101510002A434D882A43144DA8420BD0134DA842AC
:1015200008D0134DA84205D0124DA84202D0124D4A
:10153000A84213D14FF6F7752A404D892A434FF63A
:10154000FB752A408D882A434FF6FF652B404FF6E6
:10155000FF552B408D892B43CD892B4383800483FA
:10156000CD888586028470BD002C01400034014086
:10157000004001400044014000480140002101803A
:1015800041808180C180018141818181C181704719
:1015900081847047002202881D4B98420ED01D4B5B
:1015A00098420BD0B0F1804F08D01B4B984205D029
:1015B0001A4B984202D01A4B984204D14FF68F73BF
:1015C0001A404B881A43174B984207D0164B984243
:1015D00004D04FF6FF431A40CB881A4302808B8811
:1015E00083850B8803850A4B98420BD0094B9842A0
:1015F00008D00E4B984205D00D4B984202D00D4BAF
:10160000984201D10B7A0386012383827047000040
:10161000002C01400034014000040040000800405C
:10162000000C004000100040001400400040014049
:10163000004401400048014010B540F225511D48CA
:1016400000F0DDF810B31B4800F094F9C4B21A485A
:10165000008800F40040C8B91748008800F48040B2
:1016600060B10A2C03D000201349088020E0124802
:10167000008840F400401049088019E00D2C06D184
:101680000D48008840F480400B49088010E00A486B
:101690000088C0F30D0009490C5407480088401C1D
:1016A0000549088008460088C72801DD0020088019
:1016B00010BD000000380140240000204800002038
:1016C00010B54FF458713A4800F099F838B14FF41A
:1016D0005871374800F078F8354800F04BF940F27F
:1016E0002551334800F08BF830B3314800F042F90F
:1016F000C4B230480088C0F30E00FF281DDA002174
:101700004FF08040FFF744FF2A480088C0F30E00E6
:1017100018B901218807FFF7BEFE26480088C0F3EC
:101720000E0025490C5423480088401C2149098893
:1017300060F30E011F48018014E01E4800886FF31B
:101740000E001C49088008460088C0F30E001A49A4
:101750000C5418480088401C1649098860F30E0193
:101760001448018040F22771114800F048F8F0B1A8
:101770001248008812490988884212D01148104A3C
:101780001288815C0A4800F0FAF80D490988481C63
:10179000C11700EB5161C911A0EBC111084A1180BA
:1017A00005E0002240F22771014800F052F810BD18
:1017B0000048004028000020100100202A000020DE
:1017C0002C0000201002002010B50022002340F65B
:1017D0006A14A14200D100BF0A1201249440A3B2AE
:1017E000DC43048010BD21B1828942F40052828121
:1017F00004E082894DF6FF731A408281704770B50C
:101800000246002400230025002040F66A16B1425B
:1018100000D100BFC1F3421501F01F03012606FAF3
:1018200003F3012D02D19689334006E0022D02D147
:10183000168A334001E0968A33400C12012606FADC
:1018400004F41688344013B10CB1012000E00020EC
:1018500070BDF0B50346002400260025002040F6A8
:101860006A17B94200D100BF1846C1F3421401F013
:101870001F06012707FA06F5012C01D10C3004E000
:10188000022C01D1103000E014301AB107682F4348
:10189000076002E00768AF430760F0BD2DE9F0473D
:1018A00086B005460E460024A24600BFA14600278A
:1018B000B08900B100BF2F462C8A4CF6FF7004405F
:1018C000F08804432C82AC894EF6F3100440B088B3
:1018D00031890843718908430443AC81AC8A4FF6CF
:1018E000FF400440B0890443AC8201A8FFF782FCAA
:1018F0001F48874202D1DDF810A001E0DDF80CA0FE
:10190000A88900F4004040B10AEBCA0000EB0A10BD
:1019100031684900B0FBF1F807E00AEBCA0000EBC0
:101920000A1031688900B0FBF1F86420B8FBF0F0D0
:1019300004012009642101FB1089A88900F40040FA
:1019400040B1322000EBC900B0FBF1F000F007001D
:10195000044308E0322000EB09106421B0FBF1F0F1
:1019600000F00F0004432C8106B0BDE8F0870000B2
:101970000038014001468888C0F308007047C1F371
:1019800008028280704700BFFEE700000FB4054BDD
:1019900010B503A9044A029800F008F910BC5DF8DC
:1019A00014FB0000452A0008200000200FB4084B5B
:1019B00010B504A902AA039800F0F8F8044602A999
:1019C000002000F081FC204610BC5DF814FB0000F4
:1019D000C92200087CB50C001D461646014601D000
:1019E000601E00E00020CDE90010064B6A46294643
:1019F000304600F0DBF8002C02D0009A0021117074
:101A00007CBD0000B322000802E008C8121F08C114
:101A1000002AFAD170477047002001E001C1121F6F
:101A2000002AFBD1704700002DE9FF5F82B0002142
:101A3000DDE90430020DDDF840B0034318D044F670
:101A40001050A2F2FF3242431514119801281FD002
:101A5000A5EB0B00401C5FEA000A4FF000064E4F5A
:101A6000DFF83891B046504615D5CAF1000413E0AE
:101A7000119801244AA3012801D16FEA0B010298B1
:101A8000119AC0E90031C0E9024206B0BDE8F09FFA
:101A9000CBF10000DFE704460021404A491842EB41
:101AA0000450CDE9001012E0E00707D032463B4673
:101AB00040464946FEF7B3FE8046894632463B46DD
:101AC00010461946FEF7ABFE06460F466410002C82
:101AD000EAD1DDE90401DDE90023BAF1000F06DAFD
:101AE000FEF79DFE42464B46FEF799FE05E0FEF7E7
:101AF00020FD42464B46FEF71CFD04460E460022E2
:101B0000284BFEF717FF03D84FF0FF30014607E0E0
:101B10000022254B20463146FEF764FCFEF7F1FE1D
:101B2000102409E0002C0ADB0A220023FEF786FDC0
:101B3000039B30321A55641E50EA0102F2D1641C34
:101B4000039AC4F111031444119A012A03D001220B
:101B500008430DD10AE0084304D000204FF0110BD8
:101B6000119072E7A3EB0B056D1E0DE05B4504DDE4
:101B70004FF0000205F1010504E003DA4FF0000226
:101B8000A5F10105002AECD002981199C0E90231B3
:101B9000C0E9004579E70000000014400000F03F74
:101BA000300000000000F0430000E03F2DE9FF4F4F
:101BB00095B09A46884606460025EEE1252877D15D
:101BC00000242746F94A0121039400E0044316F853
:101BD000013F203B01FA03F01042F7D130782A2868
:101BE00011D06FF02F033078A0F13002092A16D8F7
:101BF000039A44F0020402EB820203EB4202104417
:101C0000761C0390EFE758F8042B0392002A03DABE
:101C1000504244F40054039044F00204761C30789F
:101C20002E2816D116F8010F44F004042A280DD0EE
:101C30006FF02F023078A0F13003092B09D807EBA1
:101C4000870302EB4303C718761CF3E758F8047BBD
:101C5000761C30786C280FD006DC4C2817D068280A
:101C60000DD06A2814D104E0742810D07A280FD13E
:101C70000DE044F400140AE044F4801401E044F45C
:101C800040147278824202D104F58014761C761CCE
:101C9000307866280BD013DC582877D009DC002870
:101CA00075D04528F6D04628F4D047281AD193E1BC
:101CB00018E0632835D0642879D0652812D18BE1EB
:101CC000702873D008DC6728F1D069286FD06E289F
:101CD0000DD06F2806D1ACE073282CD0752874D0B5
:101CE000782853D05246179990476D1C54E1C4F39D
:101CF0000250022809D003280DD0D8F8001004287B
:101D00000DD00D6008F1040846E1D8F80010EA177C
:101D1000C1E90052F6E7D8F800100D80F2E70D7027
:101D2000F0E718F8041B8DF8001000208DF8010072
:101D3000EB46012003E058F804BB4FF0FF30610789
:101D40004FF0000102D40DE009F101018946B942CA
:101D50000FDA8145F8DB1BF809100029F4D108E0FF
:101D600009F1010189468142FADB1BF809100029BB
:101D7000F6D103985346A0EB090721463846179A37
:101D800000F080FA284400EB090507E044E008E190
:101D90000DE01BF8010B524617999047B9F1010964
:101DA000F7D2534621463846179AF2E039E00A2125
:101DB000C4F302524FF0000B0091022A06D058F8EB
:101DC000040BC117032A09D00AE023E008F1070039
:101DD00020F00702F2E80201904605E000B2C117C8
:101DE000042A01D140B2C117002906DA0A460021AF
:101DF000404261EB02012D2202E0220504D52B2294
:101E00008DF80420012203E0E20701D02022F7E749
:101E1000914657E00A2100E010214FF0000B00919D
:101E20000BE010214FF0000B44F004040827009150
:101E300003E008204FF0000B0090C4F30252022A86
:101E400005D058F8040B0021032A08D008E008F157
:101E5000070020F00702F2E80201904603E080B29A
:101E6000042A00D1C0B24FF0000922072AD53278E7
:101E7000702A07D0DDF800C08CF0100C5CEA0B0C67
:101E800005D00EE040228DF80420012208E050EA3F
:101E9000010306D030238DF804308DF8052002228E
:101EA0009146009B83F0080353EA0B030AD150EAE2
:101EB000010201D1620705D530228DF804204FF0D0
:101EC00001097F1E3278582A04D039A20C920CAA3C
:101ED00002920BE03BA2F9E75B46009AFEF7AEFBED
:101EE0000C9B9B5C029A521E0292137050EA0102F4
:101EF000F2D1029804A9081A00F1200B600702D55C
:101F000024F4803400E001275F4502DDA7EB0B00DD
:101F100000E0002000EB0B01009003984944401AB8
:101F20000390E00306D453462146179A039800F025
:101F3000A9F90544002706E001A85246C05D17999B
:101F400090476D1C7F1C4F45F6DBE0030CD55346D4
:101F50002146179A039800F095F9054404E03020D3
:101F60005246179990476D1C0099481E0090002911
:101F7000F5DC08E00298029952460078491C02916B
:101F8000179990476D1CBBF10001ABF1010BF1DC1F
:101F90005BE100F065F90544761C307800287FF499
:101FA0000DAE19B02846BDE8F08F000009280100E9
:101FB00030313233343536373839616263646566BF
:101FC0000000000030313233343536373839414281
:101FD0004344454600000000600700D4062708F18E
:101FE000070020F00700F0E80223804603F0004CD1
:101FF0005FEA0C0001D097A009E0200501D596A06A
:1020000005E0E00701D095A001E0AFF24C0013908D
:10201000307823F0004365280CD006DC452809D031
:1020200046281DD047287FD13BE0662818D0672876
:102030007AD136E00021112F01DB112000E0781C5D
:10204000CDE9000104A90CA8FFF7EEFCDDE90D01C4
:102050000C9A4FF0000B07F10109109200914EE02D
:102060004FF000400097CDE9011004A90CA8FFF73C
:10207000DBFCDDE90D020C9B0F994FF0000B914644
:102080001093009211B9791C00EB0109B7EB09001C
:1020900003D4C0F1FF3B07F10109A9EB0700019050
:1020A00042E0012F00DA01270021112F01DD11206C
:1020B00000E03846CDE9000104A90CA8FFF7B4FC04
:1020C000DDE90D010C9A00914FF0000BB94610921A
:1020D00021070FD4009A4A4503DA914601E0A9F19D
:1020E0000109B9F1010F05DD109AA9F10101515C57
:1020F0003029F4D0B84202DA10F1040F03DA0121DA
:10210000CDE9011010E0002803DC8344A9EB0001B5
:1021100002E0411C494500DD8946A0EB0B00401C54
:1021200001904FF000400290200705D401984845E7
:1021300002DB4FF0FF30019000208DF84B00029839
:102140000DF14B07B0F1004F25D002200C902B2051
:102150000D90029800280CDA404202902D200D903C
:1021600007E00A210298FEF753FA3031029007F88F
:10217000011D0C99481E0C900029F2DC02980028E1
:10218000EFD1791E0D980870307800F0200040F0F3
:10219000450007F8020D11A8C01BC01D029013983E
:1021A000007800B1012000EB0901019801EBE0711A
:1021B000029801440398401A401E0390E00306D49D
:1021C00053462146179A039800F05CF8054413988B
:1021D000007818B15246179990476D1CE00323D53B
:1021E00053462146179A039800F04CF805441BE02B
:1021F000BBF1000F07DB0098584504DD10981799D4
:1022000010F80B0001E017993020524690470198D2
:102210000BF1010B401E05F10105019004D12E20A8
:102220005246179990476D1CB9F10001A9F10109B7
:10223000DEDC05E017F8010B5246179990476D1C3C
:102240000299481E02900029F4DC53462146179A51
:1022500003989EE62D0000002B00000020000000E7
:102260002DE9F041044600251E461746880404D493
:1022700005E039462020B0476D1C641EF9D528467C
:10228000BDE8F0812DE9F041044600251E46904648
:10229000C80301D5302700E02027880404D505E0D5
:1022A00041463846B0476D1C641EF9D52846BDE846
:1022B000F0814A68002A06D00A68531C0B6010702F
:1022C0004868401E486070470A68531C0B601070D5
:1022D0007047000070B500250BE04FF4FA7207A1BB
:1022E00007A000F029F904460CB9002070BD681C55
:1022F000C5B20A2DF1DB0120F8E700004F4B0000CA
:102300004154000070B590B005460E4613A0FFF78B
:102310003DFB4FF47A721AA11AA000F00DF90446A1
:1023200034B121461AA0FFF731FB012010B070BD77
:1023300025A0FFF72BFB33462A462DA16846FFF761
:1023400035FB41F2883231A1684600F0F5F80446C9
:102350000CB90020EAE70120E8E700005B444542B1
:1023600055475D20E8AEBEE7BDAEE58D95E8BF9E62
:10237000E68EA5E6A8A1E5BC8F2E2E2E0D0A000044
:102380004F4B000041542B4349504D55583D3000B0
:102390005B4552524F525D20E8AEBEE7BDAEE58DC3
:1023A00095E8BF9EE68EA5E6A8A1E5BC8FE5A4B1A1
:1023B000E8B4A52120E99499E8AFAFE7A0813A20DD
:1023C00025640D0A000000005B53554343455353F9
:1023D0005D20E58D95E8BF9EE68EA5E6A8A1E5BC4B
:1023E0008FE8AEBEE7BDAEE68890E58A9F0D0A0095
:1023F00041542B43495053544152543D225443506D
:10240000222C222573222C2573000000434F4E4EB0
:10241000454354002DE9F04106464FF4FA720FA1EE
:102420000FA000F089F8074617B10120BDE8F08140
:1024300000F08AF980460DA1FDF788FE04460BA145
:10244000601CFDF783FE054600202870621C08A171
:102450003046FFF7ABFA0020E8E700004F4B0000E2
:1024600041542B4349465352000000002200000013
:102470002573000008B501210420FEF7ABFE1020F3
:10248000ADF800008DF8030003208DF802006946C6
:102490000148FEF732FC08BD0008014010B50022DB
:1024A00010210848FEF7B6FC642000F0A1FA0122D2
:1024B00010210448FEF7AEFC4FF4FA7000F098FAD1
:1024C00010BD00000008014010B50446FFF7D2FF20
:1024D000FFF7E4FF204600F05BF8FFF7FBFE08B1D2
:1024E000012010BD0020FCE770B590B004460D46F9
:1024F0002B46224608A16846FFF758FA42F21072AE
:102500000AA1684600F018F8064616B9002010B077
:1025100070BD0120FBE7000041542B43574A415056
:102520003D222573222C222573220000574946495B
:1025300020474F54204950002DE9F04105460E46F2
:102540001446002700F016F929460FA000F0C4F841
:1025500006B114B90020BDE8F08110E000F0F4F8F5
:10256000074647B131463846FDF7F0FD08B1002077
:10257000F1E700F0FFF8641E012000F039FA002CAA
:10258000ECD10220E7E7000025730D0A00000000EF
:1025900010B58EB0044601210920FEF71BFE012173
:1025A0004748FEF707FE4FF48060ADF8340018206E
:1025B0008DF8370003208DF836000DA94148FEF74D
:1025C0009CFB4FF40060ADF8340004208DF8370018
:1025D0000DA93C48FEF791FB08940020ADF82400BB
:1025E000ADF82600ADF82800ADF82C000C20ADF8B1
:1025F0002A0008A93448FFF751F927208DF8300048
:1026000001208DF831008DF832008DF833000CA8D0
:10261000FEF730FC012240F225512B48FFF719F953
:1026200001212948FFF7DFF86320ADF818004EF6C6
:102630005F20ADF814000020ADF81A00ADF81600C8
:1026400005A94FF08040FEF7A5FF1C208DF8300053
:1026500002208DF8310001208DF832000CA8FEF721
:1026600009FC012211469007FEF732FF01A8FEF790
:1026700085FF6020ADF804000020ADF80C000120BB
:10268000ADF806000020ADF80A0001A94FF0804027
:10269000FEF728FF01218807FEF7FDFE0B480088A2
:1026A0006FF30E00094908800846008820F40040B6
:1026B0000880002006490880064908800EB010BD39
:1026C00001000400000C01400048004028000020E8
:1026D0002A0000202C0000200FB410B5A2B025A8BD
:1026E0002190802101A8219B249AFFF773F984B2DD
:1026F00000202190002C1CDD00BF12E001A9095C24
:102700000E4A0F4B1B88D1540D4A1288511CCA1710
:1027100001EB5262D211A1EBC212094B1A80411C8B
:1027200088B2A042EADB012240F227710548FFF798
:1027300090F822B010BC5DF814FB000010020020DD
:102740002A00002000480040084800880121B1EB21
:10275000D03F08D1002005490988C1F30E01044A81
:102760005054104670470020FCE70000280000206D
:1027700010010020054800886FF30E00034908800F
:102780000846008820F40040088070472800002098
:1027900010B500244FF47A7208A109A0FFF7CCFE0F
:1027A00050B9FFF7D1FF044634B108A12046FDF728
:1027B000CDFC08B1012010BD0020FCE74F4B00000C
:1027C00041542B4357535441545553002B435753B3
:1027D00054415455533A320030B585B00024002599
:1027E0004FE00523621C2FA130A0FFF7CFF83AA2DB
:1027F00001210846FEF7A8FC3BA201210220FEF7BA
:10280000A3FC3DA127A0FFF76FFE002822D13DA029
:10281000FFF7BCF842A201210220FEF795FC14212B
:102820006846FDF788FC6846FFF7F4FD68B969461D
:102830003EA0FFF7ABF844A201210320FEF784FC81
:102840006A4601210420FEF77FFC01204049087000
:10285000012518E0601C41003EA0FFF797F848A250
:1028600001210220FEF770FC601CC4B2611C01EB68
:102870004102C2EBC1114FF6FF7202EA011000F0F3
:10288000B7F8052CADDB00BF052C08DB3FA0FFF738
:102890007DF84CA201210220FEF756FC00252846B7
:1028A00005B030BD7669766F533138005B576946A5
:1028B000695D20E8BF9EE68EA5E588B05769466948
:1028C0003A2025732028E5B09DE8AF952025642F98
:1028D0002564290D0A00000020205769466920431D
:1028E0006F6E6E65637400002020436F6E6E6563CB
:1028F00074696E6700000000313233343536373882
:10290000000000005B576946695D2057694669E829
:10291000BF9EE68EA5E68890E58A9F0D0A0000001E
:102920002020436F6E6E6563746564005B57694673
:10293000695D20E88EB7E58F964950E59CB0E59D2E
:10294000803A2025730D0A00202049503A000000EB
:10295000340000205B576946695D2057694669E885
:10296000BF9EE68EA5E5A4B1E8B4A5EFBC8C2564B6
:10297000E7A792E5908EE9878DE8AF950D0A0000F4
:10298000202052657472792E2E2E00005B57694606
:10299000695D2057694669E8BF9EE68EA5E5A4B14A
:1029A000E8B4A5EFBC8CE5B7B2E8BEBEE588B0E6FA
:1029B0009C80E5A4A7E9878DE8AF95E6ACA1E695F4
:1029C000B00D0A0020204661696C656400000000BB
:1029D00010B504466FF00400FEF7ECFC2046E1174A
:1029E00004EB5171C910014A116010BD14000020A0
:1029F0000146134A12684A434FF47A735A434FF020
:102A0000E0235A6100229A611A46126942F00102DB
:102A10001A6100BF4FF0E022106900F001021AB104
:102A200000F48032002AF5D04FF0E022126922F043
:102A300001024FF0E0231A6100229A617047000002
:102A40001400002000BF054A128802F08002002A0C
:102A5000F9D0C2B2014B1B1D1A80704700380140EB
:102A600010B5002413A0FEF791FF1BA20121084618
:102A7000FEF76AFB1CA201210220FEF765FB4FF462
:102A8000E130FFF721FD48B91BA0FEF77FFF24A22C
:102A900001210220FEF758FB012408E023A0FEF7E5
:102AA00075FF2CA201210220FEF74EFB00242046D8
:102AB00010BD00005B53797374656D5D20E5889DE2
:102AC000E5A78BE58C9657694669E6A8A1E59D9731
:102AD0002E2E2E0D0A000000202053797374656D90
:102AE00020496E6974000000202057694669204D16
:102AF0006F64756C650000005B53797374656D5D80
:102B00002057694669E6A8A1E59D97E5889DE5A758
:102B10008BE58C96E68890E58A9F0D0A0000000000
:102B20002020496E69743A204F4B00005B53797343
:102B300074656D5D2057694669E6A8A1E59D97E536
:102B4000889DE5A78BE58C96E5A4B1E8B4A50D0AB0
:102B5000000000002020496E69743A204661696CCB
:102B6000656400004820FFF733FF4FF4E13000F0C8
:102B7000E1FFFEF747FAFEF755F9FFF771FF00286E
:102B800016D0FFF729FE002812D03FA0FEF7FEFE68
:102B90004CA201210846FEF7D7FA4EA201210220DD
:102BA000FEF7D2FA4FF47A70FFF722FF00F0A2FD91
:102BB00069E04B480068401C4949086008460068C5
:102BC00042F21071B0FBF1F201FB1200002849D172
:102BD000FFF7DEFD04469CB14248007880B942A070
:102BE000FEF7D4FE47A201210846FEF7ADFA49A23E
:102BF00001210220FEF7A8FA01203A49087030E0CE
:102C0000002C1DD137480078002819D045A0FEF7C8
:102C1000BDFE3CA201210846FEF796FA48A201211A
:102C20000220FEF791FA00202E49087048A0FEF716
:102C3000ADFEFFF7D1FDA0B14DA0FEF7A7FE10E05D
:102C40007CB12848007860B150A0FEF79FFE2DA20D
:102C500001210846FEF778FA53A201210220FEF76F
:102C600073FA00BF1E48006847F23051B0FBF1F222
:102C700001FB120020B91B48007808B100F036FCB7
:102C80000120FFF7B5FE94E75B53797374656D5DC2
:102C90002057694669E8BF9EE68EA5E5AE8CE688BA
:102CA00090EFBC8CE58786E5A487E8BF9BE8A18C04
:102CB000E4B88BE4B880E6ADA5E8AEA1E588920D56
:102CC0000A000000202053797374656D20526561FD
:102CD0006479000020204E6578742053746570007C
:102CE00030000020340000205B576946695D2057A2
:102CF000694669E9878DE696B0E8BF9EE68EA50D28
:102D00000A000000202057694669205374617475D9
:102D10007300000020205265636F6E6E65637465FA
:102D2000640000005B576946695D2057694669E8A1
:102D3000BF9EE68EA5E696ADE5BC800D0A000000BC
:102D40002020446973636F6E6E6563746564000070
:102D50005B576946695D20E5B09DE8AF95E9878DD1
:102D6000E696B0E8BF9EE68EA52E2E2E0D0A000038
:102D70005B576946695D20E9878DE696B0E8BF9E9E
:102D8000E68EA5E68890E58A9F0D0A005B576946A6
:102D9000695D2057694669E8BF9EE68EA5E6ADA34A
:102DA000E5B8B80D0A00000020204F4B00000000DD
:102DB00030B591B00446002500200090224622A1A3
:102DC00001A8FEF7F3FD01A923A0FEF7DFFD43F6FE
:102DD000982229A101A8FFF7AFFB00282FD1FFF708
:102DE000B3FC0546002D2AD024A12846FDF7AEF9F4
:102DF000002824D023A12846FDF7A8F928B125A052
:102E0000FEF7C4FD002011B030BD6A4627A1284658
:102E1000FDF7B6F9012805D127A00099FEF7B6FD08
:102E20000098F0E76A462DA12846FDF7A9F9012888
:102E300005D121A00099FEF7A9FD0098E3E72AA09B
:102E4000FEF7A4FD0020DEE741542B50494E473DDC
:102E500022257322000000005B44454255475D2057
:102E6000E58F91E9808150696E67E591BDE4BBA46F
:102E70003A2025730D0A00004F4B00002B50494E9D
:102E8000473A00002B50494E473A54494D454F555B
:102E9000540000005B44454255475D2050696E6711
:102EA000E8B685E697B60D0A000000002B50494EA3
:102EB000473A2575000000005B44454255475D20B8
:102EC00050696E67E5938DE5BA94E697B6E997B4D5
:102ED0003A20256C75206D730D0A0000252A5B5E73
:102EE000302D395D257500005B44454255475D2016
:102EF00050696E67E591BDE4BBA4E689A7E8A18CA3
:102F0000E5A4B1E8B4A50D0A000000002DE9F047E2
:102F100088B006460F4690464FF00009002413E1A2
:102F20000320631C3A46314600908BA0FEF72EFD2D
:102F300097A201210320FEF707F999A2012104209D
:102F4000FEF702F9FFF716FC98A0FEF71FFD4FF4FD
:102F50007A72A1A1A1A0FFF7EFFA39463046FFF738
:102F6000D1F900287AD1A0A0FEF710FDA6A2012178
:102F70000320FEF7E9F88AA201210420FEF7E4F815
:102F80000120A4490870FFF7F5FB4046FDF7F0F873
:102F900082465246A0A16846FEF708FD6946A2A0F7
:102FA000FEF7F4FC4FF4FA62A7A16846FFF7C4FAF3
:102FB000002879D1A5A0FEF7E9FCB0A201210320E9
:102FC000FEF7C2F8B0A201210420FEF7BDF8FFF71A
:102FD000D1FB4046FFF780FBAEA0FEF7D7FCB5A2C1
:102FE00001210320FEF7B0F8A7A201210420FEF77B
:102FF000ABF8B2A0FEF7CAFCB9A201210320FEF78C
:10300000A3F8BAA201210420FEF79EF84FF4FA506B
:10301000FFF7EEFCFFF798FB0546002D45D0B6A064
:10302000FEF7B4FCBCA0FEF7B1FC294684A0FEF775
:10303000ADFCC3A12846FDF789F880B1C2A0FEF718
:10304000A5FCCBA201210320FEF77EF8CBA2012133
:103050000420FEF779F84FF0010933E055E0C9A1EB
:103060002846FDF773F878B1C9A0FEF78FFCD7A208
:1030700001210320FEF768F8D7A201210420FEF702
:1030800063F84FF000091DE0D5A0FEF77FFCB8A261
:1030900001210320FEF758F8CFA201210420FEF7FA
:1030A00053F84FF001090DE00DE0D7A0FEF76EFCDC
:1030B000E0A201210320FEF747F88CA201210420A1
:1030C000FEF742F80CE0DDA0FEF760FCE5A201216E
:1030D0000320FEF739F8E5A201210420FEF734F8B9
:1030E000E4A0FEF753FC4FF4FA623BA1E8A0FFF71F
:1030F00023FA0020474908704FF47A70FFF778FCF4
:10310000B9F1000F00D022E00CE0E4A0FEF73EFC95
:10311000ECA201210320FEF717F8D4A2012104201C
:10312000FEF712F8601CC4B2032C0DDA2146E8A0A9
:10313000FEF72CFC04EB4401C1EBC4114FF6FF7207
:1031400002EAC100FFF754FC032CFFF6E9AE00BF12
:10315000484608B0BDE8F0875B44454255475D20CE
:10316000E5B09DE8AF95E8BF9EE68EA5E69C8DE5AF
:103170008AA1E599A83A2025733A25732028E5B05D
:103180009DE8AF952025642F2564290D0A000000D5
:103190002020436F6E6E656374696E6700000000E7
:1031A0002020536572766572000000005B44454242
:1031B00055475D20E5BCBAE588B6E8AEBEE7BDAED2
:1031C000E58D95E8BF9EE68EA5E6A8A1E5BC8F2E0D
:1031D0002E2E0D0A000000004F4B000041542B43DF
:1031E00049504D55583D30005B44454255475D20A0
:1031F000E8BF9EE68EA5E69C8DE58AA1E599A8E646
:103200008890E58A9F0D0A002020436F6E6E6563EB
:10321000746564003500002041542B4349505345E8
:103220004E443D25640000005B44454255475D2007
:10323000E58F91E980814154E591BDE4BBA43A203A
:1032400025730D0A000000003E0000005B4445426B
:1032500055475D20E694B6E588B0273E27E68F9077
:10326000E7A4BAE7ACA6EFBC8CE58F91E980814872
:10327000545450E8AFB7E6B1820D0A0020205365E0
:103280006E64696E67000000202052657175657379
:10329000740000005B44454255475D20485454503B
:1032A000E8AFB7E6B182E5B7B2E58F91E980810D6D
:1032B0000A000000202053656E7400005B44454204
:1032C00055475D20E7AD89E5BE85E69C8DE58AA181
:1032D000E599A8E5938DE5BA942E2E2E0D0A0000EF
:1032E000202057616974696E6700000020205265D4
:1032F00073706F6E736500005B44454255475D20F7
:10330000E694B6E588B0E69C8DE58AA1E599A8E546
:10331000938DE5BA940D0A005B5365727665722051
:10332000546573745D20E694B6E588B0E69C8DE53F
:103330008AA1E599A8E5938DE5BA943A200D0A0093
:10334000323030204F4B00005B536572766572203F
:10335000546573745D20E69C8DE58AA1E599A8E526
:10336000938DE5BA94E6ADA3E5B8B80D0A00000068
:1033700020205365727665723A00000020204F4B82
:103380000000000041542B43495053454E44000077
:103390005B53657276657220546573745D20E694A4
:1033A000B6E588B04154E591BDE4BBA4E59B9EE63B
:1033B00098BEEFBC8CE6A8A1E59D97E78AB6E680AB
:1033C00081E5BC82E5B8B80D0A00000020204D6FF1
:1033D00064756C653A00000020204572726F7200BF
:1033E0005B53657276657220546573745D20E69C4C
:1033F0008DE58AA1E599A8E5938DE5BA94E5BC82AF
:10340000E5B8B80D0A0000005B536572766572205E
:10341000546573745D20E69CAAE694B6E588B0E630
:103420009C8DE58AA1E599A8E5938DE5BA940D0AEE
:103430000000000020204E6F000000005B5365720A
:1034400076657220546573745D20E58F91E9808103
:103450004154E591BDE4BBA4E5A4B1E8B4A50D0ACF
:10346000000000002020436D643A000020204661E7
:10347000696C00005B44454255475D20E585B3E932
:1034800097AD544350E8BF9EE68EA50D0A0000009C
:1034900041542B434950434C4F5345005B53657295
:1034A00076657220546573745D20E8BF9EE68EA534
:1034B000E69C8DE58AA1E599A8E5A4B1E8B4A50D3F
:1034C0000A0000002020436F6E6E656374000000E8
:1034D0005B44454255475D202564E7A792E5908E01
:1034E000E9878DE8AF952E2E2E0D0A0010B586B017
:1034F00025A0FEF74BFA2FA0FEF748FA37A0FEF7FB
:1035000045FA21A0FEF742FA3FA201210846FDF745
:103510001BFE41A201210220FDF716FE42A0FFF78B
:1035200047FC0446002C13D0214643A0FEF72EFA98
:103530004FA201210220FDF707FE22464FA101A85C
:10354000FEF734FA01AA01210320FDF7FDFD0CE08E
:103550004DA0FEF71BFA5AA201210220FDF7F4FD4F
:103560005AA201210320FDF7EFFD07A0FEF70EFA96
:1035700059A0FEF70BFA04A0FEF708FA4FF4FA6020
:10358000FFF736FA06B010BD3D3D3D3D3D3D3D3DAA
:103590003D3D3D3D3D3D3D3D3D3D3D3D3D3D3D3D5B
:1035A0003D3D3D3D3D3D3D3D3D3D3D3D3D3D0D0AAE
:1035B000000000005B426169647520546573745DAE
:1035C00020E6B58BE8AF95E799BEE5BAA6E8BF9EC1
:1035D000E68EA52E2E2E0D0A000000005B426169CA
:1035E000647520546573745D20E6B58BE8AF95E58E
:1035F0009CB0E59D803A207777772E62616964758B
:103600002E636F6D0D0A00002020426169647520F1
:103610005465737400000000202050696E67696E65
:10362000672E2E2E000000007777772E6261696486
:10363000752E636F6D0000005B42616964752054F4
:103640006573745D2050696E67E799BEE5BAA63A66
:1036500020E68890E58A9F202D20E5938DE5BA9499
:10366000E697B6E997B420256C75206D730D0A00B6
:103670002020537563636573730000002020256C60
:1036800075206D73000000005B4261696475205411
:103690006573745D2050696E67E799BEE5BAA63A16
:1036A00020E5A4B1E8B4A5202D20E8B685E697B6BC
:1036B000E68896E4B88DE58FAFE8BEBE0D0A00003F
:1036C00020204661696C6564000000002020546978
:1036D0006D656F75740000005B426169647520540C
:1036E0006573745D20E6B58BE8AF95E5AE8CE68832
:1036F000900D0A00F0B5CBB050A0FEF747F95AA0E4
:10370000FEF744F964A269A175A0FEF73FF9032111
:103710007EA0FEF73BF949A0FEF738F984A063A329
:103720005DA2854900900BA8FEF740F90025002610
:1037300001245BE081A0FEF729F9032221468AA03B
:10374000FEF724F93DA0FEF721F9032322468EA1BE
:1037500001A8FEF72BF990A201210846FDF7F4FC21
:1037600001AA01210220FDF7EFFC8FA0FEF70EF960
:103770000BA997A0FEF70AF997A201210320FDF7F4
:10378000E3FC98A201210420FDF7DEFC0BAA98A11E
:1037900046A0FFF7BBFB0746394696A0FEF7F6F8B2
:1037A00077B16D1C9CA0FEF7F1F8A5A201210320C2
:1037B000FDF7CAFCA5A201210420FDF7C5FC0DE020
:1037C000761CA4A0FEF7E2F89DA201210320FDF7DC
:1037D000BBFCAAA201210420FDF7B6FCA9A0FEF7BC
:1037E000D5F840F6B830FFF703F9641C032CA1DDCF
:1037F00052A0FEF7CBF8AFA0FEF7C8F80322294687
:10380000B4A0FEF7C3F803223146BBA0FEF7BEF812
:103810000AA0FEF7BBF8C1A201210846FDF794FCFF
:1038200003232A46C0A106A8FEF7C0F806AA012174
:103830000220FDF789FC4BB0F0BD00003D3D3D3D51
:103840003D3D3D3D3D3D3D3D3D3D3D3D3D3D3D3DA8
:103850003D3D3D3D3D3D3D3D3D3D3D3D3D3D3D3D98
:103860003D3D0D0A000000005B53657276657220D5
:10387000546573745D20E6B58BE8AF95E69C8DE5E5
:103880008AA1E599A8E581A5E5BAB7E78AB6E680F9
:10389000812E2E2E0D0A00002F6170692F6D6F6E24
:1038A00069746F722F6865616C7468007375626605
:1038B000617374696769617465642D617669732DDC
:1038C000756E7265706C6576696E61626C652E6E80
:1038D00067726F6B2D667265652E646576000000F9
:1038E0005B53657276657220546573745D20E6B52E
:1038F0008BE8AF95E59CB0E59D803A2068747470C4
:103900003A2F2F257325730D0A0000005B53657253
:1039100076657220546573745D20E6B58BE8AF95CB
:10392000E6ACA1E695B03A202564E6ACA10D0A000C
:103930007669766F533138004C4200080D0A3D3DE0
:103940003D3D3D3D3D3D3D3D3D3D3D3D3D3D3D3DA7
:103950003D3D3D3D3D3D3D3D3D3D3D3D3D3D3D3D97
:103960003D3D3D3D0D0A00005B536572766572205A
:10397000546573745D20E6B58BE8AF95202325640C
:103980002F25640D0A000000546573742025303221
:10399000642F256400000000202053657276657254
:1039A00020546573740000005B5365727665722065
:1039B000546573745D20E58F91E98081E8AFB7E6C7
:1039C000B182E58685E5AEB93A200D0A0000000017
:1039D00025730D0A00000000202053656E64696E97
:1039E0006700000020205265717565737400000047
:1039F000383000005B5365727665722054657374CD
:103A00005D20E78AB6E68081E8BF94E59B9EE5806D
:103A1000BC3A2025640D0A005B53657276657220FE
:103A2000546573745D20E6B58BE8AF95E7BB93E60C
:103A30009E9C3A20E68890E58A9F0D0A00000000CF
:103A40002020526573756C743A00000020204F4BA3
:103A5000000000005B5365727665722054657374D4
:103A60005D20E6B58BE8AF95E7BB93E69E9C3A20D8
:103A7000E5A4B1E8B4A50D0A0000000020204661CD
:103A8000696C00005B44454255475D20E7AD89E520
:103A9000BE8533E7A792E8BF9BE8A18CE4B88BE42E
:103AA000B880E6ACA1E6B58BE8AF952E2E2E0D0AB8
:103AB000000000005B536572766572205465737474
:103AC0005D20E6B58BE8AF95E5AE8CE688900D0AF3
:103AD000000000005B536572766572205465737454
:103AE0005D20E68890E58A9FE6ACA1E695B03A2095
:103AF00025642F25640D0A005B536572766572207C
:103B0000546573745D20E5A4B1E8B4A5E6ACA1E604
:103B100095B03A2025642F25640D0A0020205465B5
:103B2000737420446F6E6500202025642F25642067
:103B30004F4B000010B5044601210420FDF74AFB5D
:103B400001210420FDF746FB01218803FDF742FB1C
:103B50004FF400701A4908801820C870032088703C
:103B60001848FDF7CAF84FF48060154908802820EE
:103B7000C8701448FDF7C1F81348046000201249CA
:103B80008880C880088188810C2048810F48FDF713
:103B900085FE01210D48FDF726FE25200C49087001
:103BA0000320487088700120C8700846FDF762F94C
:103BB000012240F225510548FDF74BFE10BD0000E3
:103BC00018000020000801403800002000380140A3
:103BD0001C000020000000000000000000000000A9
:103BE00000000000000000F80000000000000033AA
:103BF0003000000000100C06100C06000000000051
:103C00000000000040C07840C0784000043F040439
:103C10003F040400007088FC08300000001820FFFA
:103C2000211E0000F008F000E018000000211C0335
:103C30001E211E0000F00888700000001E212324B1
:103C40001927211010160E000000000000000000CF
:103C500000000000000000E018040200000000075F
:103C60001820400000020418E00000000040201866
:103C700007000000404080F0804040000202010F39
:103C800001020200000000F0000000000101011F1D
:103C900001010100000000000000000080B0700081
:103CA0000000000000000000000000000001010111
:103CB00001010101000000000000000000303000A0
:103CC000000000000000000080601804006018067A
:103CD0000100000000E010080810E000000F1020B4
:103CE00020100F00001010F8000000000020203FFE
:103CF0002020000000700808088870000030282488
:103D00002221300000300888884830000018202028
:103D100020110E000000C02010F80000000704244D
:103D2000243F240000F80888880808000019212092
:103D300020110E0000E0108888180000000F1120EC
:103D400020110E0000380808C83808000000003FA5
:103D5000000000000070880808887000001C222104
:103D600021221C0000E010080810E00000003122B1
:103D700022110F00000000C0C00000000000003051
:103D800030000000000000800000000000008060A3
:103D90000000000000008040201008000001020424
:103DA000081020004040404040404000040404040B
:103DB00004040400000810204080000000201008C7
:103DC00004020100007048080808F00000000030FC
:103DD00036010000C030C828E810E000071827248A
:103DE00023140B000000C038E0000000203C230238
:103DF0000227382008F8888888700000203F20209B
:103E000020110E00C03008080808380007182020CC
:103E10002010080008F808080810E000203F2020C3
:103E200020100F0008F88888E8081000203F2020A4
:103E30002320180008F88888E8081000203F200098
:103E400003000000C03008080838000007182020D0
:103E5000221E020008F808000008F808203F21018F
:103E600001213F20000808F8080800000020203F3A
:103E70002020000000000808F8080800C0808080AA
:103E80007F00000008F888C028180800203F2001A3
:103E90002638200008F8080000000000203F2020FD
:103EA0002020300008F8F800F8F80800203F003F14
:103EB000003F200008F830C00008F808203F20002C
:103EC00007183F00E01008080810E0000F1020203D
:103ED00020100F0008F808080808F000203F210112
:103EE00001010000E01008080810E0000F18242469
:103EF00038504F0008F8888888887000203F2000DC
:103F0000030C302000708808080838000038202191
:103F100021221C00180808F8080818000000203F9B
:103F20002000000008F808000008F808001F202002
:103F300020201F000878880000C8380800000738D3
:103F40000E010000F80800F80008F800033C070024
:103F5000073C0300081868808068180820302C038C
:103F6000032C30200838C800C83808000000203F63
:103F70002000000010080808C83808002038262152
:103F800020201800000000FE020202000000007F56
:103F900040404000000C30C0000000000000000164
:103FA0000638C00000020202FE000000004040404F
:103FB0007F00000000000402020204000000000074
:103FC00000000000000000000000000080808080F1
:103FD00080808080000202040000000000000000D9
:103FE0000000000000008080808000000019242272
:103FF00022223F2008F8008080000000003F1120AE
:1040000020110E000000008080800000000E1120B2
:1040100020201100000000808088F800000E112090
:1040200020103F200000808080800000001F22229E
:1040300022221300008080F0888888180020203F0A
:10404000202000000000808080808000006B94941D
:104050009493600008F8008080800000203F2100D9
:1040600000203F2000809898000000000020203FA2
:1040700020200000000000809898000000C0808090
:10408000807F000008F8000080808000203F24022C
:104090002D302000000808F8000000000020203F1C
:1040A000202000008080808080808000203F2000D1
:1040B0003F20003F8080008080800000203F210062
:1040C00000203F200000808080800000001F202012
:1040D00020201F00808000808000000080FFA12041
:1040E00020110E000000008080808000000E112052
:1040F00020A0FF80808080008080800020203F21E1
:104100002000010000008080808080000033242493
:1041100024241900008080E0808000000000001F3F
:10412000202000008080000000808000001F2020F0
:1041300020103F20808080000080808000010E30B1
:104140000806010080800080008080800F300C0312
:104150000C300F0000808000808080000020312E15
:104160000E312000808080000080808080818E70F1
:104170001806010000808080808080000021302CA3
:104180002221300000000000807C020200000000BC
:10419000003F404000000000FF0000000000000061
:1041A000FF0000000002027C800000000040403F51
:1041B00000000000000601010202040400000000EB
:1041C000000000000040404040404040404041412D
:1041D00041414140404040404040404040404040DC
:1041E0004040404040050202020202020202020276
:1041F0000202020202202020202020202020200273
:104200000202020202029090909090901010101002
:10421000101010101010101010101010101010109E
:104220000202020202028888888888880808080832
:1042300008080808080808080808080808080808FE
:104240000202020240000000C54100084745542018
:10425000257320485454502F312E310D0A486F7366
:10426000743A2025730D0A436F6E6E656374696F2F
:104270006E3A20636C6F73650D0A6E67726F6B2DFB
:10428000736B69702D62726F777365722D776172CF
:104290006E696E673A20310D0A557365722D41675C
:1042A000656E743A2053544D33322D436C69656EFC
:1042B000742F312E300D0A4465766963652D4944AB
:1042C0003A2025730D0A0D0A00000000EC42000898
:1042D0000000002038000000081A000824430008ED
:1042E0003800002068060000181A000800000000CE
:1042F0000102030401020304060708090204060878
:1043000000000000000000000000000000000000AD
:10431000000000000000000000000000000000009D
:044320000000000099
:04000005080000ED02
:00000001FF
