:020000040800F2
:10000000100D002005010008E10D00088F0D00080B
:10001000DD0D00080D080008EB25000800000000B9
:10002000000000000000000000000000F5130008C0
:100030001108000800000000211100083F1E000800
:100040001F0100081F0100081F0100081F01000810
:100050001F0100081F010008150800081F01000803
:1000600029090008E90900081F0100081F0100080C
:100070001F0100081F0100081F0100081F010008E0
:100080001F0100081F0100081F0100081F010008D0
:100090001F0100081F0100081F0100081F010008C0
:1000A0001F0100081F0100081F0100081F010008B0
:1000B000A11E00081F0100081F0100081F01000801
:1000C0001F0100081F0100081F0100081F01000890
:1000D0001F010008712100081F010008FD21000810
:1000E0001F0100081F0100081F010008DFF810D0E1
:1000F00000F06AFB00480047FD330008AFF30080C2
:10010000100D00200648804706480047FEE7FEE73E
:10011000FEE7FEE7FEE7FEE7FEE7FEE7FEE7FEE7B7
:10012000411E0008ED00000840EA01039B0703D0D0
:1001300009E008C9121F08C0042AFAD203E011F826
:10014000013B00F8013B521EF9D27047D2B201E0E8
:1001500000F8012B491EFBD270470022F6E710B5CC
:1001600013460A4604461946FFF7F0FF204610BD25
:1001700030B505462A460B4612F8010B13F8014B21
:1001800008B1A042F8D01CB1002802D06D1CF1E7E4
:10019000284630BD421C10F8011B0029FBD1801AF3
:1001A000704730B480EA010202F0004530F00042AE
:1001B00021F0004013D090B1C30DD40DC2F316014D
:1001C000C0F31600E41A41F4000140F400027D344B
:1001D000914201D3641C00E04900002C02DA30BCDB
:1001E000002070474FF400000023914201D3891A88
:1001F000034340084FEA4101F7D151B1914202D186
:100200004FF0004105E002D24FF0010101E06FF034
:10021000010103EBC450284430BC00F09FB92DE924
:10022000FE4F804681EA0300C00F0C46009021F08B
:10023000004123F00045B8EB0200A94105D2404639
:10024000214690461C460B46024623F000401043D0
:1002500047D0270DC7F30A00C3F30A510290401A92
:10026000019040286BDAC3F3130040F4801B009820
:10027000924620B10023D2EB030A63EB0B0B0198EB
:100280005946C0F14002504600F047F906460D4677
:1002900050465946019A00F04FF910EB08006141B1
:1002A000002487EA115284EAE7731A4340D0009A87
:1002B00062B3019A012A4FEA075215DC001B61EB79
:1002C00002014FF0004202EA0752CDE90042001C51
:1002D00041F5801132462B4600F086F903B0BDE8A7
:1002E000F08F40462146F9E7001B61EB0201001C3C
:1002F00041F5801300185B412018A2F5001747EB69
:10030000030140EAD570B6196D4111E06D084FEA5E
:10031000360645EAC0754FEA0752001B61EB020141
:10032000001C41F5801149084FEA30000019514185
:1003300032462B4603B0BDE8F04F00F046B90098B6
:10034000012240000023D0EB020263EBE07300982F
:1003500021464FEAE074B8EB000061EB0401E9E7E5
:1003600083F000435BE781F0004158E72DE9F04D51
:1003700081EA030404F0004B21F0004514464FF0DD
:10038000000A23F0004150EA050220D054EA01029D
:100390001DD0C5F30A570246C5F31303C1F313007A
:1003A000C1F30A5640F4801543F48013A7EB060806
:1003B000101BD64608F2FD3873EB050002D308F196
:1003C000010801E092185B41B8F1000F03DA002048
:1003D0000146BDE8F08D00204FF4801106468446AA
:1003E0000EE0171B73EB050705D3121B63EB050328
:1003F00006434CEA010C49084FEA300092185B4171
:1004000050EA0107EDD152EA030012D082EA04005B
:1004100083EA0501084305D0101BAB4106D2012237
:10042000002306E000224FF0004302E06FF00102DB
:1004300053101AEB06004CEB085110EB0A0041EB8D
:100440000B01BDE8F04D00F0C0B8C10F80EAE070CC
:100450000844CA079623002100F089B89623002299
:10046000114600F084B800F0004230F000400AD09D
:10047000C10D01F56071C0F3160042EA0151C208D6
:1004800040071143704700200146704730B50B46C6
:10049000014600202022012409E021FA02F59D42B4
:1004A00005D303FA02F5491B04FA02F52844151E88
:1004B000A2F10102F1DC30BD2DE9F05F054600201C
:1004C00092469B4688460646814640241BE02846C5
:1004D00041464746224600F089F953465A46C01A1B
:1004E000914110D311461846224600F016F82D1AF5
:1004F00067EB01084F4622460120002100F00DF86D
:1005000017EB00094E41201EA4F10104DFDC484630
:1005100031462A464346BDE8F09F202A04DB203AB4
:1005200000FA02F1002070479140C2F1200320FA46
:1005300003F3194390407047202A06DBCB17203A7B
:1005400041FA02F043EAE07306E041FA02F3D040D8
:10055000C2F1200291400843194670470029A8BF04
:100560007047401C490008BF20F00100704710B4DC
:10057000B0FA80FC00FA0CF050EA010404BF10BC91
:10058000704749B1CCF1200421FA04F411FA0CF1BE
:1005900018BF012121430843A3EB0C01CB1D4FEAF7
:1005A00000614FEA102042BF002010BC704700EBF2
:1005B000C35010440029A4BF10BC7047401C490020
:1005C00008BF20F0010010BC704710B5141E73F175
:1005D000000408DA401C41F1000192185B411A4303
:1005E00001D120F0010010BD2DE9F04D92469B464F
:1005F00011B1B1FA81F202E0B0FA80F220329046F5
:10060000FFF78BFF04460F4640EA0A0041EA0B0160
:1006100053465A46084313D0114653EA010019D0F5
:10062000C8F14002504600F0E1F805460E4650463B
:1006300059464246FFF771FF084305D0012004E008
:1006400020463946BDE8F08D0020054346EAE076B5
:100650002C4337430A986305E40AA0EB0800002204
:10066000FD0A44EA47540A3002D500200146E9E772
:10067000010510196941DDE9084500196941BDE826
:10068000F04DA2E72DE9FE4F81EA030404F0004497
:1006900021F0004100944FF0000B23F0004350EA9A
:1006A00001045ED052EA03045BD0C3F30A54C1F3E1
:1006B0000A552C44A4F2F3340194A0FB0254C1F374
:1006C000130141F48011C3F3130343F4801301FBBE
:1006D000024400FB034E840A970A44EA815447EA25
:1006E0008357A4FB076802958D0A05FB07854FEA2F
:1006F000932C04FB0C542705029D4FEA065847EA49
:100700001637B5EB08056EEB070C870E920E47EA1D
:10071000811742EA8312A7FB0201B6EB0B0164EBDF
:1007200000042B0D43EA0C335E1844EB1C50DA46F0
:100730005146E7FB0201C5F313044FEA0B3343EACA
:1007400014534FEA0432019C43EA0603A4F10C045B
:100750000294009CCDE900B4FFF746FF03B0BDE86A
:10076000F08F00200146F9E7C1F30A52C1F31301EB
:1007700040F2FF3341F480119A4202DA0020014630
:10078000704740F233439A42A2F2334202DC5242B3
:1007900000F02CB8FFF7C1BE30B5041E71F10004A3
:1007A00004DB4FF00044404264EB0101141E73F17E
:1007B000000405DB1C464FF00043524263EB040388
:1007C000994208BF904230BD064C074D06E0E068F4
:1007D00040F0010394E8070098471034AC42F6D388
:1007E000FFF788FC5460000874600008202A04DBCE
:1007F000203A21FA02F00021704721FA02F3D0409A
:10080000C2F12002914008431946704700BFFEE73D
:10081000704700001CB5012000F04CF9002834D0CE
:100820000A2002F0B1FB0121184800F095FA0028D7
:1008300028D117A001F0DCFE1FA103C9CDE90001FA
:100840000821684600F07AFD1DA001F0D1FE2CA21F
:100850000121084600F030FC2BA20121022000F00B
:100860002BFC2BA20121032000F026FC2BA201214E
:10087000042000F021FC4FF4FA7002F085FB00F038
:1008800073FE00BF012000F00FF91CBD00080140FD
:100890005B546F756368204B65795D20E4B8ADE605
:1008A00096ADEFBC9A41E994AEE8A2ABE68C89E440
:1008B000B88B0D0A00000000010300000004440989
:1008C0005B53797374656D5D20E8A7A6E691B8E681
:1008D0008C89E994AE41E68C89E4B88BEFBC8CE559
:1008E0008F91E98081E59C9FE5A3A4E4BCA0E68408
:1008F0009FE599A8E8AFB7E6B1820D0A00000000B5
:100900002020525334383500202053656E64000097
:1009100020205265717565737400000020205375A6
:10092000636365737300000010B5042000F0C2F823
:10093000002828D00A2002F027FB0421124800F0EA
:100940000BFA00281CD111A001F052FE012000F08A
:1009500073FC184801F04CFE17A20121084600F074
:10096000ABFB18A20121022000F0A6FB17A2012177
:10097000032000F0A1FB19A20121042000F09CFB40
:10098000042000F091F810BD000801405B546F7521
:100990006368204B65795D20E4B8ADE696ADEFBCA9
:1009A0009A43E994AEE8A2ABE68C89E4B88B0D0AD1
:1009B00000000000B4490008202052656C617920D5
:1009C0003200000020204F4E000000002020576120
:1009D0007465722050756D70000000002020506F0B
:1009E000776572656400000010B5082000F062F8B9
:1009F000002828D00A2002F0C7FA0821124800F087
:100A0000ABF900281CD111A001F0F2FD002000F08C
:100A100013FC184801F0ECFD17A20121084600F074
:100A20004BFB18A20121022000F046FB17A2012176
:100A3000032000F041FB19A20121042000F03CFB3F
:100A4000082000F031F810BD000801405B546F75BC
:100A50006368204B65795D20E4B8ADE696ADEFBCE8
:100A60009A44E994AEE8A2ABE68C89E4B88B0D0A0F
:100A700000000000F8490008202052656C617920D0
:100A80003200000020204F46460000002020576121
:100A90007465722050756D70000000002020537442
:100AA0006F707065640000000149086070470000C5
:100AB00014040140014600200022074B1B6803EA92
:100AC0000102054B14331B680B4013B10AB101201E
:100AD00000E000207047000000040140002123498D
:100AE0008279002A3AD00A46126803689A430B4674
:100AF0001A600A1D126803689A430B1D1A60027976
:100B000011440A6803681A430A60184A08321268D6
:100B100003689A43154B08331A601A1D126803685C
:100B20009A43124B0C331A604279102A0ED11A1FC5
:100B3000126803681A430D4B08331A601A1D1268B5
:100B400003681A43094B0C331A600DE007494279D8
:100B500011440A6803681A430A6005E002791144E7
:100B60000A6803689A430A60704700000004014065
:100B700030B500228B071C0F0F2303FA04F20B4B36
:100B80008C1053F824309343084C8D1044F82530D2
:100B900023468C1053F824308C07240F00FA04F4F9
:100BA0002343024C8D1044F8253030BD080001402D
:100BB0002DE9F041024600250026002000230024F4
:100BC000002791F803C00CF00F0591F803C00CF05A
:100BD000100CBCF1000F03D091F802C04CEA0505DF
:100BE00091F800C0BCF1000F31D0146800202BE058
:100BF0004FF0010C0CFA00F3B1F800C00CEA030648
:100C00009E4220D183004FF00F0C0CFA03F7BC4337
:100C100005FA03FC4CEA040491F803C0BCF1280F68
:100C200006D14FF0010C0CFA00FCC2F814C00AE027
:100C300091F803C0BCF1480F05D14FF0010C0CFA3C
:100C400000FCC2F810C0401C0828D1D31460B1F8D1
:100C500000C0BCF1FF0F34DD546800202EE000F12D
:100C6000080C4FF0010808FA0CF3B1F800C00CEAC8
:100C700003069E4221D183004FF00F0C0CFA03F7BC
:100C8000BC4305FA03FC4CEA040491F803C0BCF130
:100C9000280F05D100F1080C08FA0CF8C2F81480EE
:100CA00091F803C0BCF1480F07D100F1080C4FF0D8
:100CB000010808FA0CF8C2F81080401C0828CED3AE
:100CC0005460BDE8F0810000F0B50A46002300241E
:100CD0000021002500F00046B6F1004F02D11D4E64
:100CE000F16901E01B4E7168C0F3034583B200F463
:100CF0004016B6F5401F08D121F07061154E766898
:100D000026F07066134F7E6012E000F48016B6F590
:100D1000801F06D1032606FA05F4A14341F0706155
:100D200006E0460D360103FA06F6B14341F0706164
:100D300022B1460D360103FA06F6314300F00046B3
:100D4000B6F1004F02D1034EF16101E0014E716036
:100D5000F0BD0000000001400246002093680B40F7
:100D60000BB1012000E00020704702460020D3684C
:100D70000B400BB1012000E000207047416170473B
:100D8000016170470AB1016100E04161704700BF35
:100D9000FEE7000008B50121082000F0D3F94FF468
:100DA0008050ADF8000010208DF8030003208DF86E
:100DB000020069460848FFF7FBFE4FF40050ADF80B
:100DC000000069460448FFF7F3FE4FF44051024823
:100DD000FFF7D6FF08BD0000000C014000BFFEE792
:100DE0007047000070B5002100230F22C47804B3BF
:100DF000154C246804F4E064C4F5E064210AC1F1F0
:100E00000403CA40447804FA03F18478144021436F
:100E100009010E4C0678A155047804F01F05012441
:100E2000AC4005786D11AD0005F1E025C5F8004135
:100E300009E0047804F01F050124AC40044D067855
:100E4000761145F8264070BD0CED00E000E400E0AE
:100E500080E100E070B500240EE00021204600F0A3
:100E6000E0F8002504E0002000F04AF9681CC5B253
:100E7000802DF8DB601CC4B2082CEEDB70BD0000D6
:100E800008B50121082000F05DF914208DF8030059
:100E900003208DF802004020ADF8000069460A48A2
:100EA000FFF786FE8020ADF8000069460648FFF790
:100EB0007FFE012240210448FFF764FF01228021C8
:100EC0000148FFF75FFF08BD000C014070B5054603
:100ED000002413E08020204100EA050280210E4812
:100EE000FFF750FF012240210B48FFF74BFF002284
:100EF00040210948FFF746FF601CC4B2082CE9DB1B
:100F0000012240210448FFF73DFF00224021024812
:100F1000FFF738FF70BD0000000C014010B5012242
:100F200080210948FFF72EFF012240210648FFF7E4
:100F300029FF002280210448FFF724FF00224021DE
:100F40000148FFF71FFF10BD000C014010B5002243
:100F500080210748FFF716FF012240210448FFF7D0
:100F600011FF012280210248FFF70CFF10BD000095
:100F7000000C014070B5002406E0002500E06D1C67
:100F8000B5F57A7FFBD3641CB4F57A7FF5D3FFF710
:100F900077FFAE2000F0A4F8D52000F0A1F8802063
:100FA00000F09EF8A82000F09BF83F2000F098F891
:100FB000D32000F095F8002000F092F8402000F0D7
:100FC0008FF8A12000F08CF8C82000F089F8DA2012
:100FD00000F086F8122000F083F8812000F080F8FD
:100FE000CF2000F07DF8D92000F07AF8F12000F051
:100FF00077F8DB2000F074F8302000F071F8A420BE
:1010000000F06EF8A62000F06BF88D2000F068F874
:10101000142000F065F8AF2000F062F8FFF71AFF27
:1010200070BD70B505460C4645F0B00000F058F8AC
:10103000102141EA141000F053F804F00F0000F002
:101040004FF870BD2DE9F04105460E461746721E59
:10105000D206110E6A1E5206100EFFF7E2FF0024A0
:1010600009E0A7F12001134A02EB0111085D00F02D
:1010700047F8601CC4B2082CF3DB721ED206110EB6
:101080006A1E012303EB4202D0B2FFF7CAFF00241D
:101090000BE0A7F12001074A02EB011204F108015D
:1010A000505C00F02DF8601CC4B2082CF1DBBDE8E8
:1010B000F0810000E03C00082DE9F04107460E46B3
:1010C0001546002407E02A5D3019C1B23846FFF703
:1010D000B9FF601CC4B2285D0028F4D1BDE8F081DE
:1010E00010B50446FFF71AFF7820FFF7EFFE002047
:1010F000FFF7ECFE2046FFF7E9FEFFF727FF10BDE4
:1011000010B50446FFF70AFF7820FFF7DFFE402006
:10111000FFF7DCFE2046FFF7D9FEFFF717FF10BDF3
:101120007047000029B1064AD2690243044BDA61D4
:1011300004E0034AD2698243014BDA617047000040
:101140000010024029B1064A92690243044B9A6199
:1011500004E0034A92698243014B9A6170470000A0
:101160000010024030B500210022002400232D4D44
:101170006D6805F00C0121B1042905D0082923D19F
:1011800005E0294D056022E0274D05601FE0254D53
:101190006D6805F47012234D6D6805F480340225E6
:1011A00005EB92421CB9214D554305600BE01D4DE6
:1011B0006D6805F400351DB11C4D5543056002E016
:1011C000194D5543056002E0174D056000BF00BF93
:1011D000144D6D6805F0F0010909154D6B5C05684B
:1011E000DD4045600F4D6D6805F4E061090A104D62
:1011F0006B5C4568DD4085600A4D6D6805F46051A3
:10120000C90A0B4D6B5C4568DD40C560054D6D68D6
:1012100005F44041890B074D6B5CC568B5FBF3F5E0
:10122000056130BD0010024000127A0000093D0047
:10123000000000201000002070B5044621460AA0DE
:1012400001F0D6F922464FF400511048FFF79AFDFD
:101250004FF400510D48FFF788FD054629460CA0C4
:1012600001F0C6F970BD00005B52656C61795D20CC
:10127000E7BBA7E794B5E599A832E8AEBEE7BDAEF7
:10128000E4B8BA3A2025640D0A00000000080140C5
:101290005B52656C61795D20E7BBA7E794B5E59982
:1012A000A832E5AE9EE99985E78AB6E680813A20C4
:1012B00025640D0A0000000008B501210520FFF794
:1012C00041FF4FF4C040ADF8000010208DF803003E
:1012D00003208DF8020069460648FFF769FC0121EA
:1012E0000548FFF7F1FC4FF4C0410248FFF746FD07
:1012F00008BD0000000801400004300008B50121CD
:101300000420FFF71FFF4FF48070ADF8000010209D
:101310008DF8030003208DF8020069460648FFF7A8
:1013200047FC4FF480710448FFF728FD4FF49650B6
:1013300001F00CF808BD00000008014070B505463A
:101340000E4600244FF480710C48FFF719FD00BFD2
:101350000CE0295D0A4801F036F900BF4021084839
:1013600001F063F80028F9D0601CC4B2B442F0DB8D
:101370004FF480710148FFF701FD70BD0008014086
:10138000004800400FB410B592B000244FF48071B3
:101390001648FFF7F5FC15A80090412101A8009B15
:1013A000149A01F035F9002000900EE02046621CEE
:1013B000D4B201AA115C0E4801F005F900BF40212A
:1013C0000B4801F032F80028F9D0402C04DA01A8CB
:1013D000FEF7E0FEA042E9D84FF480710348FFF722
:1013E000CDFC12B010BC5DF814FB000000080140F9
:1013F000004800407047000070B501F083FD0546CD
:1014000001F096FD04467DB1002C0DDD07A001F032
:10141000EFF8002001E0411C88B2A042FBDB08A0ED
:1014200001F0E6F801F092FD70BD00005B5253340C
:1014300038355D2052656365697665643A20000041
:101440000D0A000010B500F001F810BD0CB5002029
:10145000019000903348006840F4803031490860C2
:1014600000BF3048006800F4003000900198401C34
:101470000190009818B90198B0F5A06FF1D12948F2
:10148000006800F4003010B10120009001E000205D
:1014900000900098012843D12348006840F01000D4
:1014A000214908600846006820F0030008600846EB
:1014B000006840F0020008601A4840681949486016
:1014C0000846406848600846406840F480604860CC
:1014D0000846406820F47C1048600846406840F4A4
:1014E000E81048600846006840F08070086000BF5F
:1014F0000C48006800F000700028F9D009484068E6
:1015000020F00300074948600846406840F00200A8
:10151000486000BF0348406800F00C000828F9D17B
:101520000CBD0000001002400020024030B5024611
:101530000B464FF6FF70002112E0545C604000241F
:101540000AE000F0010525B14AF2010585EA6000D4
:1015500000E04010651CECB2082CF2DB4C1CE1B240
:101560009942EADB30BD00002DE9F04F87B07F489B
:101570000088C0F30D06052E05DA7DA001F038F8CD
:1015800007B0BDE8F08F314686A001F031F894A095
:1015900001F02EF8002511E09248415D92A001F083
:1015A00027F8681CC11700EB11710911A0EB01119C
:1015B00011B98FA001F01CF8681C85B2B542EBDBB5
:1015C00077A001F015F8874890F8009047788AA036
:1015D00001F00EF8494691A001F00AF8394694A0AE
:1015E00001F006F8032F03D097A001F001F8C7E738
:1015F0007C48847821469DA000F0FAFF601DB0422F
:1016000003DDA1A000F0F4FFBAE7601DC0B20690B0
:101610007448069900F0E6FB18B9A5A000F0E8FFB1
:1016200003E0A9A000F0E4FFAAE7AEA000F0E0FF0D
:10163000082C71DB03256B49681C085C495D40EA96
:1016400001284046FEF70AFFAD490190FEF7A9FDCB
:10165000059042464146ABA000F0CAFF0598FEF750
:1016600002FF02460B46CDE90001B0A000F0C0FF2A
:101670005C49E81C095C5B4AA81C105C41EA00203C
:101680000FFA80FA5046FEF7E0FE9D490190FEF702
:1016900088FD04901FFA8AF15246AAA000F0A8FF24
:1016A0000498FEF7E0FE02460B46CDE90001AEA02D
:1016B00000F09EFF4B49681D095C4A4A281D105CDA
:1016C00041EA00200390039A1146ADA000F090FF7C
:1016D000B5A0039900F08CFF4249E81D095C414A1E
:1016E000A81D105C41EA002B5846FEF7B7FE84495E
:1016F0000190FEF756FD02905A465946B1A000F0FF
:1017000077FF0298FEF7AFFE02460B46CDE90001D7
:10171000B5A000F06DFF00BFB8A000F069FFBEA04B
:1017200000F066FF002512E0E81C2E4A115C2EA096
:1017300000F05EFF681CC11700EB5171C910A0EBEF
:10174000C10111B9B6A000F053FF681CC5B2A54293
:10175000EADB13A000F04CFF201D224B1A5CE01CBA
:10176000195CB1A000F044FF00BF09E72E00002083
:101770000D0A5B536F696C53656E736F725D20E683
:1017800095B0E68DAEE995BFE5BAA6E4B88DE8B6AA
:10179000B3EFBC8CE697A0E6B395E8A7A3E69E90CE
:1017A0000D0A00000D0A5B536F696C53656E736F11
:1017B000725D20E68EA5E694B6E588B0E79A84E5EA
:1017C0008E9FE5A78BE695B0E68DAEEFBC882564CD
:1017D000E5AD97E88A82EFBC89EFBC9A0D0A00005C
:1017E00020200000CA0200202530325820000000CE
:1017F0000D0A2020000000000D0A5B536F696C5336
:10180000656E736F725D20E8A7A3E69E90E7BB93B9
:10181000E69E9CEFBC9A0D0A000000002020E59C8B
:10182000B0E59D803A203078253032580D0A00000E
:101830002020E58A9FE883BDE7A0813A2030782503
:101840003032580D0A0000002020E99499E8AFAF2B
:101850003A20E58A9FE883BDE7A081E4B88DE58C56
:10186000B9E9858DEFBC810D0A0000002020E695C6
:10187000B0E68DAEE995BFE5BAA63A202564E5ADA0
:1018800097E88A820D0A00002020E99499E8AFAF1A
:101890003A20E695B0E68DAEE995BFE5BAA6E4B884
:1018A0008DE58CB9E9858DEFBC810D0A0000000043
:1018B0002020435243E6A0A1E9AA8C3A20E9809A6D
:1018C000E8BF870D0A0000002020435243E6A0A194
:1018D000E9AA8C3A20E5A4B1E8B4A5EFBC810D0AD1
:1018E000000000000D0A2020E695B0E68DAEE586EA
:1018F00085E5AEB9E8A7A3E69E90EFBC9A0D0A0075
:101900000000204120202020E590ABE6B0B4E78E17
:1019100087E58E9FE5A78BE580BC3A20307825309F
:10192000345820282564290D0A000000202020209A
:10193000E590ABE6B0B4E78E873A20252E316625D8
:10194000250D0A0020202020E6B8A9E5BAA6E58EDC
:101950009FE5A78BE580BC3A2030782530345820AD
:10196000282564290D0A000020202020E6B8A9E5DA
:10197000BAA63A20252E3166E284830D0A000000C3
:1019800020202020E794B5E5AFBCE78E87E58E9F49
:10199000E5A78BE580BC3A203078253034582028E4
:1019A0002564290D0A00000020202020E794B5E5D9
:1019B000AFBCE78E873A2025642075732F636D0DC9
:1019C0000A000000202020205048E580BCE58E9FC2
:1019D000E5A78BE580BC3A203078253034582028A4
:1019E0002564290D0A000000202020205048E580B1
:1019F000BC3A20252E31660D0A0000000D0A202079
:101A0000E68980E69C89E695B0E68DAEE5AD97E87F
:101A10008A82EFBC9A0D0A002020202000000000DE
:101A20000D0A2020202000000D0A202043524331BF
:101A300036E6A0A1E9AA8CE5928C3A2025303258EE
:101A400020253032580D0A002DE9F04F89B00646A6
:101A50000F469046994600200790089001208DF887
:101A60001C0003208DF81D0000208DF81E008DF84D
:101A70001F008DF8200004208DF82100062107A802
:101A8000FFF754FD06900698C0B28DF82200069824
:101A9000000A8DF8230000206549088000BF04E09B
:101AA0000021644A1154411C88B24028F8DB082107
:101AB00007A8FFF743FC60A000F09AFD4FF0000A72
:101AC00000250FE00AF1010A012001F05DFA5848F3
:101AD0000088C0F30D050D2D04DB294663A000F03E
:101AE00087FD02E0BAF57A7FECD300BF0D2D07DA4F
:101AF00029466EA000F07CFD012009B0BDE8F08F02
:101B000079A000F075FD4FF0000B09E0494810F88E
:101B10000B1081A000F06CFD0BF101001FFA80FB9F
:101B2000AB45F3DB50A000F063FD4248007801288C
:101B300003D140484078032804D079A000F058FD34
:101B40000220DAE70D213B4800F04CF920B17DA0DE
:101B500000F04EFD0320D0E703243649601C085CEA
:101B6000095D40EA012005900598FEF777FC834661
:101B70007D49FEF716FB30602E49E01C095C2D4ABA
:101B8000A01C105C41EA002000B204900498FEF70B
:101B90005CFC83467449FEF704FB38602549601DF0
:101BA000095C244A201D105C41EA00200390039840
:101BB000A8F800001146E01D095CA01D105C41EA78
:101BC000002002900298FEF749FC83466649FEF722
:101BD000E8FAC9F8000065A000F00AFD3068FEF7D9
:101BE00042FC02460B46CDE9000169A000F000FD71
:101BF0003868FEF738FC02460B46CDE900016AA0C2
:101C000000F0F6FCB8F800106CA000F0F1FCD9F878
:101C10000000FEF728FC02460B46CDE900016DA04E
:101C200000F0E6FC00200249088000BF65E70000E4
:101C30002E000020CA0200200D0A5B536F696C530E
:101C4000656E736F725D20E5B7B2E58F91E98081B3
:101C5000E8AFB7E6B182EFBC8CE7AD89E5BE85E5BC
:101C6000938DE5BA942E2E2E0D0A00000D0A5B53BB
:101C70006F696C53656E736F725D20E68EA5E69496
:101C8000B6E588B020256420E5AD97E88A82E69520
:101C9000B0E68DAEEFBC8CE5BC80E5A78BE8A7A3D2
:101CA000E69E902E2E2E0D0A000000000D0A5B53BA
:101CB0006F696C53656E736F725D20E8AFBBE58F23
:101CC00096E8B685E697B6EFBC8CE58FAAE694B6A3
:101CD000E588B020256420E5AD97E88A82E695B0D6
:101CE000E68DAE0D0A0000000D0A5B536F696C5360
:101CF000656E736F725D20E68EA5E694B6E588B0DA
:101D0000E79A84E58E9FE5A78BE695B0E68DAEEF6A
:101D1000BC9A0D0A00000000253032582000000057
:101D20000D0A5B536F696C53656E736F725D20E5CE
:101D3000938DE5BA94E6A0BCE5BC8FE99499E8AF31
:101D4000AF0D0A000D0A5B536F696C53656E736FBC
:101D5000725D20435243E6A0A1E9AA8CE5A4B1E854
:101D6000B4A50D0A00000000000020410D0A5B53DD
:101D70006F696C53656E736F725D20E8AFBBE58F62
:101D800096E68890E58A9FEFBC9A0D0A0000000055
:101D90002020E590ABE6B0B4E78E873A20252E31BF
:101DA0006625250D0A0000002020E6B8A9E5BAA6A0
:101DB0003A20252E3166E284830D0A002020E79424
:101DC000B5E5AFBCE78E873A2025642075732F6395
:101DD0006D0D0A0020205048E580BC3A20252E31A8
:101DE000660D0A00F0B505460C46032C01DA012009
:101DF000F0BDA01E295C601E285C41EA0027A01EE1
:101E0000C1B22846FFF792FB0646B74201D0012037
:101E1000EEE70020ECE7042808D14FF0E021096943
:101E200041F004014FF0E022116107E04FF0E021A2
:101E3000096921F004014FF0E022116170477047F9
:101E400010B51348006840F00100114908600846C9
:101E50004068104908400E494860084600680E492D
:101E600008400B4908600846006820F4802008609C
:101E70000846406820F4FE0048604FF41F00886068
:101E8000FFF7E0FA4FF000600449086010BD000061
:101E9000001002400000FFF8FFFFF6FE08ED00E032
:101EA00010B50121880700F076F8002827D001211D
:101EB000880700F061F800214FF0804000F05FF8E3
:101EC0000F48008820F4004000F500400C490880CD
:101ED0000C480088C0F30D04002C0ADD0948008876
:101EE00040F4004007490880214607A000F080FB2D
:101EF00002E014A000F07CFBFFF77EFA00BF10BDEB
:101F0000280000202E0000200D0A5B54494D325D50
:101F100020E8B685E697B6E8A7A6E58F91EFBC8CDA
:101F2000E8AEBEE7BDAEE68EA5E694B6E5AE8CE6BD
:101F30008890E6A087E5BF97EFBC8C6C656E3D2569
:101F4000640D0A000D0A5B54494D325D20E8B685E8
:101F5000E697B6E8A7A6E58F91EFBC8CE4BD86E6D0
:101F6000B2A1E69C89E68EA5E694B6E588B0E69532
:101F7000B0E68DAE0D0A0000CA430282704721B15F
:101F8000028842F00102028004E002884FF6FE73EC
:101F90001A400280704730B502460020002300241A
:101FA000158A05EA0103958905EA010413B10CB10C
:101FB000012000E0002030BD818470471FB5012161
:101FC0000520FFF7BFF80D20ADF80C0048208DF874
:101FD0000F0003A92448FEF7EBFD00210846FEF799
:101FE000C7FD02210020FEF7C3FD03210020FEF7FC
:101FF000BFFD0120019000208DF808000C208DF815
:10200000090001208DF80A0001A8FEF767FD0420F1
:10201000019001A8FEF762FD0820019001A8FEF7DB
:102020005DFD06208DF8000001208DF801008DF87F
:1020300002008DF803006846FEF7D4FE08208DF8F4
:10204000000002208DF801008DF802006846FEF7BE
:10205000C9FE09208DF800006846FEF7C3FE03A004
:1020600000F0C6FA1FBD0000000801405B546F7508
:102070006368204B65795D20E5A496E983A8E4B800
:10208000ADE696ADE5889DE5A78BE58C96E5AE8C33
:10209000E688900D0A00000008B50F20ADF800009A
:1020A00048208DF8030069460148FEF781FD08BD10
:1020B0000008014010B501212C48FEF74DFE80B903
:1020C0000A2000F061FF01212848FEF745FE40B9D3
:1020D00000BF01212548FEF73FFE0028F9D001206E
:1020E00010BD02212148FEF737FE80B90A2000F01A
:1020F0004BFF02211D48FEF72FFE40B900BF022111
:102100001A48FEF729FE0028F9D00220E8E704214A
:102110001648FEF721FE80B90A2000F035FF0421A1
:102120001248FEF719FE40B900BF04210F48FEF720
:1021300013FE0028F9D00320D2E708210B48FEF750
:102140000BFE80B90A2000F01FFF08210748FEF7A8
:1021500003FE40B900BF08210448FEF7FDFD00283A
:10216000F9D00420BCE70020BAE7000000080140D5
:1021700010B540F225511E4800F064F928B31C4800
:1021800000F01CFAC4B2204601F03AF81948008861
:1021900000F40040C8B91748008800F4804060B1DE
:1021A0000A2C03D000201349088020E01148008841
:1021B00040F400400F49088019E00D2C06D10D486D
:1021C000008840F480400B49088010E009480088EE
:1021D000C0F30D0008490C5406480088401C05490E
:1021E000088008460088C72801DD0020088010BD4F
:1021F00000380140240000207800002010B54FF482
:102200005871484800F01EF938B14FF458714548EC
:1022100000F0F0F8434800F0D1F940F22551414870
:1022200000F010F9002856D03E4800F0C7F9C4B2BB
:1022300021463DA000F0DCF93D48008800F4004054
:1022400080B93B480088C0F30D003A490C54384827
:102250000088401C36490880084600883F2801DD78
:102260000020088034480088C0F30E00FF281DDAE3
:1022700000214FF08040FFF79FFE2F480088C0F3F9
:102280000E0018B901218807FFF779FE2A48008857
:10229000C0F30E0029490C5427480088401C2649E9
:1022A000098860F30E012448018014E02248008868
:1022B0006FF30E002049088008460088C0F30E0026
:1022C0001E490C541C480088401C1B49098860F3B7
:1022D0000E011948018040F22771124800F0B2F84F
:1022E000F0B11748008817490988884212D016486B
:1022F000144A1288815C0B4800F065F9114909887D
:10230000481CC11700EB5161C911A0EBC1110D4A66
:10231000118005E0002240F22771024800F0BCF86D
:1023200010BD000000480040253032582000000059
:102330002E000020CA0200202800002040010020BA
:102340002A0000202C0000204002002010B586B09A
:10235000044601210820FEF7F5FE01218804FEF75E
:10236000E1FE4FF40060ADF8140004208DF8170072
:1023700005A91E48FEF71CFC4FF48060ADF8140060
:1023800003208DF8160018208DF8170005A91748AE
:10239000FEF70EFC01940020ADF80800ADF80A002D
:1023A000ADF80C00ADF810000C20ADF80E0001A93E
:1023B0000F4800F097F8012240F225510C4800F038
:1023C0006BF801210A4800F024F827208DF800005E
:1023D00002208DF801008DF8020001208DF8030025
:1023E0006846FEF7FFFC06B010BD0000000C01407F
:1023F0000048004010B50022002340F66A14A142B4
:1024000000D100BF0A1201249440A3B2DC4304802F
:1024100010BD21B1828942F40052828104E0828998
:102420004DF6FF731A408281704702460020B1F5D5
:10243000007F00D100BF13880B400BB1012000E0EA
:102440000020704770B502460024002300250020BC
:1024500040F66A16B14200D100BFC1F3421501F047
:102460001F03012606FA03F3012D02D1968933409A
:1024700006E0022D02D1168A334001E0968A3340ED
:102480000C12012606FA04F41688344013B10CB17C
:10249000012000E0002070BDF0B5034600240026B6
:1024A0000025002040F66A17B94200D100BF184647
:1024B000C1F3421401F01F06012707FA06F5012CAB
:1024C00001D10C3004E0022C01D1103000E01430B6
:1024D0001AB107682F43076002E00768AF4307603F
:1024E000F0BD00002DE9F04786B005460E460024F9
:1024F000A24600BFA1460027B08900B100BF2F4609
:102500002C8A4CF6FF700440F08804432C82AC897E
:102510004EF6F3100440B0883189084371890843AE
:102520000443AC81AC8A4FF6FF400440B0890443B9
:10253000AC8201A8FEF716FE1F48874202D1DDF8E3
:1025400010A001E0DDF80CA0A88900F4004040B123
:102550000AEBCA0000EB0A1031684900B0FBF1F841
:1025600007E00AEBCA0000EB0A1031688900B0FBF3
:10257000F1F86420B8FBF0F004012009642101FBAC
:102580001089A88900F4004040B1322000EBC90056
:10259000B0FBF1F000F00700044308E0322000EB4C
:1025A00009106421B0FBF1F000F00F0004432C810E
:1025B00006B0BDE8F0870000003801400146888879
:1025C000C0F308007047C1F308028280704708E03A
:1025D00000BF028802F08002002AFAD011F8012B15
:1025E00082800A78002AF3D1704700BFFEE700001E
:1025F0000FB4054B10B503A9044A029800F0F4F893
:1026000010BC5DF814FB0000E1330008200000203E
:102610007CB50C001D461646014601D0601E00E048
:102620000020CDE90010064B6A462946304600F0EE
:10263000DBF8002C02D0009A002111707CBD000054
:10264000EF2E000802E008C8121F08C1002AFAD1C4
:1026500070477047002001E001C1121F002AFBD122
:10266000704700002DE9FF5F82B00021DDE90430F2
:10267000020DDDF840B0034318D044F61050A2F22A
:10268000FF3242431514119801281FD0A5EB0B000F
:10269000401C5FEA000A4FF000064E4FDFF8389109
:1026A000B046504615D5CAF1000413E01198012434
:1026B0004AA3012801D16FEA0B010298119AC0E9DF
:1026C0000031C0E9024206B0BDE8F09FCBF1000046
:1026D000DFE704460021404A491842EB0450CDE9A7
:1026E000001012E0E00707D032463B46404649461C
:1026F000FDF7C8FF8046894632463B4610461946DC
:10270000FDF7C0FF06460F466410002CEAD1DDE954
:102710000401DDE90023BAF1000F06DAFDF7B2FF8C
:1027200042464B46FDF7AEFF05E0FDF71FFE424671
:102730004B46FDF71BFE04460E460022284BFEF7D3
:102740002BF803D84FF0FF30014607E00022254B5D
:1027500020463146FDF763FDFEF706F8102409E038
:10276000002C0ADB0A220023FDF7A6FE039B303271
:102770001A55641E50EA0102F2D1641C039AC4F196
:1027800011031444119A012A03D0012208430DD1E8
:102790000AE0084304D000204FF0110B119072E7BB
:1027A000A3EB0B056D1E0DE05B4504DD4FF0000251
:1027B00005F1010504E003DA4FF00002A5F101057F
:1027C000002AECD002981199C0E90231C0E9004515
:1027D00079E70000000014400000F03F30000000E6
:1027E0000000F0430000E03F2DE9FF4F95B09A460E
:1027F000884606460025EEE1252877D100242746A5
:10280000F94A0121039400E0044316F8013F203BFC
:1028100001FA03F01042F7D130782A2811D06FF076
:102820002F033078A0F13002092A16D8039A44F019
:10283000020402EB820203EB42021044761C039076
:10284000EFE758F8042B0392002A03DA504244F4CD
:102850000054039044F00204761C30782E2816D1E0
:1028600016F8010F44F004042A280DD06FF02F024F
:102870003078A0F13003092B09D807EB870302EB6E
:102880004303C718761CF3E758F8047B761C3078AE
:102890006C280FD006DC4C2817D068280DD06A2889
:1028A00014D104E0742810D07A280FD10DE044F43C
:1028B00000140AE044F4801401E044F440147278F7
:1028C000824202D104F58014761C761C307866288A
:1028D0000BD013DC582877D009DC002875D04528A8
:1028E000F6D04628F4D047281AD193E118E063289F
:1028F00035D0642879D0652812D18BE1702873D047
:1029000008DC6728F1D069286FD06E280DD06F28B9
:1029100006D1ACE073282CD0752874D0782853D019
:102920005246179990476D1C54E1C4F30250022897
:1029300009D003280DD0D8F8001004280DD00D6060
:1029400008F1040846E1D8F80010EA17C1E900527E
:10295000F6E7D8F800100D80F2E70D70F0E718F8F0
:10296000041B8DF8001000208DF80100EB460120BB
:1029700003E058F804BB4FF0FF3061074FF000014F
:1029800002D40DE009F101018946B9420FDA81450F
:10299000F8DB1BF809100029F4D108E009F1010166
:1029A00089468142FADB1BF809100029F6D1039809
:1029B0005346A0EB090721463846179A00F080FAE3
:1029C000284400EB090507E044E008E10DE01BF8AE
:1029D000010B524617999047B9F10109F7D25346B6
:1029E00021463846179AF2E039E00A21C4F3025230
:1029F0004FF0000B0091022A06D058F8040BC117C3
:102A0000032A09D00AE023E008F1070020F00702BA
:102A1000F2E80201904605E000B2C117042A01D194
:102A200040B2C117002906DA0A460021404261EB94
:102A300002012D2202E0220504D52B228DF804206C
:102A4000012203E0E20701D02022F7E7914657E098
:102A50000A2100E010214FF0000B00910BE0102143
:102A60004FF0000B44F004040827009103E0082015
:102A70004FF0000B0090C4F30252022A05D058F820
:102A8000040B0021032A08D008E008F1070020F019
:102A90000702F2E80201904603E080B2042A00D166
:102AA000C0B24FF0000922072AD53278702A07D029
:102AB000DDF800C08CF0100C5CEA0B0C05D00EE0C9
:102AC00040228DF80420012208E050EA010306D0DC
:102AD00030238DF804308DF8052002229146009BAA
:102AE00083F0080353EA0B030AD150EA010201D133
:102AF000620705D530228DF804204FF001097F1EB2
:102B00003278582A04D039A20C920CAA02920BE017
:102B10003BA2F9E75B46009AFDF7CEFC0C9B9B5C61
:102B2000029A521E0292137050EA0102F2D10298E8
:102B300004A9081A00F1200B600702D524F48034A0
:102B400000E001275F4502DDA7EB0B0000E000205D
:102B500000EB0B01009003984944401A0390E003F6
:102B600006D453462146179A039800F0A9F9054464
:102B7000002706E001A85246C05D179990476D1CDA
:102B80007F1C4F45F6DBE0030CD553462146179AD0
:102B9000039800F095F9054404E030205246179957
:102BA00090476D1C0099481E00900029F5DC08E054
:102BB0000298029952460078491C02911799904751
:102BC0006D1CBBF10001ABF1010BF1DC5BE100F02E
:102BD00065F90544761C307800287FF40DAE19B0F5
:102BE0002846BDE8F08F000009280100303132335B
:102BF0003435363738396162636465660000000039
:102C00003031323334353637383941424344454622
:102C100000000000600700D4062708F1070020F03C
:102C20000700F0E80223804603F0004C5FEA0C0046
:102C300001D097A009E0200501D596A005E0E007A6
:102C400001D095A001E0AFF24C001390307823F052
:102C5000004365280CD006DC452809D046281DD045
:102C600047287FD13BE0662818D067287AD136E024
:102C70000021112F01DB112000E0781CCDE90001BB
:102C800004A90CA8FFF7EEFCDDE90D010C9A4FF04A
:102C9000000B07F10109109200914EE04FF0004047
:102CA0000097CDE9011004A90CA8FFF7DBFCDDE9D2
:102CB0000D020C9B0F994FF0000B91461093009260
:102CC00011B9791C00EB0109B7EB090003D4C0F17D
:102CD000FF3B07F10109A9EB0700019042E0012F3A
:102CE00000DA01270021112F01DD112000E0384614
:102CF000CDE9000104A90CA8FFF7B4FCDDE90D0142
:102D00000C9A00914FF0000BB946109221070FD496
:102D1000009A4A4503DA914601E0A9F10109B9F1A7
:102D2000010F05DD109AA9F10101515C3029F4D0A1
:102D3000B84202DA10F1040F03DA0121CDE90110E3
:102D400010E0002803DC8344A9EB000102E0411CF1
:102D5000494500DD8946A0EB0B00401C01904FF077
:102D600000400290200705D40198484502DB4FF04F
:102D7000FF30019000208DF84B0002980DF14B07B9
:102D8000B0F1004F25D002200C902B200D9002981E
:102D900000280CDA404202902D200D9007E00A2115
:102DA0000298FDF773FB3031029007F8011D0C9972
:102DB000481E0C900029F2DC02980028EFD1791E01
:102DC0000D980870307800F0200040F0450007F8BA
:102DD000020D11A8C01BC01D02901398007800B10D
:102DE000012000EB0901019801EBE0710298014418
:102DF0000398401A401E0390E00306D45346214630
:102E0000179A039800F05CF805441398007818B1FD
:102E10005246179990476D1CE00323D5534621462F
:102E2000179A039800F04CF805441BE0BBF1000F23
:102E300007DB0098584504DD1098179910F80B002F
:102E400001E0179930205246904701980BF1010B91
:102E5000401E05F10105019004D12E20524617991C
:102E600090476D1CB9F10001A9F10109DEDC05E014
:102E700017F8010B5246179990476D1C0299481E8E
:102E800002900029F4DC53462146179A03989EE6E7
:102E90002D0000002B000000200000002DE9F04173
:102EA000044600251E461746880404D405E039462A
:102EB0002020B0476D1C641EF9D52846BDE8F0817E
:102EC0002DE9F041044600251E469046C80301D571
:102ED000302700E02027880404D505E04146384625
:102EE000B0476D1C641EF9D52846BDE8F0814A68DC
:102EF000002A06D00A68531C0B6010704868401EF8
:102F000048607047084800880121B1EBD03F08D1E4
:102F1000002005490988C1F30E01044A50541046A7
:102F200070470020FCE7000028000020400100203E
:102F300005480088C00B20B103480088C0F30E008C
:102F400070470020FCE700002800002005480088AA
:102F50006FF30E00034908800846008820F4004003
:102F6000088070472800002010B504466FF0040068
:102F7000FEF751FF2046E11704EB5171C910014AD9
:102F8000116010BD140000200146134A12684A4324
:102F90004FF47A735A434FF0E0235A6100229A614A
:102FA0001A46126942F001021A6100BF4FF0E02296
:102FB000106900F001021AB100F48032002AF5D045
:102FC0004FF0E022126922F001024FF0E0231A6173
:102FD00000229A6170470000140000202DE9F041A2
:102FE00005460E46032709E000F0D8F8044604B968
:102FF00006E04FF4FA70FFF7C7FF7F1E002FF3DCE7
:1030000000BF002F03DC4FF0FF30BDE8F0810C2142
:10301000364800F083F8044614B16FF00100F4E77D
:10302000062D28D2DFE805F003090F151B2110211A
:103030002F4800F073F804461EE006212D4800F0EA
:103040006DF8044618E011212B4800F067F804469B
:1030500012E01121294800F061F804460CE011212A
:10306000274800F05BF8044606E00421254800F0FC
:1030700055F8044600E000BF00BF14B16FF0020035
:10308000C3E7052E22D2DFE806F003090F151B0067
:1030900001211D4800F042F8044618E00E211B48AB
:1030A00000F03CF8044612E00F21194800F036F811
:1030B00004460CE00E21174800F030F8044606E004
:1030C0000E21154800F02AF8044600E000BF00BFBA
:1030D00014B16FF0030098E700F07EF8044614B1D5
:1030E0006FF0040091E700208FE70000D042000855
:1030F0006043000820440008684400083445000884
:1031000000460008CC460008FC46000808470008B6
:10311000B0470008644800080C4900082DE9F04158
:1031200005460E460027002432E004EB440105EB7F
:1031300081014868FDF72EF804EB440105EB81019D
:1031400089680844A0F1010804EB440155F82120E6
:1031500004EB440105EB81014868414600F0FCFCAA
:103160000746012F00D112E004EB440155F821205D
:1031700004EB440105EB8101886807A100F0ECFC39
:103180000746002F02DA601CBDE8F08100BF641C16
:10319000B442CADB0020F7E74F4B000010B5052210
:1031A0000AA10BA000F0D8FC0446601C08B900205E
:1031B00010BD052207A105A000F0CEFC0446A01C0E
:1031C00010B94FF0FF30F3E70020F1E761746B00B6
:1031D0002B2B2B004F4B000010B5052205A106A09C
:1031E00000F0BAFC002801DB002010BD4FF0FF30DA
:1031F000FBE700004F4B000041544F0D0A00000058
:1032000070B50546214801680068401C1F4A1060DF
:103210001F48455410460068B0F5007F09D30020D0
:103220001C490870114608604FF400711848FCF7FB
:1032300094FF184800780D2824D10A2D22D10024AB
:1032400014E0154850F834101148FCF791FF10496C
:1032500088420AD10846FCF79DFF06460E4800EB5F
:10326000C400314642680A489047641C052CE8DBDC
:10327000002008490870054908604FF400710448AF
:10328000FCF76BFF0348057070BD00005C00002078
:103290000A030020580000203000002070B50325EC
:1032A00009E0FFF77BFF044604B906E04FF4FA702B
:1032B000FFF76AFE6D1E002DF3DC00BF002D02DC5F
:1032C0004FF0FF3070BD052205A106A000F044FCC0
:1032D0000446002C02DA6FF00100F3E70020F1E76A
:1032E0004F4B000041542B5057520D0A0000000074
:1032F00070B504460D4602A0FFF77AF970BD0000D4
:103300000D0A555243203A2020206474755F75726F
:10331000635F61746B5F6572726F720D0A0000000B
:1033200070B504460D4602A0FFF762F970BD0000BB
:103330000D0A555243203A2020206474755F75723F
:10334000635F6572726F725F6373710D0A000000D4
:1033500070B504460D4602A0FFF74AF970BD0000A3
:103360000D0A555243203A2020206474755F75720F
:10337000635F6572726F725F677072730D0A00002F
:1033800070B504460D4602A0FFF732F970BD00008B
:103390000D0A555243203A2020206474755F7572DF
:1033A000635F6572726F725F6D7174740D0A0000F5
:1033B00070B504460D4602A0FFF71AF970BD000073
:1033C0000D0A555243203A2020206474755F7572AF
:1033D000635F6572726F725F73696D0D0A00000042
:1033E00000BF054A128802F08002002AF9D0C2B25A
:1033F000014B1B1D1A807047003801401FB5482043
:10340000FFF7B2FD4FF4E13000F01AFCFDF776FF54
:10341000FDF7B0FDFDF7BEFCFDF74EFFFEF73CFEED
:10342000FEF7CCFD97A0FFF7E3F8A0A20121084624
:10343000FDF742FEA1A201210220FDF73DFEA2A060
:10344000FFF7D6F8ACA201210320FDF735FE0025D9
:1034500008E0691CACA0FFF7CBF84FF47A70FFF7D7
:1034600093FD6D1C0A2DF4DB00210220FFF7B6FD51
:103470000446002C66D1ACA0FFF7BAF8B2A2012135
:103480000220FDF719FEB4A0FFF7B2F8BBA201219C
:103490000320FDF711FEFFF701FF0646002E47D17E
:1034A000B9A0FFF7A5F8C0A201210320FDF704FE93
:1034B000C0A0FFF79DF8CBA201210420FDF7FCFD81
:1034C000002508E0691CCBA0FFF792F84FF47A7052
:1034D000FFF75AFD6D1C052DF4DBCEA0FFF788F831
:1034E000D5A201210420FDF7E7FDD6A1D748FFF7BB
:1034F0006EF84FF47A70FFF747FDD548008800F466
:10350000004048B1D349D4A0FFF772F8DBA20121F3
:103510000420FDF7D1FD07E0DBA0FFF769F8E3A287
:1035200001210420FDF7C8FD0020C949088008E0FA
:103530003146E1A0FFF75CF8EBA201210320FDF783
:10354000BBFD08E02146ECA0FFF752F8F7A20121ED
:103550000220FDF7B1FD4FF47A70FFF715FDB8E2D8
:10356000F6480068401CF5490860FEF7A3FD0546D3
:10357000032D1AD10120FDF75FFEF148FFF738F85F
:10358000F0A201210846FDF797FDF1A201210220DA
:10359000FDF792FDF0A201210320FDF78DFDF2A2BF
:1035A00001210420FDF788FD38E0042D1AD1002008
:1035B000FDF742FEEF48FFF71BF8E2A201210846A3
:1035C000FDF77AFDECA201210220FDF775FDE2A2D4
:1035D00001210320FDF770FDE9A201210420FDF780
:1035E0006BFD1BE0012D19D1E8A0FDF7CBFEEAA091
:1035F000FEF7FEFFF8A201210846FDF75DFDF8A2E7
:1036000001210220FDF758FDF7A201210320FDF75B
:1036100053FDF8A201210420FDF74EFDC7480068C4
:103620004FF4FA61B0FBF1F201FB120078B96B467E
:1036300001AA02A903A8FEF707FA06461EB9F0A0E0
:10364000FEF7D6FF02E0F6A0FEF7D2FF00BFBB48B0
:10365000006847F23051B0FBF1F201FB1200002884
:103660000ED1F7A0FEF7C4FFFEA201210846FDF728
:1036700023FD12A201210220FDF71EFD71A1F9E137
:1036800023E200005B53797374656D5D20E5889DCE
:10369000E5A78BE58C9641544B2D443433E6A8A125
:1036A000E59D972E2E2E0D0A000000002020537954
:1036B0007374656D20496E697400000020204154C8
:1036C0004B2D4434330000005B53797374656D5D9A
:1036D00020E7AD89E5BE8541544B2D443433E59058
:1036E000AFE58AA8EFBC8CE7AD89E5BE853130E750
:1036F000A7922E2E2E0D0A00202057616974696E44
:1037000067203130730000005B53797374656D5D21
:1037100020E7AD89E5BE852025642F313020E7A75D
:10372000922E2E2E0D0A00005B53797374656D5D29
:103730002041544B2D443433E9858DE7BDAEE688F6
:1037400090E58A9F0D0A00002020436F6E6669672E
:103750003A204F4B000000005B53797374656D5D38
:1037600020E9878DE7BDAE41544B2D443433E8AE9C
:10377000BEE5A4872E2E2E0D0A00000020205265E3
:1037800073657474696E67005B53797374656D5DFE
:103790002041544B2D443433E9878DE7BDAEE68894
:1037A00090E58A9F0D0A0000202052657365743AE7
:1037B000204F4B005B53797374656D5D20E7AD89D5
:1037C000E5BE8541544B2D443433E9878DE590AFF8
:1037D000EFBC8CE7AD89E5BE8535E7A7922E2E2E8E
:1037E0000D0A0000202057616974696E67203573E7
:1037F000000000005B53797374656D5D20E7AD894F
:10380000E5BE852025642F3520E7A7922E2E2E0DAC
:103810000A0000005B53797374656D5D20E9AA8C22
:10382000E8AF8141544B2D443433E9809AE4BFA181
:103830002E2E2E0D0A000000202054657374696E30
:103840006700000041540D0A0000000000380140EC
:1038500024000020780000205B53797374656D5D4F
:1038600020E694B6E588B0E6A8A1E59D97E5938D9E
:10387000E5BA943A2025730D0A0000002020546513
:1038800073743A204F4B00005B53797374656D5D20
:1038900020E69CAAE694B6E588B0E6A8A1E59D9747
:1038A000E5938DE5BA940D0A0000000020205465D0
:1038B00073743A204E6F00005B53797374656D5DCD
:1038C0002041544B2D443433E9878DE7BDAEE5A448
:1038D000B1E8B4A5EFBC8CE99499E8AFAFE7A0815B
:1038E0003A2025640D0A0000202052657365743A61
:1038F000204661696C6564005B53797374656D5D26
:103900002041544B2D443433E5889DE5A78BE58C4D
:1039100096E5A4B1E8B4A5EFBC8CE99499E8AFAF03
:10392000E7A0813A2025640D0A0000002020496E9E
:1039300069743A204661696C65640000600000208B
:10394000B4490008202052656C61792032000000E3
:1039500020204F4E00000000202057617465722027
:1039600050756D70000000002020506F7765726503
:1039700064000000F849000820204F46460000007F
:10398000202053746F707065640000000103000113
:1039900003003DCC000000005B53797374656D5DDE
:1039A00020E8A7A6E691B8E68C89E994AE41E68CBA
:1039B00089E4B88BEFBC8CE58F91E98081E59C9F11
:1039C000E5A3A4E4BCA0E6849FE599A8E8AFB7E628
:1039D000B1820D0A00000000202052533438350017
:1039E000202053656E640000202052657175657358
:1039F000740000002020537563636573730000003A
:103A00005B536F696C2053656E736F725D20E8AF16
:103A1000BBE58F96E68890E58A9F0D0A00000000BE
:103A20005B536F696C2053656E736F725D20E8AFF6
:103A3000BBE58F96E5A4B1E8B4A50D0A000000002F
:103A40005B53797374656D5D20E6A380E69FA541A5
:103A5000544B2D443433E78AB6E680812E2E2E0D4A
:103A60000A000000202053797374656D2043686557
:103A7000636B00001748FEF7AAFD4FF47A70FFF75A
:103A800083FA1548008800F4004048B1134914A097
:103A9000FEF7AEFD1BA201210320FDF70DFB11E097
:103AA0001CA0FEF7A5FD28A201210320FDF704FBC1
:103AB00000210220FFF792FAFFF7F0FB41F2883075
:103AC000FFF762FA0020044908800120FFF75CFA42
:103AD00000BF45E5003801402400002078000020A8
:103AE0005B53797374656D5D2041544B2D443433C1
:103AF000E9809AE4BFA1E6ADA3E5B8B83A20257302
:103B00000D0A000020205374617475733A204F4BE6
:103B1000000000005B53797374656D5D2041544B68
:103B20002D443433E9809AE4BFA1E5BC82E5B8B8FE
:103B3000EFBC8CE9878DE696B0E5889DE5A78BE51F
:103B40008C962E2E2E0D0A002020537461747573EE
:103B50003A204572726F72002DE9F04106460F4619
:103B6000144600254FF400712448FCF7F6FA0020B3
:103B7000234908803046FCF70DFB8046414630461D
:103B800000F048F839E039461C48FCF7F1FA10B16A
:103B90000120BDE8F0811BA11848FCF7E9FA08B143
:103BA0000020F6E718A11548FCF7E2FA10B14FF033
:103BB000FF30EEE71248008800F40040A8B1104939
:103BC0000988C1F30D020D4948191149FCF7ACFAF7
:103BD0000B480088C0F30D00054400200849088008
:103BE000B5F5007F09D3401ED3E7641E14B96FF00A
:103BF0000100CEE76420FFF7C7F9C4E70A030020FD
:103C0000240000204F4B00004552524F520000004C
:103C10007800002010B5024600200BE000BF074BE3
:103C20001B8803F04003002BF9D0135C034C241DC8
:103C30002380401C8842F1D310BD000000380140B1
:103C400010B5044601210420FDF77CFA012104206F
:103C5000FDF778FA01218803FDF774FA4FF400703C
:103C60001A4908801820C870032088701848FCF78B
:103C70009FFF4FF48060154908802820C8701448C1
:103C8000FCF796FF13480460002012498880C88022
:103C9000088188810C2048810F48FEF723FC012110
:103CA0000D48FEF7B6FB25200C490870032048702C
:103CB00088700120C8700846FDF794F8012240F290
:103CC00025510548FEF7E8FB10BD00001800002054
:103CD0000008014068000020003801401C0000205E
:103CE00000000000000000000000000000000000D4
:103CF000000000F800000000000000333000000069
:103D000000100C06100C060000000000000000006F
:103D100040C07840C0784000043F04043F040400E1
:103D2000007088FC08300000001820FF211E0000F1
:103D3000F008F000E018000000211C031E211E0006
:103D400000F00888700000001E212324192721108C
:103D500010160E000000000000000000000000002F
:103D6000000000E0180402000000000718204000D6
:103D700000020418E00000000040201807000000C6
:103D8000404080F0804040000202010F010202002A
:103D9000000000F0000000000101011F010101000E
:103DA000000000000000000080B070000000000073
:103DB00000000000000000000001010101010101FC
:103DC0000000000000000000003030000000000093
:103DD0000000000080601804006018060100000068
:103DE00000E010080810E000000F102020100F0065
:103DF000001010F8000000000020203F20200000EC
:103E00000070080808887000003028242221300043
:103E100000300888884830000018202020110E004B
:103E20000000C02010F8000000070424243F2400F4
:103E300000F80888880808000019212020110E00C9
:103E400000E0108888180000000F112020110E00DB
:103E500000380808C83808000000003F00000000D3
:103E60000070880808887000001C222121221C0094
:103E700000E010080810E0000000312222110F00BD
:103E8000000000C0C0000000000000303000000052
:103E900000000080000000000000806000000000C2
:103EA00000008040201008000001020408102000DB
:103EB0004040404040404000040404040404040026
:103EC00000081020408000000020100804020100BB
:103ED000007048080808F0000000003036010000BB
:103EE000C030C828E810E0000718272423140B006E
:103EF0000000C038E0000000203C230202273820E8
:103F000008F8888888700000203F202020110E00CB
:103F1000C0300808080838000718202020100800C2
:103F200008F808080810E000203F202020100F00AB
:103F300008F88888E8081000203F20202320180077
:103F400008F88888E8081000203F200003000000DF
:103F5000C03008080838000007182020221E020080
:103F600008F808000008F808203F210101213F203F
:103F7000000808F8080800000020203F202000006A
:103F800000000808F8080800C08080807F0000005A
:103F900008F888C028180800203F20012638200093
:103FA00008F8080000000000203F202020203000FA
:103FB00008F8F800F8F80800203F003F003F200014
:103FC00008F830C00008F808203F200007183F001C
:103FD000E01008080810E0000F10202020100F004B
:103FE00008F808080808F000203F2101010100003E
:103FF000E01008080810E0000F18242438504F0083
:1040000008F8888888887000203F2000030C302042
:1040100000708808080838000038202121221C0080
:10402000180808F8080818000000203F20000000C9
:1040300008F808000008F808001F202020201F00B2
:104040000878880000C83808000007380E01000012
:10405000F80800F80008F800033C0700073C0300DC
:10406000081868808068180820302C03032C302042
:104070000838C800C83808000000203F20000000B1
:1040800010080808C8380800203826212020180009
:10409000000000FE020202000000007F40404000DD
:1040A000000C30C000000000000000010638C00015
:1040B00000020202FE000000004040407F000000BD
:1040C00000000402020204000000000000000000E2
:1040D00000000000000000008080808080808080E0
:1040E00000020204000000000000000000000000C8
:1040F00000008080808000000019242222223F20BE
:1041000008F8008080000000003F112020110E0000
:104110000000008080800000000E1120202011008F
:10412000000000808088F800000E112020103F2041
:104130000000808080800000001F222222221300C5
:10414000008080F0888888180020203F2020000010
:104150000000808080808000006B949494936000C5
:1041600008F8008080800000203F210000203F20D0
:1041700000809898000000000020203F20200000D0
:10418000000000809898000000C08080807F0000C0
:1041900008F8000080808000203F24022D3020009D
:1041A000000808F8000000000020203F2020000048
:1041B0008080808080808000203F20003F20003F62
:1041C0008080008080800000203F210000203F2070
:1041D0000000808080800000001F202020201F0021
:1041E000808000808000000080FFA12020110E0050
:1041F0000000008080808000000E112020A0FF8041
:10420000808080008080800020203F2120000100ED
:104210000000808080808000003324242424190042
:10422000008080E0808000000000001F202000004F
:104230008080000000808000001F202020103F2090
:10424000808080000080808000010E300806010020
:1042500080800080008080800F300C030C300F00C5
:1042600000808000808080000020312E0E312000F0
:10427000808080000080808080818E701806010020
:1042800000808080808080000021302C222130003E
:1042900000000000807C020200000000003F40405F
:1042A00000000000FF00000000000000FF00000010
:1042B0000002027C800000000040403F000000003F
:1042C00000060101020204040000000000000000DA
:1042D00005000000AC5F00086C56000805000000F7
:1042E000945F0008B0520008050000002460000838
:1042F0007457000805000000385F0008F4560008F5
:10430000050000002C5F0008E457000805000000CD
:104310000C5F0008D857000805000000C45E0008C4
:10432000B44A000805000000A05F0008105900080A
:1043300005000000145F00085C570008050000003D
:10434000AC5D0008D051000805000000D45D0008F5
:104350008852000805000000005F0008C4570008EC
:1043600005000000605D0008C0580008050000005E
:10437000445E0008A057000805000000985A000895
:10438000FC53000805000000DC5C00082057000812
:1043900005000000B85D0008D453000805000000C7
:1043A000545E0008A456000805000000645E000882
:1043B000B856000805000000745E0008CC560008DE
:1043C00005000000B85F0008305800080500000034
:1043D000905E0008B457000805000000505F000818
:1043E0007C53000805000000E45D00089C520008B2
:1043F00005000000845E0008E0560008050000008B
:10440000445F0008A853000805000000EC5C0008A9
:104410008C57000805000000F45E000834570008BF
:1044200005000000605D00087058000805000000ED
:10443000045D0008AC580008050000009C5D000801
:10444000A854000805000000C85D00082C520008B0
:1044500005000000D05C0008585900080500000065
:104460005C5F00080857000805000000605D000858
:10447000FC58000805000000C45C000894590008BE
:1044800005000000D05E0008AC59000805000000DF
:10449000186000082859000805000000E85E0008C0
:1044A0005853000805000000685A0008744D0008C1
:1044B00005000000F45A0008D84D0008050000006F
:1044C000745B00083C4E000805000000F45B000827
:1044D000A04E000805000000385A0008144B0008E0
:1044E00005000000C45A0008844B000805000000C5
:1044F000445B0008F44B000805000000C45B0008A2
:10450000644C000805000000845F00081C58000887
:1045100005000000F85F00083055000805000000A5
:104520008C5D0008FC4C000805000000B45E00082B
:104530001452000805000000605D0008445800089F
:1045400005000000545D0008DC590008050000006B
:10455000205F0008C059000805000000385E000810
:104560004059000805000000385D0008785900082F
:1045700005000000585A0008544D000805000000CE
:10458000E45A0008B84D000805000000645B00080C
:104590001C4E000805000000E45B0008804E000887
:1045A00005000000285A0008F04A00080500000035
:1045B000B45A0008604B000805000000345B000896
:1045C000D04B000805000000B45B0008404C000818
:1045D00005000000785F000808580008050000008A
:1045E000D85F0008FC540008050000007C5D00084E
:1045F000C44C000805000000A85E0008FC5100083B
:1046000005000000605D0008E85800080500000093
:10461000205D0008E8530008050000002C5D00083C
:10462000C85200080500000030600008E052000891
:1046300005000000DC5E00083053000805000000A3
:10464000485A0008344D000805000000D45A0008FC
:10465000984D000805000000545B0008FC4D000860
:1046600005000000D45B0008604E00080500000053
:10467000185A0008CC4A000805000000A45A000897
:104680003C4B000805000000245B0008AC4B000810
:1046900005000000A45B00081C4C00080500000099
:1046A0006C5F0008F457000805000000C85F0008B0
:1046B000E4540008050000006C5D00088C4C000804
:1046C000050000009C5E0008E451000805000000A1
:1046D000605D00085858000805000000445D0008AF
:1046E00004530008050000002C5E00084854000830
:1046F000050000003C6000086C5400080500000044
:10470000F85C00089056000805000000F85C0008FE
:104710009858000805000000105D00089851000836
:1047200005000000E85F00081455000805000000BF
:10473000785A00087055000805000000045B000866
:10474000B855000805000000845B00089455000877
:1047500005000000045C00084C550008050000003E
:10476000245C00084856000805000000445C00086E
:104770000056000805000000645C0008DC550008D5
:1047800005000000845C00082456000805000000B5
:10479000A45C00088454000805000000F4590008D7
:1047A0002454000805000000045E00084052000880
:1047B00005000000F85C00088458000805000000AF
:1047C000105D0008B451000805000000F05D00080D
:1047D0007052000805000000086000081853000827
:1047E00005000000885A0008C44E000805000000BB
:1047F000145B00080C4F000805000000945B0008E3
:10480000544F000805000000145C00089C4F00088D
:1048100005000000345C0008E44F000805000000BB
:10482000545C00082C50000805000000745C00086F
:104830007450000805000000945C0008BC5000089B
:1048400005000000B45C00080451000805000000E9
:10485000045A00084C51000805000000185E0008CA
:104860005852000805000000F85C0008485700088E
:1048700005000000105D00089851000805000000C8
:10488000F05D00087052000805000000885A00081A
:10489000C44E000805000000145B00080C4F00081F
:1048A00005000000945B0008544F0008050000005C
:1048B000145C00089C4F000805000000345C0008F0
:1048C000E44F000805000000545C00082C5000086C
:1048D00005000000745C000874500008050000002A
:1048E000945C0008BC50000805000000B45C00089F
:1048F0000451000805000000045A00084C5100084B
:1049000005000000185E000858520008050000006D
:10491000F85C0008D058000805000000105D000891
:104920009851000805000000F05D00087052000872
:1049300005000000885A0008C44E00080500000069
:10494000145B00080C4F000805000000945B000891
:10495000544F000805000000145C00089C4F00083C
:1049600005000000345C0008E44F0008050000006A
:10497000545C00082C50000805000000745C00081E
:104980007450000805000000945C0008BC5000084A
:1049900005000000B45C0008045100080500000098
:1049A000045A00084C51000805000000185E000879
:1049B000585200085B53797374656D5D20E8A7A6B3
:1049C000E691B8E68C89E994AE43E68C89E4B88B2D
:1049D000EFBC8CE68993E5BC80E7BBA7E794B5E51F
:1049E00099A832EFBC88E6B0B4E6B3B5E4BE9BE765
:1049F00094B5EFBC890D0A005B53797374656D5DE6
:104A000020E8A7A6E691B8E68C89E994AE44E68C46
:104A100089E4B88BEFBC8CE585B3E997ADE7BBA71C
:104A2000E794B5E599A832EFBC88E5819CE6ADA294
:104A3000E6B0B4E6B3B5E4BE9BE794B5EFBC890D30
:104A40000A000000506C6561736520636865636BE4
:104A500020435351202121210D0A0000506C656133
:104A6000736520636865636B204750525320212192
:104A7000210D0A00506C6561736520636865636B86
:104A80002053494D2043617264202121210D0A00E9
:104A9000506C6561736520636865636B204D51548C
:104AA0005420506172616D65746572202121210D61
:104AB0000A00000041542B41504E3D224155544FB5
:104AC000222C22222C22220D0A00000041542B4FBE
:104AD0004E45505542313D2230222C2261746B2FBD
:104AE00070756231222C2230222C2230220D0A00D5
:104AF00041542B414C49505542313D2231222C2208
:104B000061746B2F70756231222C2230222C22307E
:104B1000220D0A0041542B4D515454505542313D01
:104B20002231222C2261746B2F70756231222C226B
:104B300030222C2230220D0A0000000041542B4F5D
:104B40004E45505542323D2230222C2261746B2F4B
:104B500070756232222C2230222C2230220D0A0063
:104B600041542B414C49505542323D2230222C2297
:104B700061746B2F70756232222C2230222C22300D
:104B8000220D0A0041542B4D515454505542323D90
:104B90002230222C2261746B2F70756232222C22FB
:104BA00030222C2230220D0A0000000041542B4FED
:104BB0004E45505542333D2230222C2261746B2FDA
:104BC00070756233222C2230222C2230220D0A00F2
:104BD00041542B414C49505542333D2230222C2226
:104BE00061746B2F70756233222C2230222C22309C
:104BF000220D0A0041542B4D515454505542333D1F
:104C00002230222C2261746B2F70756233222C2289
:104C100030222C2230220D0A0000000041542B4F7C
:104C20004E45505542343D2230222C2261746B2F68
:104C300070756234222C2230222C2230220D0A0080
:104C400041542B414C49505542343D2230222C22B4
:104C500061746B2F70756234222C2230222C22302A
:104C6000220D0A0041542B4D515454505542343DAD
:104C70002230222C2261746B2F70756234222C2218
:104C800030222C2230220D0A0000000041542B4F0C
:104C90004E4557494C4C3D2230222C2264657669A2
:104CA00063652F6C6173745F77696C6C222C226F63
:104CB00066666C696E65222C2230222C2230220D11
:104CC0000A00000041542B414C4957494C4C3D22AD
:104CD00030222C226465766963652F6C6173745F82
:104CE00077696C6C222C226F66666C696E65222C6B
:104CF0002230222C2230220D0A00000041542B4D7C
:104D000051545457494C4C3D2230222C2264657634
:104D10006963652F6C6173745F77696C6C222C22F8
:104D20006F66666C696E65222C2230222C2230223E
:104D30000D0A000041542B4F4E45535542313D2240
:104D400030222C2261746B2F73756231222C223039
:104D5000220D0A0041542B414C49535542313D220A
:104D600031222C2261746B2F73756231222C223018
:104D7000220D0A0041542B4D515454535542313D9C
:104D80002231222C2261746B2F73756231222C2206
:104D900030220D0A0000000041542B4F4E45535560
:104DA00042323D2230222C2261746B2F73756232A5
:104DB000222C2230220D0A0041542B414C495355DC
:104DC00042323D2230222C2261746B2F7375623285
:104DD000222C2230220D0A0041542B4D51545453A1
:104DE0005542323D2230222C2261746B2F73756242
:104DF00032222C2230220D0A0000000041542B4F99
:104E00004E45535542333D2230222C2261746B2F84
:104E100073756233222C2230220D0A0041542B413B
:104E20004C49535542333D2230222C2261746B2F62
:104E300073756233222C2230220D0A0041542B4D0F
:104E4000515454535542333D2230222C2261746B0D
:104E50002F73756233222C2230220D0A00000000CD
:104E600041542B4F4E45535542343D2230222C2283
:104E700061746B2F73756234222C2230220D0A006C
:104E800041542B414C49535542343D2230222C226F
:104E900061746B2F73756234222C2230220D0A004C
:104EA00041542B4D515454535542343D2230222C01
:104EB0002261746B2F73756234222C2230220D0A0A
:104EC0000000000041542B4D4F44425553434D4484
:104ED000313D22525455222C2230222C22636D6403
:104EE00031222C2231222C223033222C2230222C2F
:104EF0002275696E7431365F4142222C2231222C98
:104F000022696E74222C2230220D0A0041542B4D4E
:104F10004F44425553434D44323D22525455222C66
:104F20002230222C22636D6432222C2231222C2248
:104F30003033222C2231222C2275696E7431365F77
:104F40004142222C2231222C22696E74222C2230E2
:104F5000220D0A0041542B4D4F44425553434D44BA
:104F6000333D22525455222C2230222C22636D6470
:104F700033222C2231222C223033222C2232222C9A
:104F80002275696E7431365F4142222C2231222C07
:104F900022696E74222C2230220D0A0041542B4DBE
:104FA0004F44425553434D44343D22525455222CD4
:104FB0002230222C22636D6434222C2231222C22B6
:104FC0003033222C2233222C2275696E7431365FE5
:104FD0004142222C2231222C22696E74222C223052
:104FE000220D0A0041542B4D4F44425553434D442A
:104FF000353D22525455222C2230222C22636D64DE
:1050000035222C2231222C223033222C2234222C05
:105010002275696E7431365F4142222C2231222C76
:1050200022696E74222C2230220D0A0041542B4D2D
:105030004F44425553434D44363D22525455222C41
:105040002230222C22636D6436222C2231222C2223
:105050003033222C2235222C2275696E7431365F52
:105060004142222C2231222C22696E74222C2230C1
:10507000220D0A0041542B4D4F44425553434D4499
:10508000373D22525455222C2230222C22636D644B
:1050900037222C2231222C223033222C2236222C71
:1050A0002275696E7431365F4142222C2231222CE6
:1050B00022696E74222C2230220D0A0041542B4D9D
:1050C0004F44425553434D44383D22525455222CAF
:1050D0002230222C22636D6438222C2231222C2291
:1050E0003033222C2237222C2275696E7431365FC0
:1050F0004142222C2231222C22696E74222C223031
:10510000220D0A0041542B4D4F44425553434D4408
:10511000393D22525455222C2230222C22636D64B8
:1051200039222C2231222C223033222C2238222CDC
:105130002275696E7431365F4142222C2231222C55
:1051400022696E74222C2230220D0A0041542B4D0C
:105150004F44425553434D4431303D225254552221
:105160002C2230222C22636D643130222C223122F9
:105170002C223033222C2239222C2275696E743174
:10518000365F4142222C2231222C22696E74222C5D
:105190002230220D0A00000041542B5441534B543D
:1051A000494D453D223130222C2231303030220D04
:1051B0000A00000041542B5441534B54494D453D86
:1051C0002235222C2231303030220D0A000000001E
:1051D00041542B525354494D3D2231323030220D2F
:1051E0000A00000041542B4F4E45434F4E3D2231A3
:1051F000222C22333030220D0A00000041542B4172
:105200004C49434F4E3D2231222C22333030220D67
:105210000A00000041542B4D515454434F4E3D223F
:1052200031222C22333030220D0A000041542B4809
:10523000545450544D3D223130220D0A00000000DC
:1052400041542B5452414E53504F4C4C4E554D3DB2
:10525000223130220D0A000041542B4D4F4442555B
:1052600053504F4C4C4E554D3D223130220D0A00CB
:1052700041542B5441534B434F4D424E554D3D22CB
:105280003230220D0A00000041542B4C494E4B5243
:1052900053544D3D22313230220D0A0041542B48E7
:1052A0005254544D3D22313230220D0A000000008C
:1052B00041542B554152544C543D2231303234220A
:1052C0002C223530220D0A0041542B4F4E455049B7
:1052D0003D2231323334353637383930220D0A0029
:1052E00041542B4F4E454B45593D223132333435D5
:1052F0003637383930313233343536373839302271
:105300000D0A000041542B5356524C494E4B3D223E
:1053100031220D0A0000000041542B5441534B44EC
:1053200045563D224434582D31220D0A000000001C
:1053300041542B4F4E4549503D226D7174742E6877
:1053400065636C6F7564732E636F6D222C22313828
:105350003833220D0A00000041542B4D515454495A
:10536000503D2262726F6B65722E656D71782E6989
:105370006F222C2231383833220D0A0041542B4839
:10538000525444543D223431344334393435344555
:1053900035343435344232443438353235343434AB
:1053A0003534220D0A00000041542B524547445425
:1053B0003D22343134433439343534453534343591
:1053C0003442324435323435343734343534220DB6
:1053D0000A00000041542B4C494E4B31544D3D22A4
:1053E00035220D0A0000000041542B4F4E45444920
:1053F0003D223132333435220D0A000041542B4C0A
:10540000494E4B313D22544350222C22382E313309
:10541000352E31302E313833222C22333431393588
:10542000220D0A0041542B5452414E53434D4431F6
:10543000303D22303130333030303930303031355A
:10544000343038220D0A000041542B5356524E5529
:105450004D3D2231393637383635323430303837F1
:1054600036303933343438220D0A000041542B537E
:1054700056524B45593D2231323334353637382276
:105480000D0A000041542B5452414E53434D4439B0
:105490003D223031303330303038303030313035FB
:1054A0004338220D0A00000041542B4854545055F3
:1054B000524C3D2268747470733A2F2F636C6F7571
:1054C000642E616C69656E74656B2E636F6D2F74ED
:1054D000657374666F726474753F646174613D22B4
:1054E0000D0A000041542B4F4E45444953543D2270
:1054F00030222C223C25643E220D0A0041542B41CF
:105500004C49444953543D2230222C223C25643ED0
:10551000220D0A0041542B5441534B444953543DEE
:105520002230222C223C25643E220D0A000000007D
:1055300041542B4D515454444953543D2230222C54
:10554000223C25643E220D0A0000000041542B54E9
:1055500052414E53434D44343D223031303330308C
:1055600030333030303137343041220D0A00000002
:1055700041542B5452414E53434D44313D2230311E
:105580003033303030303030303138343041220D2B
:105590000A00000041542B5452414E53434D4433B2
:1055A0003D223031303330303032303030313235EE
:1055B0004341220D0A00000041542B5452414E53E6
:1055C000434D44323D223031303330303031303091
:1055D000303144354341220D0A00000041542B5420
:1055E00052414E53434D44373D22303130333030F9
:1055F00030363030303136343042220D0A0000006F
:1056000041542B5452414E53434D44363D22303188
:105610003033303030353030303139343042220D93
:105620000A00000041542B5452414E53434D44381C
:105630003D22303130333030303730303031333557
:105640004342220D0A00000041542B5452414E5354
:10565000434D44353D2230313033303030343030FA
:10566000303143354342220D0A00000041542B558E
:105670004152543D22313135323030222C223122F8
:105680002C2238222C224E4F4E45220D0A000000BB
:1056900041542B5441534B4D443D224F4646220D1D
:1056A0000A00000041542B4C494E4B32454E3D22DE
:1056B0004F4646220D0A000041542B4C494E4B33B5
:1056C000454E3D224F4646220D0A000041542B4CC8
:1056D000494E4B34454E3D224F4646220D0A0000AE
:1056E00041542B524547454E3D224F4646220D0A16
:1056F0000000000041542B5541525441543D224F6B
:105700004646220D0A00000041542B48545450488C
:1057100044464C543D224F4646220D0A00000000EC
:1057200041542B4C494E4B314D443D224C4F4E473A
:10573000220D0A0041542B52454754503D22494DF9
:105740004549220D0A00000041542B5441534B4D52
:10575000443D22414C49220D0A00000041542B5582
:105760005345523D22414C49454E54454B220D0A6A
:105770000000000041542B434D444B45593D22410C
:105780004C49454E54454B220D0A000041542B52C2
:1057900045474D443D224C494E4B220D0A00000026
:1057A00041542B4C494E4B31454E3D224F4E220D1C
:1057B0000A00000041542B485254454E3D224F4EA2
:1057C000220D0A0041542B4155544F55503D224F54
:1057D0004E220D0A0000000041542B523D224F4E34
:1057E000220D0A0041542B4E455441543D224F4E48
:1057F000220D0A0041542B4F4E45464C543D224F3A
:105800004E220D0A0000000041542B414C49464CE9
:10581000543D224F4E220D0A0000000041542B4DF2
:10582000515454464C543D224F4E220D0A00000064
:1058300041542B53454E44464153543D224F4E2232
:105840000D0A000041542B574F524B3D22414C4909
:1058500059554E220D0A000041542B574F524B3DD3
:10586000225955414E5A4959554E220D0A00000001
:1058700041542B574F524B3D2248545450220D0A4D
:105880000000000041542B5441534B4D443D2255E0
:10589000534552220D0A000041542B5441534B4DA5
:1058A000443D225452414E53220D0A0041542B488C
:1058B0005454504D443D22474554220D0A000000E7
:1058C00041542B574F524B3D224E4554220D0A0056
:1058D00041542B5441534B4D443D224F4E454E4570
:1058E00054220D0A0000000041542B574F524B3DEB
:1058F000224F4E454E4554220D0A000041542B576D
:105900004F524B3D224D515454220D0A00000000CD
:1059100041542B53544152543D2241544B2D443455
:1059200058220D0A0000000041542B4D5154545090
:10593000573D2270617373776F7264220D0A000005
:1059400041542B414C49444E3D2244657669636580
:105950004E616D65220D0A0041542B485454504845
:10596000443D22436F6E6E656374696F6E3A636C7B
:105970006F7365220D0A000041542B414C49524976
:105980003D22636E2D7368616E67686169220D0A3E
:105990000000000041542B4D51545443443D2261BA
:1059A0006C69656E74656B220D0A000041542B4DC5
:1059B000515454554E3D2261646D696E220D0A00AA
:1059C00041542B414C4944533D22446576696365FB
:1059D000536563726574220D0A00000041542B4127
:1059E0004C49504B3D2250726F647563744B65791E
:1059F000220D0A0041542B5452414E53434D443121
:105A0000300D0A0041542B4D4F44425553434D44F1
:105A100031300D0A0000000041542B4F4E455055C7
:105A200042310D0A0000000041542B414C495055B1
:105A300042310D0A0000000041542B4D5154545086
:105A40005542310D0A00000041542B4F4E4553552D
:105A500042310D0A0000000041542B414C4953557E
:105A600042310D0A0000000041542B4D5154545353
:105A70005542310D0A00000041542B5452414E53FF
:105A8000434D44310D0A000041542B4D4F444255C3
:105A900053434D44310D0A0041542B4C494E4B3178
:105AA0000D0A000041542B4F4E45505542320D0A0D
:105AB0000000000041542B414C49505542320D0A20
:105AC0000000000041542B4D515454505542320DAA
:105AD0000A00000041542B4F4E45535542320D0AE7
