:020000040800F2
:10000000E006002005010008750D0008230D00081A
:10001000710D0008A10700085F250008000000001E
:10002000000000000000000000000000891300082C
:10003000A507000800000000B5100008D31D000847
:100040001F0100081F0100081F0100081F01000810
:100050001F0100081F010008A90700081F01000870
:10006000BD0800087D0900081F0100081F010008E5
:100070001F0100081F0100081F0100081F010008E0
:100080001F0100081F0100081F0100081F010008D0
:100090001F0100081F0100081F0100081F010008C0
:1000A0001F0100081F0100081F0100081F010008B0
:1000B000351E00081F0100081F0100081F0100086D
:1000C0001F0100081F0100081F0100081F01000890
:1000D0001F010008052100081F0100088D210008EC
:1000E0001F0100081F0100081F010008DFF810D0E1
:1000F00000F034FB00480047A12F0008AFF3008058
:10010000E00600200648804706480047FEE7FEE775
:10011000FEE7FEE7FEE7FEE7FEE7FEE7FEE7FEE7B7
:10012000D51D0008ED000008421C10F8011B002935
:10013000FBD1801A704730B480EA010202F000451A
:1001400030F0004221F0004013D090B1C30DD40D27
:10015000C2F31601C0F31600E41A41F4000140F4A2
:1001600000027D34914201D3641C00E04900002C60
:1001700002DA30BC002070474FF4000000239142A7
:1001800001D3891A034340084FEA4101F7D151B125
:10019000914202D14FF0004105E002D24FF001013F
:1001A00001E06FF0010103EBC450284430BC00F0C3
:1001B0009FB92DE9FE4F804681EA0300C00F0C462F
:1001C000009021F0004123F00045B8EB0200A94166
:1001D00005D24046214690461C460B46024623F077
:1001E0000040104347D0270DC7F30A00C3F30A515C
:1001F0000290401A019040286BDAC3F3130040F4D8
:10020000801B0098924620B10023D2EB030A63EBD7
:100210000B0B01985946C0F14002504600F047F9D7
:1002200006460D4650465946019A00F04FF910EB2C
:1002300008006141002487EA115284EAE7731A43F7
:1002400040D0009A62B3019A012A4FEA075215DCA6
:10025000001B61EB02014FF0004202EA0752CDE9B8
:100260000042001C41F5801132462B4600F086F911
:1002700003B0BDE8F08F40462146F9E7001B61EB73
:100280000201001C41F5801300185B412018A2F503
:10029000001747EB030140EAD570B6196D4111E034
:1002A0006D084FEA360645EAC0754FEA0752001B53
:1002B00061EB0201001C41F5801149084FEA300052
:1002C0000019514132462B4603B0BDE8F04F00F013
:1002D00046B90098012240000023D0EB020263EBF4
:1002E000E073009821464FEAE074B8EB000061EB40
:1002F0000401E9E783F000435BE781F0004158E740
:100300002DE9F04D81EA030404F0004B21F0004593
:1003100014464FF0000A23F0004150EA050220D0B5
:1003200054EA01021DD0C5F30A570246C5F3130370
:10033000C1F31300C1F30A5640F4801543F480134F
:10034000A7EB0608101BD64608F2FD3873EB050034
:1003500002D308F1010801E092185B41B8F1000FE7
:1003600003DA00200146BDE8F08D00204FF4801133
:10037000064684460EE0171B73EB050705D3121BD8
:1003800063EB050306434CEA010C49084FEA3000D1
:1003900092185B4150EA0107EDD152EA030012D0F6
:1003A00082EA040083EA0501084305D0101BAB4133
:1003B00006D20122002306E000224FF0004302E0B3
:1003C0006FF0010253101AEB06004CEB085110EBD2
:1003D0000A0041EB0B01BDE8F04D00F0C0B8C10FC1
:1003E00080EAE0700844CA079623002100F089B82B
:1003F00096230022114600F084B800F0004230F04D
:1004000000400AD0C10D01F56071C0F3160042EA48
:100410000151C20840071143704700200146704750
:1004200030B50B46014600202022012409E021FAC4
:1004300002F59D4205D303FA02F5491B04FA02F5C1
:100440002844151EA2F10102F1DC30BD2DE9F05F58
:100450000546002092469B46884606468146402433
:100460001BE0284641464746224600F089F953469C
:100470005A46C01A914110D311461846224600F040
:1004800016F82D1A67EB01084F462246012000217D
:1004900000F00DF817EB00094E41201EA4F10104F5
:1004A000DFDC484631462A464346BDE8F09F202A15
:1004B00004DB203A00FA02F1002070479140C2F1BB
:1004C000200320FA03F3194390407047202A06DBEB
:1004D000CB17203A41FA02F043EAE07306E041FA12
:1004E00002F3D040C2F12002914008431946704700
:1004F0000029A8BF7047401C490008BF20F0010038
:10050000704710B4B0FA80FC00FA0CF050EA010415
:1005100004BF10BC704749B1CCF1200421FA04F4A7
:1005200011FA0CF118BF012121430843A3EB0C0180
:10053000CB1D4FEA00614FEA102042BF002010BCE3
:10054000704700EBC35010440029A4BF10BC704793
:10055000401C490008BF20F0010010BC704710B5D6
:10056000141E73F1000408DA401C41F100019218D6
:100570005B411A4301D120F0010010BD2DE9F04D7F
:1005800092469B4611B1B1FA81F202E0B0FA80F2D4
:1005900020329046FFF78BFF04460F4640EA0A00E0
:1005A00041EA0B0153465A46084313D0114653EA19
:1005B000010019D0C8F14002504600F0E1F80546AC
:1005C0000E46504659464246FFF771FF084305D094
:1005D000012004E020463946BDE8F08D00200543A7
:1005E00046EAE0762C4337430A986305E40AA0EB19
:1005F00008000022FD0A44EA47540A3002D50020D0
:100600000146E9E7010510196941DDE908450019CE
:100610006941BDE8F04DA2E72DE9FE4F81EA0304F0
:1006200004F0004421F0004100944FF0000B23F04F
:10063000004350EA01045ED052EA03045BD0C3F3E6
:100640000A54C1F30A552C44A4F2F3340194A0FBDC
:100650000254C1F3130141F48011C3F3130343F4B3
:10066000801301FB024400FB034E840A970A44EA0C
:10067000815447EA8357A4FB076802958D0A05FB5E
:1006800007854FEA932C04FB0C542705029D4FEA83
:10069000065847EA1637B5EB08056EEB070C870ED0
:1006A000920E47EA811742EA8312A7FB0201B6EBDA
:1006B0000B0164EB00042B0D43EA0C335E1844EB92
:1006C0001C50DA465146E7FB0201C5F313044FEA1A
:1006D0000B3343EA14534FEA0432019C43EA060306
:1006E000A4F10C040294009CCDE900B4FFF746FF8E
:1006F00003B0BDE8F08F00200146F9E7C1F30A52CC
:10070000C1F3130140F2FF3341F480119A4202DA3F
:1007100000200146704740F233439A42A2F233422E
:1007200002DC524200F02CB8FFF7C1BE30B5041E07
:1007300071F1000404DB4FF00044404264EB01011E
:10074000141E73F1000405DB1C464FF000435242B7
:1007500063EB0403994208BF904230BD064C074D3D
:1007600006E0E06840F0010394E807009847103481
:10077000AC42F6D3FFF7BEFC603A0008803A0008AE
:10078000202A04DB203A21FA02F00021704721FAE6
:1007900002F3D040C2F1200291400843194670474D
:1007A00000BFFEE7704700001CB5012000F04CF9C7
:1007B000002834D00A2002F0BBFB0121184800F0C9
:1007C00095FA002828D117A001F0CCFE1FA103C97B
:1007D000CDE900010821684600F07AFD1DA001F076
:1007E000C1FE2CA20121084600F030FC2BA2012101
:1007F000022000F02BFC2BA20121032000F026FC9C
:100800002BA20121042000F021FC4FF4FA7002F029
:100810008FFB00F073FE00BF012000F00FF91CBD3C
:10082000000801405B546F756368204B65795D205B
:10083000E4B8ADE696ADEFBC9A41E994AEE8A2AB60
:10084000E68C89E4B88B0D0A00000000010300006B
:10085000000444095B53797374656D5D20E8A7A6B5
:10086000E691B8E68C89E994AE41E68C89E4B88BD0
:10087000EFBC8CE58F91E98081E59C9FE5A3A4E422
:10088000BCA0E6849FE599A8E8AFB7E6B1820D0A5F
:1008900000000000202052533438350020205365DA
:1008A0006E6400002020526571756573740000004D
:1008B00020205375636365737300000010B5042036
:1008C00000F0C2F8002828D00A2002F031FB0421F1
:1008D000124800F00BFA00281CD111A001F042FED2
:1008E000012000F073FC184801F03CFE17A2012122
:1008F000084600F0ABFB18A20121022000F0A6FB85
:1009000017A20121032000F0A1FB19A2012104205C
:1009100000F09CFB042000F091F810BD000801409D
:100920005B546F756368204B65795D20E4B8ADE674
:1009300096ADEFBC9A43E994AEE8A2ABE68C89E4AD
:10094000B88B0D0A000000007C3900082020526599
:100950006C6179203200000020204F4E0000000022
:10096000202057617465722050756D700000000082
:100970002020506F776572656400000010B5082074
:1009800000F062F8002828D00A2002F0D1FA0821ED
:10099000124800F0ABF900281CD111A001F0E2FDD3
:1009A000002000F013FC184801F0DCFD17A2012123
:1009B000084600F04BFB18A20121022000F046FB84
:1009C00017A20121032000F041FB19A201210420FC
:1009D00000F03CFB082000F031F810BD0008014099
:1009E0005B546F756368204B65795D20E4B8ADE6B4
:1009F00096ADEFBC9A44E994AEE8A2ABE68C89E4EC
:100A0000B88B0D0A00000000C03900082020526594
:100A10006C6179203200000020204F464600000023
:100A2000202057617465722050756D7000000000C1
:100A3000202053746F7070656400000001490860E5
:100A40007047000014040140014600200022074BBB
:100A50001B6803EA0102054B14331B680B4013B1FA
:100A60000AB1012000E000207047000000040140AE
:100A7000002123498279002A3AD00A461268036885
:100A80009A430B461A600A1D126803689A430B1DAD
:100A90001A60027911440A6803681A430A60184A06
:100AA0000832126803689A43154B08331A601A1DFE
:100AB000126803689A43124B0C331A604279102A69
:100AC0000ED11A1F126803681A430D4B08331A60BF
:100AD0001A1D126803681A43094B0C331A600DE0A3
:100AE0000749427911440A6803681A430A6005E01D
:100AF000027911440A6803689A430A60704700004B
:100B00000004014030B500228B071C0F0F2303FAAD
:100B100004F20B4B8C1053F824309343084C8D1087
:100B200044F8253023468C1053F824308C07240FCA
:100B300000FA04F42343024C8D1044F8253030BDF4
:100B4000080001402DE9F041024600250026002062
:100B500000230024002791F803C00CF00F0591F842
:100B600003C00CF0100CBCF1000F03D091F802C0D0
:100B70004CEA050591F800C0BCF1000F31D01468B3
:100B800000202BE04FF0010C0CFA00F3B1F800C08C
:100B90000CEA03069E4220D183004FF00F0C0CFAA2
:100BA00003F7BC4305FA03FC4CEA040491F803C0C4
:100BB000BCF1280F06D14FF0010C0CFA00FCC2F872
:100BC00014C00AE091F803C0BCF1480F05D14FF002
:100BD000010C0CFA00FCC2F810C0401C0828D1D34C
:100BE0001460B1F800C0BCF1FF0F34DD5468002080
:100BF0002EE000F1080C4FF0010808FA0CF3B1F8F0
:100C000000C00CEA03069E4221D183004FF00F0C76
:100C10000CFA03F7BC4305FA03FC4CEA040491F810
:100C200003C0BCF1280F05D100F1080C08FA0CF83C
:100C3000C2F8148091F803C0BCF1480F07D100F14D
:100C4000080C4FF0010808FA0CF8C2F81080401C9C
:100C50000828CED35460BDE8F0810000F0B50A4604
:100C6000002300240021002500F00046B6F1004FCB
:100C700002D11D4EF16901E01B4E7168C0F30345BE
:100C800083B200F44016B6F5401F08D121F0706120
:100C9000154E766826F07066134F7E6012E000F401
:100CA0008016B6F5801F06D1032606FA05F4A14387
:100CB00041F0706106E0460D360103FA06F6B143D5
:100CC00041F0706122B1460D360103FA06F6314358
:100CD00000F00046B6F1004F02D1034EF16101E091
:100CE000014E7160F0BD000000000140024600208E
:100CF00093680B400BB1012000E0002070470246D2
:100D00000020D3680B400BB1012000E000207047A9
:100D100041617047016170470AB1016100E04161C2
:100D2000704700BFFEE7000008B50121082000F071
:100D3000D3F94FF48050ADF8000010208DF8030077
:100D400003208DF8020069460848FFF7FBFE4FF4C8
:100D50000050ADF8000069460448FFF7F3FE4FF479
:100D600040510248FFF7D6FF08BD0000000C0140CB
:100D700000BFFEE77047000070B5002100230F227E
:100D8000C47804B3154C246804F4E064C4F5E0644A
:100D9000210AC1F10403CA40447804FA03F18478BB
:100DA0001440214309010E4C0678A155047804F043
:100DB0001F050124AC4005786D11AD0005F1E0255B
:100DC000C5F8004109E0047804F01F050124AC4097
:100DD000044D0678761145F8264070BD0CED00E014
:100DE00000E400E080E100E070B500240EE00021A6
:100DF000204600F0E0F8002504E0002000F04AF969
:100E0000681CC5B2802DF8DB601CC4B2082CEEDB78
:100E100070BD000008B50121082000F05DF9142024
:100E20008DF8030003208DF802004020ADF800008B
:100E300069460A48FFF786FE8020ADF80000694643
:100E40000648FFF77FFE012240210448FFF764FFB8
:100E5000012280210148FFF75FFF08BD000C01401F
:100E600070B50546002413E08020204100EA050209
:100E700080210E48FFF750FF012240210B48FFF769
:100E80004BFF002240210948FFF746FF601CC4B217
:100E9000082CE9DB012240210448FFF73DFF002236
:100EA00040210248FFF738FF70BD0000000C0140F0
:100EB00010B5012280210948FFF72EFF01224021B1
:100EC0000648FFF729FF002280210448FFF724FF8E
:100ED000002240210148FFF71FFF10BD000C014018
:100EE00010B5002280210748FFF716FF012240219C
:100EF0000448FFF711FF012280210248FFF70CFF91
:100F000010BD0000000C014070B5002406E0002573
:100F100000E06D1CB5F57A7FFBD3641CB4F57A7FD5
:100F2000F5D3FFF777FFAE2000F0A4F8D52000F04E
:100F3000A1F8802000F09EF8A82000F09BF83F2048
:100F400000F098F8D32000F095F8002000F092F817
:100F5000402000F08FF8A12000F08CF8C82000F0AD
:100F600089F8DA2000F086F8122000F083F881205A
:100F700000F080F8CF2000F07DF8D92000F07AF85A
:100F8000F12000F077F8DB2000F074F8302000F05A
:100F900071F8A42000F06EF8A62000F06BF88D2008
:100FA00000F068F8142000F065F8AF2000F062F857
:100FB000FFF71AFF70BD70B505460C4645F0B0004E
:100FC00000F058F8102141EA141000F053F804F032
:100FD0000F0000F04FF870BD2DE9F04105460E46B8
:100FE0001746721ED206110E6A1E5206100EFFF729
:100FF000E2FF002409E0A7F12001134A02EB0111EE
:10100000085D00F047F8601CC4B2082CF3DB721EC8
:10101000D206110E6A1E012303EB4202D0B2FFF783
:10102000CAFF00240BE0A7F12001074A02EB0112DE
:1010300004F10801505C00F02DF8601CC4B2082CCB
:10104000F1DBBDE8F08100008C3300082DE9F041B0
:1010500007460E461546002407E02A5D3019C1B246
:101060003846FFF7B9FF601CC4B2285D0028F4D1F0
:10107000BDE8F08110B50446FFF71AFF7820FFF7AE
:10108000EFFE0020FFF7ECFE2046FFF7E9FEFFF73A
:1010900027FF10BD10B50446FFF70AFF7820FFF7C1
:1010A000DFFE4020FFF7DCFE2046FFF7D9FEFFF70A
:1010B00017FF10BD7047000029B1064AD2690243EC
:1010C000044BDA6104E0034AD2698243014BDA61DE
:1010D000704700000010024029B1064A926902439D
:1010E000044B9A6104E0034A92698243014B9A617E
:1010F000704700000010024030B50021002200249B
:1011000000232D4D6D6805F00C0121B1042905D097
:10111000082923D105E0294D056022E0274D05600F
:101120001FE0254D6D6805F47012234D6D6805F4C0
:101130008034022505EB92421CB9214D55430560D0
:101140000BE01D4D6D6805F400351DB11C4D554378
:10115000056002E0194D5543056002E0174D05603A
:1011600000BF00BF144D6D6805F0F0010909154D71
:101170006B5C0568DD4045600F4D6D6805F4E0610E
:10118000090A104D6B5C4568DD4085600A4D6D684D
:1011900005F46051C90A0B4D6B5C4568DD40C560C4
:1011A000054D6D6805F44041890B074D6B5CC568C2
:1011B000B5FBF3F5056130BD0010024000127A0066
:1011C00000093D00000000201000002070B504461A
:1011D00021460AA001F0C6F922464FF400511048FA
:1011E000FFF79AFD4FF400510D48FFF788FD0546C3
:1011F00029460CA001F0B6F970BD00005B52656C89
:1012000061795D20E7BBA7E794B5E599A832E8AE20
:10121000BEE7BDAEE4B8BA3A2025640D0A0000006E
:10122000000801405B52656C61795D20E7BBA7E770
:1012300094B5E599A832E5AE9EE99985E78AB6E6C8
:1012400080813A2025640D0A0000000008B50121C4
:101250000520FFF741FF4FF4C040ADF8000010201B
:101260008DF8030003208DF8020069460648FFF759
:1012700069FC01210548FFF7F1FC4FF4C041024829
:10128000FFF746FD08BD00000008014000043000E3
:1012900008B501210420FFF71FFF4FF48070ADF85F
:1012A000000010208DF8030003208DF8020069462D
:1012B0000648FFF747FC4FF480710448FFF728FD0C
:1012C0004FF4965001F00AF808BD000000080140F4
:1012D00070B505460E4600244FF480710C48FFF7A8
:1012E00019FD00BF0CE0295D0A4801F034F900BF88
:1012F0004021084801F061F80028F9D0601CC4B210
:10130000B442F0DB4FF480710148FFF701FD70BD7E
:1013100000080140004800400FB410B592B000240E
:101320004FF480711648FFF7F5FC15A80090412195
:1013300001A8009B149A01F039F9002000900EE0FA
:101340002046621CD4B201AA115C0E4801F003F9D8
:1013500000BF40210B4801F030F80028F9D0402CA4
:1013600004DA01A8FEF7E0FEA042E9D84FF480714C
:101370000348FFF7CDFC12B010BC5DF814FB000071
:1013800000080140004800407047000070B501F0BF
:101390008DFD054601F0A0FD04467DB1002C0DDD5C
:1013A00007A001F0DFF8002001E0411C88B2A04254
:1013B000FBDB08A001F0D6F801F09CFD70BD000039
:1013C0005B52533438355D205265636569766564D8
:1013D0003A2000000D0A000010B500F001F810BD21
:1013E0000CB50020019000903348006840F4803034
:1013F0003149086000BF3048006800F400300090B8
:101400000198401C0190009818B90198B0F5A06FA0
:10141000F1D12948006800F4003010B1012000909B
:1014200001E0002000900098012843D12348006883
:1014300040F01000214908600846006820F00300D1
:1014400008600846006840F0020008601A484068DA
:10145000194948600846406848600846406840F4BA
:10146000806048600846406820F47C104860084668
:10147000406840F4E81048600846006840F080701A
:10148000086000BF0C48006800F000700028F9D028
:101490000948406820F00300074948600846406852
:1014A00040F00200486000BF0348406800F00C00B4
:1014B0000828F9D10CBD00000010024000200240B5
:1014C00030B502460B464FF6FF70002112E0545C27
:1014D000604000240AE000F0010525B14AF2010550
:1014E00085EA600000E04010651CECB2082CF2DBDD
:1014F0004C1CE1B29942EADB30BD00002DE9F04F0F
:1015000087B07F480088C0F30D06052E05DA7DA060
:1015100001F028F807B0BDE8F08F314686A001F051
:1015200021F894A001F01EF8002511E09248415DD9
:1015300092A001F017F8681CC11700EB1171091196
:10154000A0EB011111B98FA001F00CF8681C85B255
:10155000B542EBDB77A001F005F8874890F80090E2
:1015600047788AA000F0FEFF494691A000F0FAFFFC
:10157000394694A000F0F6FF032F03D097A000F0A7
:10158000F1FFC7E77C48847821469DA000F0EAFF80
:10159000601DB04203DDA1A000F0E4FFBAE7601DCA
:1015A000C0B206907448069900F0E6FB18B9A5A0F1
:1015B00000F0D8FF03E0A9A000F0D4FFAAE7AEA096
:1015C00000F0D0FF082C71DB03256B49681C085C18
:1015D000495D40EA01284046FEF70AFFAD49019007
:1015E000FEF7A9FD059042464146ABA000F0BAFFC8
:1015F0000598FEF702FF02460B46CDE90001B0A0B8
:1016000000F0B0FF5C49E81C095C5B4AA81C105C58
:1016100041EA00200FFA80FA5046FEF7E0FE9D49AD
:101620000190FEF788FD04901FFA8AF15246AAA0A5
:1016300000F098FF0498FEF7E0FE02460B46CDE965
:101640000001AEA000F08EFF4B49681D095C4A4ABC
:10165000281D105C41EA00200390039A1146ADA0BA
:1016600000F080FFB5A0039900F07CFF4249E81D1F
:10167000095C414AA81D105C41EA002B5846FEF760
:10168000B7FE84490190FEF756FD02905A4659462E
:10169000B1A000F067FF0298FEF7AFFE02460B46CE
:1016A000CDE90001B5A000F05DFF00BFB8A000F0DB
:1016B00059FFBEA000F056FF002512E0E81C2E4A9C
:1016C000115C2EA000F04EFF681CC11700EB517199
:1016D000C910A0EBC10111B9B6A000F043FF681C0E
:1016E000C5B2A542EADB13A000F03CFF201D224B4F
:1016F0001A5CE01C195CB1A000F034FF00BF09E7E0
:101700002E0000200D0A5B536F696C53656E736F7A
:10171000725D20E695B0E68DAEE995BFE5BAA6E428
:10172000B88DE8B6B3EFBC8CE697A0E6B395E8A712
:10173000A3E69E900D0A00000D0A5B536F696C537F
:10174000656E736F725D20E68EA5E694B6E588B08F
:10175000E79A84E58E9FE5A78BE695B0E68DAEEF20
:10176000BC882564E5AD97E88A82EFBC89EFBC9A16
:101770000D0A0000202000009A0200202530325877
:10178000200000000D0A2020000000000D0A5B531D
:101790006F696C53656E736F725D20E8A7A3E69E58
:1017A00090E7BB93E69E9CEFBC9A0D0A00000000F8
:1017B0002020E59CB0E59D803A20307825303258D5
:1017C0000D0A00002020E58A9FE883BDE7A0813A4A
:1017D000203078253032580D0A0000002020E9948E
:1017E00099E8AFAF3A20E58A9FE883BDE7A081E49E
:1017F000B88DE58CB9E9858DEFBC810D0A0000003C
:101800002020E695B0E68DAEE995BFE5BAA63A2070
:101810002564E5AD97E88A820D0A00002020E9944E
:1018200099E8AFAF3A20E695B0E68DAEE995BFE511
:10183000BAA6E4B88DE58CB9E9858DEFBC810D0AB7
:10184000000000002020435243E6A0A1E9AA8C3A00
:1018500020E9809AE8BF870D0A000000202043524B
:1018600043E6A0A1E9AA8C3A20E5A4B1E8B4A5EF2B
:10187000BC810D0A000000000D0A2020E695B0E6AC
:101880008DAEE58685E5AEB9E8A7A3E69E90EFBCF0
:101890009A0D0A000000204120202020E590ABE6B0
:1018A000B0B4E78E87E58E9FE5A78BE580BC3A2034
:1018B00030782530345820282564290D0A0000008E
:1018C00020202020E590ABE6B0B4E78E873A2025B3
:1018D0002E316625250D0A0020202020E6B8A9E536
:1018E000BAA6E58E9FE5A78BE580BC3A2030782527
:1018F00030345820282564290D0A0000202020209B
:10190000E6B8A9E5BAA63A20252E3166E284830D11
:101910000A00000020202020E794B5E5AFBCE78E48
:1019200087E58E9FE5A78BE580BC3A20307825308F
:10193000345820282564290D0A000000202020208A
:10194000E794B5E5AFBCE78E873A20256420757330
:101950002F636D0D0A000000202020205048E580F4
:10196000BCE58E9FE5A78BE580BC3A20307825301A
:10197000345820282564290D0A000000202020204A
:101980005048E580BC3A20252E31660D0A00000043
:101990000D0A2020E68980E69C89E695B0E68DAEAA
:1019A000E5AD97E88A82EFBC9A0D0A00202020203E
:1019B000000000000D0A2020202000000D0A202039
:1019C0004352433136E6A0A1E9AA8CE5928C3A2035
:1019D0002530325820253032580D0A002DE9F04FBD
:1019E00089B006460F469046994600200790089019
:1019F00001208DF81C0003208DF81D0000208DF8BB
:101A00001E008DF81F008DF8200004208DF82100A5
:101A1000062107A8FFF754FD06900698C0B28DF87E
:101A200022000698000A8DF82300002065490880EE
:101A300000BF04E00021644A1154411C88B24028D0
:101A4000F8DB082107A8FFF743FC60A000F08AFD3F
:101A50004FF0000A00250FE00AF1010A012001F011
:101A600067FA58480088C0F30D050D2D04DB2946A0
:101A700063A000F077FD02E0BAF57A7FECD300BFF7
:101A80000D2D07DA29466EA000F06CFD012009B08B
:101A9000BDE8F08F79A000F065FD4FF0000B09E084
:101AA000494810F80B1081A000F05CFD0BF101001B
:101AB0001FFA80FBAB45F3DB50A000F053FD42481A
:101AC0000078012803D140484078032804D079A049
:101AD00000F048FD0220DAE70D213B4800F04CF908
:101AE00020B17DA000F03EFD0320D0E7032436495D
:101AF000601C085C095D40EA012005900598FEF72E
:101B000077FC83467D49FEF716FB30602E49E01CCA
:101B1000095C2D4AA01C105C41EA002000B2049030
:101B20000498FEF75CFC83467449FEF704FB3860BA
:101B30002549601D095C244A201D105C41EA0020F3
:101B400003900398A8F800001146E01D095CA01D51
:101B5000105C41EA002002900298FEF749FC83469F
:101B60006649FEF7E8FAC9F8000065A000F0FAFC43
:101B70003068FEF742FC02460B46CDE9000169A041
:101B800000F0F0FC3868FEF738FC02460B46CDE961
:101B900000016AA000F0E6FCB8F800106CA000F0AC
:101BA000E1FCD9F80000FEF728FC02460B46CDE91F
:101BB00000016DA000F0D6FC00200249088000BFA3
:101BC00065E700002E0000209A0200200D0A5B53FA
:101BD0006F696C53656E736F725D20E5B7B2E58F08
:101BE00091E98081E8AFB7E6B182EFBC8CE7AD89BF
:101BF000E5BE85E5938DE5BA942E2E2E0D0A0000E4
:101C00000D0A5B536F696C53656E736F725D20E6EE
:101C10008EA5E694B6E588B020256420E5AD97E86A
:101C20008A82E695B0E68DAEEFBC8CE5BC80E5A778
:101C30008BE8A7A3E69E902E2E2E0D0A0000000032
:101C40000D0A5B536F696C53656E736F725D20E8AC
:101C5000AFBBE58F96E8B685E697B6EFBC8CE58F0F
:101C6000AAE694B6E588B020256420E5AD97E88A19
:101C700082E695B0E68DAE0D0A0000000D0A5B53BA
:101C80006F696C53656E736F725D20E68EA5E69486
:101C9000B6E588B0E79A84E58E9FE5A78BE695B018
:101CA000E68DAEEFBC9A0D0A0000000025303258D8
:101CB000200000000D0A5B536F696C53656E736FF3
:101CC000725D20E5938DE5BA94E6A0BCE5BC8FE992
:101CD0009499E8AFAF0D0A000D0A5B536F696C531E
:101CE000656E736F725D20435243E6A0A1E9AA8C32
:101CF000E5A4B1E8B4A50D0A0000000000002041F1
:101D00000D0A5B536F696C53656E736F725D20E8EB
:101D1000AFBBE58F96E68890E58A9FEFBC9A0D0AE7
:101D2000000000002020E590ABE6B0B4E78E873AD3
:101D300020252E316625250D0A0000002020E6B85A
:101D4000A9E5BAA63A20252E3166E284830D0A0061
:101D50002020E794B5E5AFBCE78E873A20256420C4
:101D600075732F636D0D0A0020205048E580BC3A42
:101D700020252E31660D0A00F0B505460C46032CD1
:101D800001DA0120F0BDA01E295C601E285C41EA3A
:101D90000027A01EC1B22846FFF792FB0646B742B5
:101DA00001D00120EEE70020ECE7042808D14FF035
:101DB000E021096941F004014FF0E022116107E0E0
:101DC0004FF0E021096921F004014FF0E022116198
:101DD0007047704710B51348006840F00100114982
:101DE000086008464068104908400E4948600846A7
:101DF00000680E4908400B4908600846006820F456
:101E0000802008600846406820F4FE0048604FF4D7
:101E10001F008860FFF7E0FA4FF000600449086097
:101E200010BD0000001002400000FFF8FFFFF6FEAA
:101E300008ED00E010B50121880700F076F80028D1
:101E400027D00121880700F061F800214FF0804081
:101E500000F05FF80F48008820F4004000F50040D3
:101E60000C4908800C480088C0F30D04002C0ADDE2
:101E70000948008840F4004007490880214607A02F
:101E800000F070FB02E014A000F06CFBFFF77EFA9C
:101E900000BF10BD280000202E0000200D0A5B545A
:101EA000494D325D20E8B685E697B6E8A7A6E58FEE
:101EB00091EFBC8CE8AEBEE7BDAEE68EA5E694B66B
:101EC000E5AE8CE68890E6A087E5BF97EFBC8C6C0A
:101ED000656E3D25640D0A000D0A5B54494D325D67
:101EE00020E8B685E697B6E8A7A6E58F91EFBC8C0B
:101EF000E4BD86E6B2A1E69C89E68EA5E694B6E549
:101F000088B0E695B0E68DAE0D0A0000CA430282A5
:101F1000704721B1028842F00102028004E0028889
:101F20004FF6FE731A400280704730B5024600201B
:101F300000230024158A05EA0103958905EA0104B6
:101F400013B10CB1012000E0002030BD8184704746
:101F50001FB501210520FFF7BFF80D20ADF80C00DB
:101F600048208DF80F0003A92448FEF7EBFD00215F
:101F70000846FEF7C7FD02210020FEF7C3FD03213E
:101F80000020FEF7BFFD0120019000208DF8080021
:101F90000C208DF8090001208DF80A0001A8FEF739
:101FA00067FD0420019001A8FEF762FD0820019062
:101FB00001A8FEF75DFD06208DF8000001208DF8D8
:101FC00001008DF802008DF803006846FEF7D4FE8C
:101FD00008208DF8000002208DF801008DF8020025
:101FE0006846FEF7C9FE09208DF800006846FEF736
:101FF000C3FE03A000F0B6FA1FBD000000080140B8
:102000005B546F756368204B65795D20E5A496E9A4
:1020100083A8E4B8ADE696ADE5889DE5A78BE58C91
:1020200096E5AE8CE688900D0A00000008B50F20FA
:10203000ADF8000048208DF8030069460148FEF71E
:1020400081FD08BD0008014010B501212C48FEF7B4
:102050004DFE80B90A2000F06BFF01212848FEF7F1
:1020600045FE40B900BF01212548FEF73FFE00288C
:10207000F9D0012010BD02212148FEF737FE80B9BA
:102080000A2000F055FF02211D48FEF72FFE40B93F
:1020900000BF02211A48FEF729FE0028F9D00220CD
:1020A000E8E704211648FEF721FE80B90A2000F077
:1020B0003FFF04211248FEF719FE40B900BF04217A
:1020C0000F48FEF713FE0028F9D00320D2E70821BD
:1020D0000B48FEF70BFE80B90A2000F029FF08210B
:1020E0000748FEF703FE40B900BF08210448FEF789
:1020F000FDFD0028F9D00420BCE70020BAE700006D
:102100000008014010B540F225511D4800F062F969
:1021100010B31B4800F01AFAC4B21A48008800F441
:102120000040C8B91748008800F4804060B10A2C0C
:1021300003D000201349088020E01248008840F4B2
:1021400000401049088019E00D2C06D10D48008888
:1021500040F480400B49088010E00A480088C0F332
:102160000D0009490C5407480088401C05490880A7
:1021700008460088C72801DD0020088010BD000047
:1021800000380140240000204800002010B54FF422
:102190005871484800F01EF938B14FF4587145485D
:1021A00000F0F0F8434800F0D1F940F225514148E1
:1021B00000F010F9002856D03E4800F0C7F9C4B22C
:1021C00021463DA000F0CEF93D48008800F40040D3
:1021D00080B93B480088C0F30D003A490C54384898
:1021E0000088401C36490880084600883F2801DDE9
:1021F0000020088034480088C0F30E00FF281DDA54
:1022000000214FF08040FFF7A1FE2F480088C0F367
:102210000E0018B901218807FFF77BFE2A480088C5
:10222000C0F30E0029490C5427480088401C264959
:10223000098860F30E012448018014E022480088D8
:102240006FF30E002049088008460088C0F30E0096
:102250001E490C541C480088401C1B49098860F327
:102260000E011948018040F22771124800F0B2F8BF
:10227000F0B11748008817490988884212D01648DB
:10228000144A1288815C0B4800F065F911490988ED
:10229000481CC11700EB5161C911A0EBC1110D4AD7
:1022A000118005E0002240F22771024800F0BCF8DE
:1022B00010BD0000004800402530325820000000CA
:1022C0002E0000209A02002028000020100100208B
:1022D0002A0000202C0000201002002010B586B03B
:1022E000044601210820FEF7F7FE01218804FEF7CD
:1022F000E3FE4FF40060ADF8140004208DF81700E1
:1023000005A91E48FEF71EFC4FF48060ADF81400CE
:1023100003208DF8160018208DF8170005A917481E
:10232000FEF710FC01940020ADF80800ADF80A009B
:10233000ADF80C00ADF810000C20ADF80E0001A9AE
:102340000F4800F097F8012240F225510C4800F0A8
:102350006BF801210A4800F024F827208DF80000CE
:1023600002208DF801008DF8020001208DF8030095
:102370006846FEF701FD06B010BD0000000C0140EC
:102380000048004010B50022002340F66A14A14224
:1023900000D100BF0A1201249440A3B2DC430480A0
:1023A00010BD21B1828942F40052828104E0828909
:1023B0004DF6FF731A408281704702460020B1F546
:1023C000007F00D100BF13880B400BB1012000E05B
:1023D0000020704770B5024600240023002500202D
:1023E00040F66A16B14200D100BFC1F3421501F0B8
:1023F0001F03012606FA03F3012D02D1968933400B
:1024000006E0022D02D1168A334001E0968A33405D
:102410000C12012606FA04F41688344013B10CB1EC
:10242000012000E0002070BDF0B503460024002626
:102430000025002040F66A17B94200D100BF1846B7
:10244000C1F3421401F01F06012707FA06F5012C1B
:1024500001D10C3004E0022C01D1103000E0143026
:102460001AB107682F43076002E00768AF430760AF
:10247000F0BD00002DE9F04786B005460E46002469
:10248000A24600BFA1460027B08900B100BF2F4679
:102490002C8A4CF6FF700440F08804432C82AC89EF
:1024A0004EF6F3100440B08831890843718908431F
:1024B0000443AC81AC8A4FF6FF400440B08904432A
:1024C000AC8201A8FEF718FE1F48874202D1DDF852
:1024D00010A001E0DDF80CA0A88900F4004040B194
:1024E0000AEBCA0000EB0A1031684900B0FBF1F8B2
:1024F00007E00AEBCA0000EB0A1031688900B0FB64
:10250000F1F86420B8FBF0F004012009642101FB1C
:102510001089A88900F4004040B1322000EBC900C6
:10252000B0FBF1F000F00700044308E0322000EBBC
:1025300009106421B0FBF1F000F00F0004432C817E
:1025400006B0BDE8F08700000038014001468888E9
:10255000C0F308007047C1F308028280704700BFD3
:10256000FEE700000FB4054B10B503A9044A02981A
:1025700000F008F910BC5DF814FB0000852F00087E
:10258000200000200FB4084B10B504A902AA03983C
:1025900000F0F8F8044602A9002000F081FC204673
:1025A00010BC5DF814FB0000A12E00087CB50C00E7
:1025B0001D461646014601D0601E00E00020CDE910
:1025C0000010064B6A462946304600F0DBF8002C26
:1025D00002D0009A002111707CBD00008B2E0008F3
:1025E00002E008C8121F08C1002AFAD170477047DC
:1025F000002001E001C1121F002AFBD1704700003A
:102600002DE9FF5F82B00021DDE90430020DDDF825
:1026100040B0034318D044F61050A2F2FF324243B8
:102620001514119801281FD0A5EB0B00401C5FEA80
:10263000000A4FF000064E4FDFF83891B046504682
:1026400015D5CAF1000413E0119801244AA301280A
:1026500001D16FEA0B010298119AC0E90031C0E97B
:10266000024206B0BDE8F09FCBF10000DFE7044670
:102670000021404A491842EB0450CDE9001012E015
:10268000E00707D032463B4640464946FDF7C4FFC7
:102690008046894632463B4610461946FDF7BCFF48
:1026A00006460F466410002CEAD1DDE90401DDE99D
:1026B0000023BAF1000F06DAFDF7AEFF42464B46A3
:1026C000FDF7AAFF05E0FDF71BFE42464B46FDF76E
:1026D00017FE04460E460022284BFEF727F803D8C3
:1026E0004FF0FF30014607E00022254B20463146DF
:1026F000FDF75FFDFEF702F8102409E0002C0ADB6D
:102700000A220023FDF7A2FE039B30321A55641EF5
:1027100050EA0102F2D1641C039AC4F1110314447B
:10272000119A012A03D0012208430DD10AE008437F
:1027300004D000204FF0110B119072E7A3EB0B05B2
:102740006D1E0DE05B4504DD4FF0000205F1010553
:1027500004E003DA4FF00002A5F10105002AECD0F5
:1027600002981199C0E90231C0E9004579E70000FB
:10277000000014400000F03F300000000000F04373
:102780000000E03F2DE9FF4F95B09A468846064687
:102790000025EEE1252877D100242746F94A0121BA
:1027A000039400E0044316F8013F203B01FA03F0D4
:1027B0001042F7D130782A2811D06FF02F033078EB
:1027C000A0F13002092A16D8039A44F0020402EB61
:1027D000820203EB42021044761C0390EFE758F8A4
:1027E000042B0392002A03DA504244F4005403906D
:1027F00044F00204761C30782E2816D116F8010F0A
:1028000044F004042A280DD06FF02F023078A0F194
:102810003003092B09D807EB870302EB4303C718E2
:10282000761CF3E758F8047B761C30786C280FD0C0
:1028300006DC4C2817D068280DD06A2814D104E093
:10284000742810D07A280FD10DE044F400140AE067
:1028500044F4801401E044F440147278824202D1BE
:1028600004F58014761C761C307866280BD013DCB7
:10287000582877D009DC002875D04528F6D046289E
:10288000F4D047281AD193E118E0632835D06428A2
:1028900079D0652812D18BE1702873D008DC6728C5
:1028A000F1D069286FD06E280DD06F2806D1ACE02A
:1028B00073282CD0752874D0782853D05246179995
:1028C00090476D1C54E1C4F30250022809D003283C
:1028D0000DD0D8F8001004280DD00D6008F10408C0
:1028E00046E1D8F80010EA17C1E90052F6E7D8F837
:1028F00000100D80F2E70D70F0E718F8041B8DF85A
:10290000001000208DF80100EB46012003E058F88C
:1029100004BB4FF0FF3061074FF0000102D40DE01F
:1029200009F101018946B9420FDA8145F8DB1BF84C
:1029300009100029F4D108E009F10101894681421A
:10294000FADB1BF809100029F6D103985346A0EBD7
:10295000090721463846179A00F080FA284400EB10
:10296000090507E044E008E10DE01BF8010B5246C1
:1029700017999047B9F10109F7D2534621463846D5
:10298000179AF2E039E00A21C4F302524FF0000B2B
:102990000091022A06D058F8040BC117032A09D067
:1029A0000AE023E008F1070020F00702F2E8020144
:1029B000904605E000B2C117042A01D140B2C11708
:1029C000002906DA0A460021404261EB02012D226D
:1029D00002E0220504D52B228DF80420012203E019
:1029E000E20701D02022F7E7914657E00A2100E0F4
:1029F00010214FF0000B00910BE010214FF0000B65
:102A000044F004040827009103E008204FF0000B75
:102A10000090C4F30252022A05D058F8040B00219A
:102A2000032A08D008E008F1070020F00702F2E8C6
:102A30000201904603E080B2042A00D1C0B24FF0F8
:102A4000000922072AD53278702A07D0DDF800C0A5
:102A50008CF0100C5CEA0B0C05D00EE040228DF8D7
:102A60000420012208E050EA010306D030238DF84B
:102A700004308DF8052002229146009B83F0080364
:102A800053EA0B030AD150EA010201D1620705D5CE
:102A900030228DF804204FF001097F1E3278582A29
:102AA00004D039A20C920CAA02920BE03BA2F9E7E7
:102AB0005B46009AFDF7CAFC0C9B9B5C029A521E77
:102AC0000292137050EA0102F2D1029804A9081A86
:102AD00000F1200B600702D524F4803400E00127C8
:102AE0005F4502DDA7EB0B0000E0002000EB0B01CF
:102AF000009003984944401A0390E00306D45346DB
:102B00002146179A039800F0A9F90544002706E02A
:102B100001A85246C05D179990476D1C7F1C4F4518
:102B2000F6DBE0030CD553462146179A039800F0D4
:102B300095F9054404E030205246179990476D1CE2
:102B40000099481E00900029F5DC08E002980299DF
:102B500052460078491C0291179990476D1CBBF1B1
:102B60000001ABF1010BF1DC5BE100F065F905441C
:102B7000761C307800287FF40DAE19B02846BDE8E9
:102B8000F08F0000092801003031323334353637F8
:102B900038396162636465660000000030313233A9
:102BA0003435363738394142434445460000000049
:102BB000600700D4062708F1070020F00700F0E8BE
:102BC0000223804603F0004C5FEA0C0001D097A07E
:102BD00009E0200501D596A005E0E00701D095A009
:102BE00001E0AFF24C001390307823F000436528E9
:102BF0000CD006DC452809D046281DD047287FD1B7
:102C00003BE0662818D067287AD136E00021112FE2
:102C100001DB112000E0781CCDE9000104A90CA81B
:102C2000FFF7EEFCDDE90D010C9A4FF0000B07F108
:102C30000109109200914EE04FF000400097CDE95D
:102C4000011004A90CA8FFF7DBFCDDE90D020C9BC9
:102C50000F994FF0000B91461093009211B9791C17
:102C600000EB0109B7EB090003D4C0F1FF3B07F10A
:102C70000109A9EB0700019042E0012F00DA0127CA
:102C80000021112F01DD112000E03846CDE90001BF
:102C900004A90CA8FFF7B4FCDDE90D010C9A009122
:102CA0004FF0000BB946109221070FD4009A4A4505
:102CB00003DA914601E0A9F10109B9F1010F05DD3F
:102CC000109AA9F10101515C3029F4D0B84202DA1E
:102CD00010F1040F03DA0121CDE9011010E0002802
:102CE00003DC8344A9EB000102E0411C494500DDFF
:102CF0008946A0EB0B00401C01904FF00040029071
:102D0000200705D40198484502DB4FF0FF300190C1
:102D100000208DF84B0002980DF14B07B0F1004FE9
:102D200025D002200C902B200D90029800280CDA60
:102D3000404202902D200D9007E00A210298FDF7F5
:102D40006FFB3031029007F8011D0C99481E0C9062
:102D50000029F2DC02980028EFD1791E0D98087046
:102D6000307800F0200040F0450007F8020D11A86F
:102D7000C01BC01D02901398007800B1012000EB29
:102D80000901019801EBE071029801440398401A8F
:102D9000401E0390E00306D453462146179A039839
:102DA00000F05CF805441398007818B15246179962
:102DB00090476D1CE00323D553462146179A03988C
:102DC00000F04CF805441BE0BBF1000F07DB009856
:102DD000584504DD1098179910F80B0001E0179979
:102DE00030205246904701980BF1010B401E05F12F
:102DF0000105019004D12E205246179990476D1C71
:102E0000B9F10001A9F10109DEDC05E017F8010BB9
:102E10005246179990476D1C0299481E029000294E
:102E2000F4DC53462146179A03989EE62D000000D5
:102E30002B000000200000002DE9F0410446002591
:102E40001E461746880404D405E039462020B047C2
:102E50006D1C641EF9D52846BDE8F0812DE9F041CE
:102E6000044600251E469046C80301D5302700E0E1
:102E70002027880404D505E041463846B0476D1C3C
:102E8000641EF9D52846BDE8F0814A68002A06D0BC
:102E90000A68531C0B6010704868401E48607047F9
:102EA0000A68531C0B6010707047000008480088C7
:102EB0000121B1EBD03F08D1002005490988C1F3B9
:102EC0000E01044A5054104670470020FCE70000F1
:102ED000280000201001002005480088C00B20B108
:102EE00003480088C0F30E0070470020FCE7000094
:102EF00028000020054800886FF30E000349088071
:102F00000846008820F40040088070472800002010
:102F100010B504466FF00400FEF747FF2046E117A6
:102F200004EB5171C910014A116010BD140000205A
:102F30000146134A12684A434FF47A735A434FF0DA
:102F4000E0235A6100229A611A46126942F0010296
:102F50001A6100BF4FF0E022106900F001021AB1BF
:102F600000F48032002AF5D04FF0E022126922F0FE
:102F700001024FF0E0231A6100229A6170470000BD
:102F80001400002000BF054A128802F08002002AC7
:102F9000F9D0C2B2014B1B1D1A80704700380140A6
:102FA0008EB04820FFF7B4FF4FF4E13000F09EF9F7
:102FB000FEF76EF9FDF7A8FFFDF7B6FEFEF746F93E
:102FC000FFF734F8FEF7C4FFDFE070480068401CEC
:102FD0006E490860FFF738F80446032C1AD1012027
:102FE000FEF7F4F86A48FFF7BDFA6AA20121084625
:102FF000FEF72CF86AA201210220FEF727F86AA248
:1030000001210320FEF722F86BA201210420FEF724
:103010001DF838E0042C1AD10020FEF7D7F86948D3
:10302000FFF7A0FA5BA201210846FEF70FF866A29F
:1030300001210220FEF70AF85BA201210320FEF71E
:1030400005F863A201210420FEF700F81BE0012C23
:1030500019D162A0FEF760F963A0FFF783FA72A2AC
:1030600001210846FDF7F2FF71A201210220FDF7C0
:10307000EDFF71A201210320FDF7E8FF71A20121FC
:103080000420FDF7E3FF414800684FF4FA61B0FB0C
:10309000F1F201FB1200002873D10AAB0BAA0CA9B4
:1030A0000DA8FEF79BFC8146B9F1000F4AD10A98A2
:1030B000FDF7A3F905460E460C98FDF79EF9074665
:1030C00088460D98FDF799F98246CDE90456BDF87A
:1030D0002C0052460B46CDE9007802905C48FFF781
:1030E00041FA5CA201210846FDF7B0FF5DA2012173
:1030F0000220FDF7ABFF0C98FDF77FF905460E4661
:103100000D98FDF77AF907463A460B4658A106A8EE
:10311000CDE90056FFF736FA06AA01210320FDF794
:1031200095FF0A98FDF769F9CDE90001BDF82C205B
:1031300054A106A8FFF726FA06AA01210420FDF7EC
:1031400085FF1DE0494653A0FFF70CFA41A201217B
:103150000846FDF77BFF5BA201210220FDF776FF09
:103160005CA201210320FDF771FF4A465DA107A87B
:10317000FFF708FA07AA01210420FDF767FF00BF47
:1031800000BF0120FFF7D4FE00BF1EE73000002083
:103190007C390008202052656C61792032000000E3
:1031A00020204F4E000000002020576174657220DF
:1031B00050756D70000000002020506F77657265BB
:1031C00064000000C039000820204F46460000007F
:1031D000202053746F7070656400000001030001CB
:1031E00003003DCC000000005B53797374656D5D96
:1031F00020E8A7A6E691B8E68C89E994AE41E68C72
:1032000089E4B88BEFBC8CE58F91E98081E59C9FC8
:10321000E5A3A4E4BCA0E6849FE599A8E8AFB7E6DF
:10322000B1820D0A000000002020525334383500CE
:10323000202053656E64000020205265717565730F
:1032400074000000202053756363657373000000F1
:103250000C3A00082020536F696C2053656E736F21
:1032600072000000202052656164204F4B00000076
:1032700020204D3A252E3066252520543A252E3023
:1032800066430000202045433A25642050483A25F3
:103290002E3166005B536F696C2053656E736F72DD
:1032A0005D20E8AFBBE58F96E5A4B1E8B4A5EFBC1F
:1032B0008CE99499E8AFAFE7A0813A2025640D0A24
:1032C00000000000202052656164204661696C6541
:1032D0006400000020204572726F7220436F6465A5
:1032E0003A000000202025640000000010B50446CC
:1032F00001210420FDF7F0FE01210420FDF7ECFE82
:1033000001218803FDF7E8FE4FF400701A49088098
:103310001820C870032088701848FDF713FC4FF47C
:103320008060154908802820C8701448FDF70AFC01
:1033300013480460002012498880C8800881888171
:103340000C2048810F48FFF795F801210D48FFF741
:1033500028F825200C490870032048708870012047
:10336000C8700846FDF708FD012240F225510548C6
:10337000FFF75AF810BD00001800002000080140B7
:1033800038000020003801401C0000200000000030
:10339000000000000000000000000000000000F835
:1033A00000000000000000333000000000100C0698
:1033B000100C0600000000000000000040C0784033
:1033C000C0784000043F04043F040400007088FCFF
:1033D00008300000001820FF211E0000F008F00057
:1033E000E018000000211C031E211E0000F00888C8
:1033F000700000001E2123241927211010160E0032
:10340000000000000000000000000000000000E0DC
:1034100018040200000000071820400000020418F1
:10342000E00000000040201807000000404080F04D
:10343000804040000202010F01020200000000F083
:10344000000000000101011F010101000000000057
:103450000000000080B070000000000000000000CC
:103460000000000000010101010101010000000055
:1034700000000000003030000000000000000000EC
:1034800080601804006018060100000000E01008C9
:103490000810E000000F102020100F00001010F89E
:1034A000000000000020203F2020000000700808DD
:1034B000088870000030282422213000003008885D
:1034C000884830000018202020110E000000C02085
:1034D00010F8000000070424243F240000F80888A6
:1034E000880808000019212020110E0000E0108833
:1034F00088180000000F112020110E000038080865
:10350000C83808000000003F000000000070880874
:1035100008887000001C222121221C0000E01008F5
:103520000810E0000000312222110F00000000C04E
:10353000C0000000000000303000000000000080EB
:1035400000000000000080600000000000008040DB
:1035500020100800000102040810200040404040F4
:103560004040400004040404040404000008102047
:10357000408000000020100804020100007048088C
:103580000808F0000000003036010000C030C828F4
:10359000E810E0000718272423140B000000C038AF
:1035A000E0000000203C23020227382008F8888829
:1035B00088700000203F202020110E00C030080835
:1035C00008083800071820202010080008F808080C
:1035D0000810E000203F202020100F0008F8888805
:1035E000E8081000203F20202320180008F88888D1
:1035F000E8081000203F200003000000C030080849
:103600000838000007182020221E020008F80800D1
:103610000008F808203F210101213F20000808F898
:10362000080800000020203F2020000000000808BB
:10363000F8080800C08080807F00000008F888C07B
:1036400028180800203F20012638200008F808002C
:1036500000000000203F20202020300008F8F80063
:10366000F8F80800203F003F003F200008F830C075
:103670000008F808203F200007183F00E010080865
:103680000810E0000F10202020100F0008F8080894
:103690000808F000203F210101010000E0100808A7
:1036A0000810E0000F18242438504F0008F88888CC
:1036B00088887000203F2000030C302000708808AC
:1036C000080838000038202121221C00180808F8BA
:1036D000080818000000203F2000000008F808003B
:1036E0000008F808001F202020201F00087888000C
:1036F00000C83808000007380E010000F80800F87C
:103700000008F800033C0700073C03000818688025
:103710008068180820302C03032C30200838C8009B
:10372000C83808000000203F2000000010080808EA
:10373000C83808002038262120201800000000FE8C
:10374000020202000000007F40404000000C30C038
:1037500000000000000000010638C0000002020264
:10376000FE000000004040407F0000000000040216
:103770000202040000000000000000000000000041
:103780000000000080808080808080800002020431
:103790000000000000000000000000000000808029
:1037A000808000000019242222223F2008F8008097
:1037B00080000000003F112020110E00000000805A
:1037C00080800000000E11202020110000000080E9
:1037D0008088F800000E112020103F20000080801B
:1037E00080800000001F222222221300008080F02F
:1037F000888888180020203F20200000000080805A
:1038000080808000006B94949493600008F800809E
:1038100080800000203F210000203F2000809898F9
:10382000000000000020203F202000000000008059
:103830009898000000C08080807F000008F8000099
:1038400080808000203F24022D302000000808F8EE
:10385000000000000020203F2020000080808080A9
:1038600080808000203F20003F20003F808000803B
:1038700080800000203F210000203F200000808049
:1038800080800000001F202020201F0080800080FA
:103890008000000080FFA12020110E0000000080A9
:1038A00080808000000E112020A0FF80808080009A
:1038B0008080800020203F212000010000008080C7
:1038C000808080000033242424241900008080E0BC
:1038D000808000000000001F202000008080000089
:1038E00000808000001F202020103F20808080006A
:1038F0000080808000010E3008060100808000807A
:10390000008080800F300C030C300F00008080009E
:10391000808080000020312E0E31200080808000C9
:103920000080808080818E70180601000080808079
:10393000808080000021302C222130000000000017
:10394000807C020200000000003F404000000000B8
:10395000FF00000000000000FF0000000002027CE9
:10396000800000000040403F000000000006010110
:103970000202040400000000000000005B537973A1
:1039800074656D5D20E8A7A6E691B8E68C89E99498
:10399000AE43E68C89E4B88BEFBC8CE68993E5BC3A
:1039A00080E7BBA7E794B5E599A832EFBC88E6B0FD
:1039B000B4E6B3B5E4BE9BE794B5EFBC890D0A004D
:1039C0005B53797374656D5D20E8A7A6E691B8E650
:1039D0008C89E994AE44E68C89E4B88BEFBC8CE525
:1039E00085B3E997ADE7BBA7E794B5E599A832EFB2
:1039F000BC88E5819CE6ADA2E6B0B4E6B3B5E4BE12
:103A00009BE794B5EFBC890D0A0000005B536F691A
:103A10006C2053656E736F725D20E590ABE6B0B4B9
:103A2000E78E873A20252E316625252C20E6B8A979
:103A3000E5BAA63A20252E3166E284832C20E7944D
:103A4000B5E5AFBCE78E873A2025642075732F63F8
:103A50006D2C2050483A20252E31660D0A000000BA
:103A6000803A00080000002038000000E02500082F
:103A7000B83A000838000020A8060000F025000829
:103A80000000000001020304010203040607080904
:103A90000204060800000000000000000000000012
:103AA0000000000000000000000000000000000016
:083AB00000000000000000000E
:04000005080000ED02
:00000001FF
