:020000040800F2
:10000000D806002005010008551600083B15000819
:1000100051160008AB0F000823290008000000005B
:10002000000000000000000000000000F91B0008B4
:100030002911000800000000951900085722000847
:100040001F0100081F0100081F0100081F01000810
:100050001F0100081F0100082D1100081F010008E2
:10006000A9110008691200081F0100081F010008FB
:100070001F0100081F0100081F0100081F010008E0
:100080001F0100081F0100081F0100081F010008D0
:100090001F0100081F0100081F0100081F010008C0
:1000A0001F0100081F0100081F0100081F010008B0
:1000B000B92200081F0100081F0100081F010008E5
:1000C0001F0100081F0100081F0100081F01000890
:1000D0001F010008A52400082D250008352600086A
:1000E0001F0100081F0100081F010008DFF810D0E1
:1000F00000F0CEFC00480047C9410008AFF3008083
:10010000D80600200648804706480047FEE7FEE77D
:10011000FEE7FEE7FEE7FEE7FEE7FEE7FEE7FEE7B7
:1001200059220008ED000008D2B201E000F8012BCE
:10013000491EFBD270470022F6E710B513460A4667
:1001400004461946FFF7F0FF204610BD30B50546BE
:100150002A460B4612F8010B13F8014B08B1A042D6
:10016000F8D01CB1002802D06D1CF1E7284630BD44
:10017000421C10F8011B0029FBD1801A70470000B7
:100180000FB400B58DB010A909900B9000914FF0FD
:10019000FF300A9000200C90054806900548079013
:1001A0006A4609A80F9900F00FFB0DB05DF814FB2B
:1001B000E5070008030800082DE9FF5F1D464FF022
:1001C000FF3BD5E9014691465F464FF00008A9691B
:1001D0007F1C01988847296A824688470028F6D103
:1001E000BAF1FF3F0CD024F4C064002E19DD600684
:1001F00014D5BAF12B0F09D0BAF12D0F0ED103E0AF
:10020000584604B0BDE8F09F44F48064A9697F1C9F
:1002100001988847761E8246002E02DDBAF1300F23
:1002200003D0B9F1000F26D032E0A969761E44F45C
:1002300000747F1C019888478246002E05DDBAF1C4
:10024000780F06D0BAF1580F03D0B9F1000F10D0D3
:100250001EE0B9F1000F02D0B9F1100F18D1A96951
:10026000761E24F400747F1C019888478246102073
:1002700002E0082000E00A20814609E008FB0908A6
:10028000A969761E44F400747F1C01988847824651
:10029000002E05DD4946504600F081FA0028EDDACF
:1002A000E96901988847A00502D46FF00100A8E72A
:1002B000E00725D1600613D5600502D5C8F100001E
:1002C00000E0404629680A1D2A600968220501D518
:1002D000087015E0220701D5088011E008600FE0E2
:1002E0002868011D29600068210502D580F800807A
:1002F00006E0210702D5A0F8008001E0C0F80080E8
:1003000038467EE72DE9FF5FD2E901A74FF00008EC
:10031000916999461446DDF838B0464601988847F9
:10032000054659EA0B0005D009E0A169761C019841
:1003300088470546216A284688470028F5D1681C69
:1003400003D05FEACA7005D015E04FF0FF3004B06B
:10035000BDE8F09F2068011D2160D0F800800AE010
:100360005FEACA7001D108F8015BA169761C7F1EA3
:10037000019888470546002F1ADD681C18D0B9F18E
:10038000000F0DD0E81705EBD060421120F01F00E0
:1003900059F822102A1A012090400142E0D107E0CA
:1003A000BBF1000FDCD1216A284688470028D7D04E
:1003B000E16901988847BBF1000F07D1002E05DDE8
:1003C0005FEACA7002D1002188F80010A068B84224
:1003D00003DDBBF1000F03D017B16FF00100B6E7EA
:1003E0003046B4E730B480EA010202F0004530F054
:1003F000004221F0004013D090B1C30DD40DC2F3E0
:100400001601C0F31600E41A41F4000140F40002A2
:100410007D34914201D3641C00E04900002C02DAD3
:1004200030BC002070474FF400000023914201D3FC
:10043000891A034340084FEA4101F7D151B1914273
:1004400002D14FF0004105E002D24FF0010101E07E
:100450006FF0010103EBC450284430BC00F0E2B956
:100460002DE9FE4F804681EA0300C00F0C46009044
:1004700021F0004123F00045B8EB0200A94105D26C
:100480004046214690461C460B46024623F000405B
:10049000104347D0270DC7F30A00C3F30A51029057
:1004A000401A019040286BDAC3F3130040F4801B1C
:1004B0000098924620B10023D2EB030A63EB0B0BAA
:1004C00001985946C0F14002504600F047F90646EF
:1004D0000D4650465946019A00F04FF910EB0800BE
:1004E0006141002487EA115284EAE7731A4340D03D
:1004F000009A62B3019A012A4FEA075215DC001BE9
:1005000061EB02014FF0004202EA0752CDE90042DE
:10051000001C41F5801132462B4600F0C9F903B0AA
:10052000BDE8F08F40462146F9E7001B61EB020170
:10053000001C41F5801300185B412018A2F500173C
:1005400047EB030140EAD570B6196D4111E06D0823
:100550004FEA360645EAC0754FEA0752001B61EBC9
:100560000201001C41F5801149084FEA30000019D2
:10057000514132462B4603B0BDE8F04F00F089B937
:100580000098012240000023D0EB020263EBE073ED
:10059000009821464FEAE074B8EB000061EB0401DB
:1005A000E9E783F000435BE781F0004158E72DE97C
:1005B000F04D81EA030404F0004B21F0004514469D
:1005C0004FF0000A23F0004150EA050220D054EA1F
:1005D00001021DD0C5F30A570246C5F31303C1F348
:1005E0001300C1F30A5640F4801543F48013A7EBBF
:1005F0000608101BD64608F2FD3873EB050002D33F
:1006000008F1010801E092185B41B8F1000F03DA2C
:1006100000200146BDE8F08D00204FF48011064611
:1006200084460EE0171B73EB050705D3121B63EB23
:10063000050306434CEA010C49084FEA30009218C2
:100640005B4150EA0107EDD152EA030012D082EA81
:10065000040083EA0501084305D0101BAB4106D214
:100660000122002306E000224FF0004302E06FF079
:10067000010253101AEB06004CEB085110EB0A0074
:1006800041EB0B01BDE8F04D00F003B9C10F80EA6A
:10069000E0700844CA079623002100F0CCB89623E6
:1006A0000022114600F0C7B800F0004230F00040D0
:1006B0000AD0C10D01F56071C0F3160042EA015184
:1006C000C20840071143704700200146704730B50B
:1006D0000B46014600202022012409E021FA02F500
:1006E0009D4205D303FA02F5491B04FA02F528449A
:1006F000151EA2F10102F1DC30BD2DE9F05F0546C7
:10070000002092469B4688460646814640241BE0D0
:10071000284641464746224600F0CCF953465A4601
:10072000C01A914110D311461846224600F016F81F
:100730002D1A67EB01084F4622460120002100F0E8
:100740000DF817EB00094E41201EA4F10104DFDC77
:10075000484631462A464346BDE8F09F202A04DB3E
:10076000203A00FA02F1002070479140C2F12003C4
:1007700020FA03F3194390407047202A06DBCB1779
:10078000203A41FA02F043EAE07306E041FA02F34C
:10079000D040C2F1200291400843194670473A28E0
:1007A00000D2303820F02002412A01D3A2F13700D4
:1007B000884201D34FF0FF307047000002681144B7
:1007C0001378016018467047D160044951610449AB
:1007D000116200211161114600F08AB9BD070008BD
:1007E000DD0A0008426842B1016811F8013B23B1FB
:1007F000521EC0E90012184670470121C160881ED0
:10080000704742685AB1C368016843B983688B4234
:1008100005D0491E521CC0E90012002070474FF05D
:10082000FF3070470029A8BF7047401C490008BF2F
:1008300020F00100704710B4B0FA80FC00FA0CF010
:1008400050EA010404BF10BC704749B1CCF1200448
:1008500021FA04F411FA0CF118BF012121430843D5
:10086000A3EB0C01CB1D4FEA00614FEA102042BF01
:10087000002010BC704700EBC35010440029A4BFF7
:1008800010BC7047401C490008BF20F0010010BC9C
:10089000704710B5141E73F1000408DA401C41F1D2
:1008A000000192185B411A4301D120F0010010BDF4
:1008B0002DE9F04D92469B4611B1B1FA81F202E06A
:1008C000B0FA80F220329046FFF748FF04460F4608
:1008D00040EA0A0041EA0B0153465A46084313D046
:1008E000114653EA010019D0C8F14002504600F009
:1008F000E1F805460E46504659464246FFF72EFFA0
:10090000084305D0012004E020463946BDE8F08DBB
:100910000020054346EAE0762C4337430A986305F6
:10092000E40AA0EB08000022FD0A44EA47540A301A
:1009300002D500200146E9E7010510196941DDE90A
:10094000084500196941BDE8F04DA2E72DE9FE4FC9
:1009500081EA030404F0004421F0004100944FF0C8
:10096000000B23F0004350EA01045ED052EA030476
:100970005BD0C3F30A54C1F30A552C44A4F2F334F8
:100980000194A0FB0254C1F3130141F48011C3F39D
:10099000130343F4801301FB024400FB034E840A5B
:1009A000970A44EA815447EA8357A4FB07680295F3
:1009B0008D0A05FB07854FEA932C04FB0C54270591
:1009C000029D4FEA065847EA1637B5EB08056EEB6D
:1009D000070C870E920E47EA811742EA8312A7FBA3
:1009E0000201B6EB0B0164EB00042B0D43EA0C3360
:1009F0005E1844EB1C50DA465146E7FB0201C5F392
:100A000013044FEA0B3343EA14534FEA0432019CB8
:100A100043EA0603A4F10C040294009CCDE900B45F
:100A2000FFF746FF03B0BDE8F08F00200146F9E76D
:100A3000C1F30A52C1F3130140F2FF3341F48011B4
:100A40009A4202DA00200146704740F233439A424C
:100A5000A2F2334202DC524200F02CB8FFF77EBE15
:100A600030B5041E71F1000404DB4FF00044404235
:100A700064EB0101141E73F1000405DB1C464FF00A
:100A80000043524263EB0403994208BF904230BDD9
:100A9000064C074D06E0E06840F0010394E80700CB
:100AA00098471034AC42F6D3FFF724FB44610008AA
:100AB00064610008202A04DB203A21FA02F00021B8
:100AC000704721FA02F3D040C2F12002914008435E
:100AD0001946704700487047E85E000810B50446A4
:100AE000FFF7F8FF0068005D00F0010010BD000096
:100AF0002DE9F34F8BB04FF0000801F10C000C46CC
:100B00004FF0010B46460DF1080A01906269012180
:100B100001989047051E2DD0252D2CD0216A88479D
:100B2000C0B16269012101989047216A8847002875
:100B3000F7D1411E62690198904700E0761CA169D7
:100B40000B988847216A88470028F7D1E1690B98FC
:100B50008847DBE7A1690B9888470746A84201D17F
:100B6000761CD3E7E1690B9888477F1C02D1B8F166
:100B7000000F6FD047E1002762693D463946019872
:100B800090472A2804D162690121019890470125E4
:100B9000DFF888926269012101989047A0F1300145
:100BA0000A290AD24F45E5DC07EB870100EB410734
:100BB000303FDFD445F01005ECE7E90601D46FF0D3
:100BC00000476C280AD04C2814D0682815D06A2811
:100BD0000DD074281CD07A281AD01DE0626901213A
:100BE000019890476C2802D045F0040514E045F0C8
:100BF00002050DE045F020050AE062690121019837
:100C00009047682802D045F0080505E045F40065E6
:100C10006269012101989047C4E9015765283DD0D8
:100C200019DC58287AD00CDC452837D004DC25287C
:100C300026D0412831D131E046282FD047282CD169
:100C40002CE05B2877D0612828D063287CD06428EA
:100C500023D15AE0D1E06F2848D008DC66281DD0A7
:100C600067281BD0692821D06E2816D127E070286C
:100C700045D0732868D0752847D078280DD14DE02D
:100C8000A1690B988847054625283FF469AFE169BB
:100C90000B9888476D1C3FF46AAFB4E023466A4660
:100CA0006FF001000B99AFF300809FE045F040002A
:100CB0006060A80723464FF0000236D43EE0E80704
:100CC0007FF447AF2068011D21600068290501D528
:100CD00006701BE7290701D5068017E7A90703D58A
:100CE000F117C0E9006111E706600FE745F0400029
:100CF0006060A80723464FF0080216D41EE040F6B5
:100D00000E0125EA0100606016E045F040006060D9
:100D1000A80723464FF00A0207D40FE045F0400031
:100D20006060A80708D5234610226FF001000B99D8
:100D3000AFF300805AE007E0234610226FF0010075
:100D40000B99FFF739FA51E04FF000094F464B4637
:100D5000632802D05B2807D041E02079C00601D487
:100D60000120A06001273AE06269012101989047C3
:100D70005E2805D14FF00109626949460198904704
:100D8000216939B900210A46534643F82120491CFC
:100D90000829FADBB0B3216969B9C11700EBD16248
:100DA00053110AEB830122F01F02821A01200B6803
:100DB000904003430B6062690121019890475D28D0
:100DC000E8D1B9F1000F09D00020514651F8202098
:100DD000D24341F82020401C0828F7DB02AB224612
:100DE00000976FF001000B99FFF78CFA00280CDADE
:100DF000401C08D1BBF1000F05D04FF0FF300DB003
:100E0000BDE8F08FFFE74046F9E7E90701D108F1B7
:100E1000010806444FF0000B78E60000CCCCCC0C67
:100E200021B1826842F00102826003E0826822F010
:100E3000010282607047014600208A6802F00402C5
:100E40000AB1012000E0002070470146C86C80B262
:100E500070470246002013680B400BB1012000E0F0
:100E600000207047014600208A6802F008020AB19B
:100E7000012000E00020704730B50246002000232A
:100E800050680F4C20400D790C6844EA052420433B
:100E9000506090680B4C2040D1E902542C434D79AE
:100EA00044EA450420439060D06A20F470000C7C32
:100EB000641EE4B2234340EA0350D06230BD000018
:100EC000FFFEF0FFFDF7F1FFF0B504460D460020F0
:100ED0000021092D11DDE068A5F10A0606EB4607A1
:100EE000072606FA07F18843A5F10A0606EB46062F
:100EF00003FA06F10843E0600CE0206905EB4507C2
:100F0000072606FA07F1884305EB450603FA06F1C2
:100F100008432061072A0FDA606B561E06EB86072E
:100F20001F2606FA07F18843561E06EB860605FAC9
:100F300006F10843606322E00D2A0FDA206BD61F0A
:100F400006EB86071F2606FA07F18843D61F06EB35
:100F5000860605FA06F10843206310E0E06AA2F174
:100F60000D0606EB86071F2606FA07F18843A2F155
:100F70000D0606EB860605FA06F10843E062F0BDB1
:100F8000816841F008018160704721B1826842F4B4
:100F9000A002826003E0826822F4A00282607047AF
:100FA000816841F004018160704700BFFEE70000E6
:100FB0000148007870470000270000200148807831
:100FC000704700002700002008B50121042000F030
:100FD000F3FC1020ADF800008DF8030003208DF81D
:100FE00002006946034800F0B9F91021014800F0F9
:100FF0009DFA08BD0008014070B500F085F8102189
:10100000344800F091FA142002F0FEFF102131481C
:1010100000F08CFA1E2003F021F800F067F8282079
:1010200003F01CF800F05AF800284BD100BF00F084
:1010300055F80028FBD000BF00F050F80128FBD085
:10104000002424E000251EE000BF00F047F800283F
:10105000FBD01E2003F002F81F48005D4006000E82
:101060001D49085500F03AF8012805D11A48005DDD
:1010700040F001001849085500BF00F02FF8012882
:10108000FBD0681CC5B2082DDEDB601CC4B2052C89
:10109000D8DB00F039F810210E4800F047FA0E486E
:1010A00000780D49497808440B49897808440A4971
:1010B000C978084408490979884201D1002070BDE7
:1010C0000120FCE700F020F81021024800F02EFA81
:1010D0000120F4E7000801402700002010B510218E
:1010E000014800F00FFA10BD0008014008B51020BB
:1010F000ADF8000048208DF803006946014800F073
:101100002DF908BD0008014008B51020ADF8000019
:101110008DF8030003208DF802006946014800F0B5
:101120001DF908BD000801407047000010B50120FE
:1011300000F000F980B10A2002F066FF01210748A3
:1011400000F0E0F928B906A001F0EEFB0EA001F0D6
:10115000EBFB012000F0E8F810BD000000080140A2
:101160005B546F756368204B65795D20E4B8ADE62C
:1011700096ADEFBC9A41E994AEE8A2ABE68C89E467
:10118000B88B0D0A000000005B53797374656D5DC8
:1011900020E8A7A6E691B8E68C89E994AE41E68CF2
:1011A00089E4B88B0D0A000010B5042000F0C2F8E5
:1011B000002828D00A2002F027FF0421124800F05E
:1011C000A1F900281CD111A001F0AEFB012000F014
:1011D0006DFC184801F0A8FB17A20121084600F099
:1011E000A5FB18A20121022000F0A0FB17A20121FB
:1011F000032000F09BFB19A20121042000F096FBC4
:10120000042000F091F810BD000801405B546F7598
:101210006368204B65795D20E4B8ADE696ADEFBC20
:101220009A43E994AEE8A2ABE68C89E4B88B0D0A48
:1012300000000000EC5E0008202052656C617920FF
:101240003200000020204F4E000000002020576197
:101250007465722050756D70000000002020506F82
:10126000776572656400000010B5082000F062F830
:10127000002828D00A2002F0C7FE0821124800F0FA
:1012800041F900281CD111A001F04EFB002000F014
:101290000DFC184801F048FB17A20121084600F098
:1012A00045FB18A20121022000F040FB17A20121FA
:1012B000032000F03BFB19A20121042000F036FBC3
:1012C000082000F031F810BD000801405B546F7534
:1012D0006368204B65795D20E4B8ADE696ADEFBC60
:1012E0009A44E994AEE8A2ABE68C89E4B88B0D0A87
:1012F00000000000305F0008202052656C617920FA
:101300003200000020204F46460000002020576198
:101310007465722050756D700000000020205374B9
:101320006F7070656400000001490860704700003C
:1013300014040140014600200022074B1B6803EA09
:101340000102054B14331B680B4013B10AB1012095
:1013500000E0002070470000000401402DE9F0414A
:10136000024600250026002000230024002791F8D3
:1013700003C00CF00F0591F803C00CF0100CBCF189
:10138000000F03D091F802C04CEA050591F800C0A7
:10139000BCF1000F31D0146800202BE04FF0010C9D
:1013A0000CFA00F3B1F800C00CEA03069E4220D10B
:1013B00083004FF00F0C0CFA03F7BC4305FA03FC53
:1013C0004CEA040491F803C0BCF1280F06D14FF099
:1013D000010C0CFA00FCC2F814C00AE091F803C03A
:1013E000BCF1480F05D14FF0010C0CFA00FCC2F81B
:1013F00010C0401C0828D1D31460B1F800C0BCF163
:10140000FF0F34DD546800202EE000F1080C4FF08F
:10141000010808FA0CF3B1F800C00CEA03069E427A
:1014200021D183004FF00F0C0CFA03F7BC4305FAEF
:1014300003FC4CEA040491F803C0BCF1280F05D169
:1014400000F1080C08FA0CF8C2F8148091F803C0F7
:10145000BCF1480F07D100F1080C4FF0010808FA61
:101460000CF8C2F81080401C0828CED35460BDE8A8
:10147000F0810000F0B50A46002300240021002579
:1014800000F00046B6F1004F02D11D4EF16901E0B7
:101490001B4E7168C0F3034583B200F44016B6F5E5
:1014A000401F08D121F07061154E766826F07066F5
:1014B000134F7E6012E000F48016B6F5801F06D14F
:1014C000032606FA05F4A14341F0706106E0460DDB
:1014D000360103FA06F6B14341F0706122B1460DC0
:1014E000360103FA06F6314300F00046B6F1004F2C
:1014F00002D1034EF16101E0014E7160F0BD0000C8
:10150000000001400246002093680B400BB101200F
:1015100000E00020704702460020D3680B400BB16A
:10152000012000E000207047416170470161704771
:101530000AB1016100E04161704700BFFEE70000B1
:1015400008B50121082000F037FA4FF48050ADF8BB
:10155000000010208DF8030003208DF8020069467A
:101560000848FFF7FBFE4FF40050ADF80000694655
:101570000448FFF7F3FE4FF440510248FFF7D6FF4F
:1015800008BD0000000C014010B500F049F8044609
:101590006420604340F6FF7190FBF1F0C0B210BDD3
:1015A00000B587B001214FF4017000F005FA20204A
:1015B000ADF8180000208DF81B0006A91648FFF7AB
:1015C000CDFE002001908DF808008DF809004FF441
:1015D000602003900020049001208DF8140001A9E0
:1015E0000E48FFF749FC01210C48FFF719FC0B4896
:1015F000FFF7C6FC00BF0948FFF734FC0028FAD10A
:101600000648FFF7CDFC00BF0448FFF714FC002894
:10161000FAD107B000BD00000008014000240140DD
:1016200010B50523012219460848FFF74DFC01219A
:101630000648FFF7AAFC00BF02210448FFF709FC97
:101640000028F9D00148FFF700FC10BD002401403C
:1016500000BFFEE77047000070B5002100230F2295
:10166000C47804B3154C246804F4E064C4F5E06461
:10167000210AC1F10403CA40447804FA03F18478D2
:101680001440214309010E4C0678A155047804F05A
:101690001F050124AC4005786D11AD0005F1E02572
:1016A000C5F8004109E0047804F01F050124AC40AE
:1016B000044D0678761145F8264070BD0CED00E02B
:1016C00000E400E080E100E070B500240EE00021BD
:1016D000204600F0E0F8002504E0002000F04AF980
:1016E000681CC5B2802DF8DB601CC4B2082CEEDB90
:1016F00070BD000008B50121082000F05DF914203C
:101700008DF8030003208DF802004020ADF80000A2
:1017100069460A48FFF722FE8020ADF800006946BE
:101720000648FFF71BFE012240210448FFF700FF97
:10173000012280210148FFF7FBFE08BD000C01409B
:1017400070B50546002413E08020204100EA050220
:1017500080210E48FFF7ECFE012240210B48FFF7E5
:10176000E7FE002240210948FFF7E2FE601CC4B2F8
:10177000082CE9DB012240210448FFF7D9FE0022B2
:1017800040210248FFF7D4FE70BD0000000C01406C
:1017900010B5012280210948FFF7CAFE012240212D
:1017A0000648FFF7C5FE002280210448FFF7C0FE6F
:1017B000002240210148FFF7BBFE10BD000C014094
:1017C00010B5002280210748FFF7B2FE0122402118
:1017D0000448FFF7ADFE012280210248FFF7A8FE72
:1017E00010BD0000000C014070B5002406E000258B
:1017F00000E06D1CB5F57A7FFBD3641CB4F57A7FED
:10180000F5D3FFF777FFAE2000F0A4F8D52000F065
:10181000A1F8802000F09EF8A82000F09BF83F205F
:1018200000F098F8D32000F095F8002000F092F82E
:10183000402000F08FF8A12000F08CF8C82000F0C4
:1018400089F8DA2000F086F8122000F083F8812071
:1018500000F080F8CF2000F07DF8D92000F07AF871
:10186000F12000F077F8DB2000F074F8302000F071
:1018700071F8A42000F06EF8A62000F06BF88D201F
:1018800000F068F8142000F065F8AF2000F062F86E
:10189000FFF71AFF70BD70B505460C4645F0B00065
:1018A00000F058F8102141EA141000F053F804F049
:1018B0000F0000F04FF870BD2DE9F04105460E46CF
:1018C0001746721ED206110E6A1E5206100EFFF740
:1018D000E2FF002409E0A7F12001134A02EB011105
:1018E000085D00F047F8601CC4B2082CF3DB721EE0
:1018F000D206110E6A1E012303EB4202D0B2FFF79B
:10190000CAFF00240BE0A7F12001074A02EB0112F5
:1019100004F10801505C00F02DF8601CC4B2082CE2
:10192000F1DBBDE8F0810000745800082DE9F041BA
:1019300007460E461546002407E02A5D3019C1B25D
:101940003846FFF7B9FF601CC4B2285D0028F4D107
:10195000BDE8F08110B50446FFF71AFF7820FFF7C5
:10196000EFFE0020FFF7ECFE2046FFF7E9FEFFF751
:1019700027FF10BD10B50446FFF70AFF7820FFF7D8
:10198000DFFE4020FFF7DCFE2046FFF7D9FEFFF721
:1019900017FF10BD7047000029B1064AD269024303
:1019A000044BDA6104E0034AD2698243014BDA61F5
:1019B000704700000010024029B1064A92690243B4
:1019C000044B9A6104E0034A92698243014B9A6195
:1019D000704700000010024030B5002100220024B2
:1019E00000232D4D6D6805F00C0121B1042905D0AF
:1019F000082923D105E0294D056022E0274D056027
:101A00001FE0254D6D6805F47012234D6D6805F4D7
:101A10008034022505EB92421CB9214D55430560E7
:101A20000BE01D4D6D6805F400351DB11C4D55438F
:101A3000056002E0194D5543056002E0174D056051
:101A400000BF00BF144D6D6805F0F0010909154D88
:101A50006B5C0568DD4045600F4D6D6805F4E06125
:101A6000090A104D6B5C4568DD4085600A4D6D6864
:101A700005F46051C90A0B4D6B5C4568DD40C560DB
:101A8000054D6D6805F44041890B074D6B5CC568D9
:101A9000B5FBF3F5056130BD0010024000127A007D
:101AA00000093D00000000201000002070B5044631
:101AB00021460AA000F038FF22464FF4005110489A
:101AC000FFF736FD4FF400510D48FFF724FD0546A2
:101AD00029460CA000F028FF70BD00005B52656C29
:101AE00061795D20E7BBA7E794B5E599A832E8AE38
:101AF000BEE7BDAEE4B8BA3A2025640D0A00000086
:101B0000000801405B52656C61795D20E7BBA7E787
:101B100094B5E599A832E5AE9EE99985E78AB6E6DF
:101B200080813A2025640D0A0000000008B50121DB
:101B30000520FFF741FF4FF4C040ADF80000102032
:101B40008DF8030003208DF8020069460648FFF770
:101B500005FC01210548FFF78DFC4FF4C041024808
:101B6000FFF7E2FC08BD000000080140000430005F
:101B700008B501210420FFF71FFF4FF48070ADF876
:101B8000000010208DF8030003208DF80200694644
:101B90000648FFF7E3FB4FF480710448FFF7C4FCED
:101BA0004FF4965000F07CFD08BD00000008014095
:101BB00070B505460E4600244FF480710C48FFF7BF
:101BC000B5FC00BF0CE0295D0A4800F0A6FE00BF8E
:101BD0004021084800F0D3FD0028F9D0601CC4B2B1
:101BE000B442F0DB4FF480710148FFF79DFC70BDFB
:101BF00000080140004800407047000010B504A0F4
:101C000000F092FE0FA211A114A000F08DFE10BDF5
:101C10005B536572766572436F6D6D5D20E5889DDF
:101C2000E5A78BE58C96E69C8DE58AA1E599A8E968
:101C3000809AE4BFA1E6A8A1E59D972E2E2E0D0A5D
:101C40000000000033303030000000003139322E07
:101C50003136382E3232352E343300005B53657204
:101C6000766572436F6D6D5D20E69C8DE58AA1E51A
:101C700099A8E59CB0E59D803A2025733A25730D1F
:101C80000A0000002DE9F043FBB005460E462A4647
:101C90003FA15BA800F058FE3046FEF705FD074661
:101CA0003A460B4640A10BA800F04EFE0BA8FEF7EB
:101CB0005FFA07460BA840A141A35BAACDE9001734
:101CC000029043491BA800F03FFE294641A000F0C6
:101CD0002BFE3046FEF7E8FC07463A460B4648A086
:101CE00000F022FE1BA94EA000F01EFE32A134A07F
:101CF00001F0D6FA30B152A000F016FE01207BB000
:101D0000BDE8F08358A000F00FFE1BA8FEF730FAE4
:101D100081464A465EA103A800F016FE4FF4FA621F
:101D20005FA103A801F0D6FB50B15EA000F0FCFD5E
:101D30004FF4FA6264A165A001F0CCFB0220DEE75B
:101D40001BA802F01FF84FF4FA6002F05DF902F0F0
:101D500051F80446002C10D021465FA000F0E4FDAD
:101D600068A12046FEF7F2F918B168A000F0DCFD8A
:101D700006E06FA000F0D8FD02E077A000F0D4FDEF
:101D80004FF4FA6250A151A001F0A4FB0020B6E785
:101D90002F6170692F73656E736F72732F25732FA8
:101DA00064617461000000007B2276616C756522BD
:101DB0003A252E32667D00003330303000000000BE
:101DC0003139322E3136382E3232352E343300004E
:101DD0007C5F00085B536572766572436F6D6D5D65
:101DE00020E58F91E98081E695B0E68DAEE588B07B
:101DF000E4BCA0E6849FE599A83A2025730D0A006B
:101E00005B536572766572436F6D6D5D20E695B0CC
:101E1000E68DAEE580BC3A20252E32660D0A000024
:101E20005B536572766572436F6D6D5D20485454E7
:101E300050E8AFB7E6B1823A200D0A25730D0A00CB
:101E40005B536572766572436F6D6D5D20E8BF9E72
:101E5000E68EA5E69C8DE58AA1E599A8E5A4B1E802
:101E6000B4A50D0A000000005B53657276657243ED
:101E70006F6D6D5D20E8BF9EE68EA5E69C8DE58AC0
:101E8000A1E599A8E68890E58A9F0D0A0000000068
:101E900041542B43495053454E443D2564000000B6
:101EA0003E0000005B536572766572436F6D6D5D39
:101EB00020E58F91E980814154E591BDE4BBA4E523
:101EC000A4B1E8B4A50D0A004F4B000041542B43C8
:101ED0004950434C4F5345005B53657276657243DE
:101EE0006F6D6D5D20E694B6E588B0E69C8DE58A61
:101EF000A1E599A8E5938DE5BA943A200D0A2573DA
:101F00000D0A0000323030204F4B00005B536572E9
:101F1000766572436F6D6D5D20E695B0E68DAEE53A
:101F20008F91E98081E68890E58A9F0D0A00000084
:101F30005B536572766572436F6D6D5D20E69C8DB7
:101F4000E58AA1E599A8E5938DE5BA94E5BC82E51B
:101F5000B8B80D0A000000005B53657276657243E5
:101F60006F6D6D5D20E69CAAE694B6E588B0E69CB0
:101F70008DE58AA1E599A8E5938DE5BA940D0A004F
:101F800010B500F001F810BD0CB5002001900090D4
:101F90003348006840F480303149086000BF304861
:101FA000006800F4003000900198401C01900098F7
:101FB00018B90198B0F5A06FF1D12948006800F474
:101FC000003010B10120009001E000200090009846
:101FD000012843D12348006840F0100021490860DF
:101FE0000846006820F0030008600846006840F0DA
:101FF000020008601A48406819494860084640686D
:1020000048600846406840F4806048600846406880
:1020100020F47C1048600846406840F4E8104860AE
:102020000846006840F08070086000BF0C480068F7
:1020300000F000700028F9D00948406820F0030043
:10204000074948600846406840F00200486000BF09
:102050000348406800F00C000828F9D10CBD0000CE
:10206000001002400020024030B502460B464FF6F9
:10207000FF70002112E0545C604000240AE000F090
:10208000010525B14AF2010585EA600000E0401033
:10209000651CECB2082CF2DB4C1CE1B29942EADB85
:1020A00030BD00002DE9F04F87B0074688469146C5
:1020B0009A4600200590069001208DF81400032018
:1020C0008DF8150000208DF816008DF817008DF89A
:1020D000180004208DF81900062105A8FFF7C4FF99
:1020E00083460BF0FF008DF81A004FEA1B208DF895
:1020F0001B0000203E49088000BF04E000213D4A4B
:102100001154411C88B24028F8DB082105A8FFF7CC
:102110004FFD002500260AE06D1C012001F074FF30
:1021200033480088C0F30D060D2E00DB02E0B5F544
:102130007A7FF1D300BF0D2E03DA012007B0BDE88E
:10214000F08F2C480078012803D12A4840780328D2
:1021500001D00220F2E70D21264800F04FF808B127
:102160000320EBE703242349601C085C095D40EA77
:10217000012004900498FEF792FA1F490090FEF7A0
:1021800031F938601B49E01C095C1A4AA01C105C3C
:1021900041EA002000B203900398FEF777FA16494F
:1021A0000090FEF71FF9C8F800001249601D095C95
:1021B000104A201D105C41EA002002900298A9F804
:1021C00000001146E01D095CA01D105C41EA0020E2
:1021D00001900198FEF763FA07490090FEF702F9B3
:1021E000CAF8000000200249088000BFA6E70000EE
:1021F000320000209402002000002041F0B5054686
:102200000C46032C01DA0120F0BDA01E295C601EE3
:10221000285C41EA0027A01EC1B22846FFF724FF30
:102220000646B74201D00120EEE70020ECE7042883
:1022300008D14FF0E021096941F004014FF0E0229C
:10224000116107E04FF0E021096921F004014FF02E
:10225000E02211617047704710B51348006840F0E4
:1022600001001149086008464068104908400E49BD
:102270004860084600680E4908400B490860084657
:10228000006820F4802008600846406820F4FE00C2
:1022900048604FF41F008860FFF772FE4FF0006047
:1022A0000449086010BD0000001002400000FFF863
:1022B000FFFFF6FE08ED00E010B50121880700F0F1
:1022C00024F880B10121880700F010F800214FF0B8
:1022D000804000F00EF80448008820F4004000F52B
:1022E00000400149088010BD2C000020CA43028232
:1022F000704721B1028842F00102028004E00288A6
:102300004FF6FE731A400280704730B50246002037
:1023100000230024158A05EA0103958905EA0104D2
:1023200013B10CB1012000E0002030BD1AB1838947
:102330000B43838102E083898B43838170478184CF
:1023400070470000002202881D4B98420ED01D4BA2
:1023500098420BD0B0F1804F08D01B4B984205D06B
:102360001A4B984202D01A4B984204D14FF68F7301
:102370001A404B881A43174B984207D0164B984285
:1023800004D04FF6FF431A40CB881A4302808B8853
:1023900083850B8803850A4B98420BD0094B9842E2
:1023A00008D00E4B984205D00D4B984202D00D4BF1
:1023B000984201D10B7A0386012383827047000083
:1023C000002C01400034014000040040000800409F
:1023D000000C00400010004000140040004001408C
:1023E000004401400048014010B501212C48FFF78E
:1023F00089F880B90A2001F007FE01212848FFF77B
:1024000081F840B900BF01212548FFF77BF800287B
:10241000F9D0012010BD02212148FFF773F880B9DF
:102420000A2001F0F1FD02211D48FFF76BF840B9C9
:1024300000BF02211A48FFF765F80028F9D00220F2
:10244000E8E704211648FFF75DF880B90A2001F09B
:10245000DBFD04211248FFF755F840B900BF042105
:102460000F48FFF74FF80028F9D00320D2E70821E2
:102470000B48FFF747F880B90A2001F0C5FD082195
:102480000748FFF73FF840B900BF08210448FFF7AD
:1024900039F80028F9D00420BCE70020BAE7000092
:1024A0000008014010B540F225511D4800F074F9B4
:1024B00010B31B4800F02CFAC4B21A48008800F48C
:1024C0000040C8B91748008800F4804060B10A2C69
:1024D00003D000201349088020E01248008840F40F
:1024E00000401049088019E00D2C06D10D480088E5
:1024F00040F480400B49088010E00A480088C0F38F
:102500000D0009490C5407480088401C0549088003
:1025100008460088C72801DD0020088010BD0000A3
:1025200000380140240000204C00002010B54FF47A
:1025300058713A4800F030F938B14FF458713748C3
:1025400000F002F9354800F0E3F940F22551334834
:1025500000F022F930B3314800F0DAF9C4B2304863
:102560000088C0F30E00FF281DDA00214FF08040E4
:10257000FFF7E5FE2A480088C0F30E0018B90121D4
:102580008807FFF7B6FE26480088C0F30E002549ED
:102590000C5423480088401C2149098860F30E012F
:1025A0001F48018014E01E4800886FF30E001C498C
:1025B000088008460088C0F30E001A490C541848D9
:1025C0000088401C1649098860F30E0114480180F8
:1025D00040F22771114800F0DFF8F0B1124800888E
:1025E00012490988884212D01148104A1288815C29
:1025F0000A4800F092F90D490988481CC11700EB00
:102600005161C911A0EBC111084A118005E00022F7
:1026100040F22771014800F0E9F810BD0044004085
:102620002C000020140100202E000020300000208B
:102630001402002010B540F22551164800F0ACF805
:10264000C8B1144800F064F9C4B213480088C0F35C
:102650000D0040280ADA10480088C0F30D000F4929
:102660000C540D480088401C0B49088040F225514D
:10267000084800F069F84FF45871064800F08CF8EB
:1026800038B14FF45871034800F05EF8014800F08B
:102690003FF910BD004800403200002094020020A5
:1026A00010B586B0044601210820FFF785F9012105
:1026B0008804FFF771F94FF40060ADF814000420AE
:1026C0008DF8170005A91E48FEF748FE4FF48060FC
:1026D000ADF8140003208DF8160018208DF81700AF
:1026E00005A91748FEF73AFE01940020ADF808004E
:1026F000ADF80A00ADF80C00ADF810000C20ADF8F4
:102700000E0001A90F4800F097F8012240F2255170
:102710000C4800F06BF801210A4800F024F827204B
:102720008DF8000002208DF801008DF802000120D4
:102730008DF803006846FEF78FFF06B010BD00005D
:10274000000C01400048004010B50022002340F674
:102750006A14A14200D100BF0A1201249440A3B21E
:10276000DC43048010BD21B1828942F40052828191
:1027700004E082894DF6FF731A4082817047024659
:102780000020B1F5007F00D100BF13880B400BB1D2
:10279000012000E00020704770B5024600240023AD
:1027A0000025002040F66A16B14200D100BFC1F3F7
:1027B000421501F01F03012606FA03F3012D02D191
:1027C0009689334006E0022D02D1168A334001E09B
:1027D000968A33400C12012606FA04F41688344017
:1027E00013B10CB1012000E0002070BDF0B503462C
:1027F000002400260025002040F66A17B94200D1C7
:1028000000BF1846C1F3421401F01F06012707FA62
:1028100006F5012C01D10C3004E0022C01D110305E
:1028200000E014301AB107682F43076002E0076820
:10283000AF430760F0BD00002DE9F04786B00546C4
:102840000E460024A24600BFA1460027B08900B171
:1028500000BF2F462C8A4CF6FF700440F0880443DA
:102860002C82AC894EF6F3100440B08831890843BD
:10287000718908430443AC81AC8A4FF6FF400440A1
:10288000B0890443AC8201A8FFF7A6F81F4887422D
:1028900002D1DDF810A001E0DDF80CA0A88900F459
:1028A000004040B10AEBCA0000EB0A103168490051
:1028B000B0FBF1F807E00AEBCA0000EB0A10316840
:1028C0008900B0FBF1F86420B8FBF0F004012009A6
:1028D000642101FB1089A88900F4004040B1322036
:1028E00000EBC900B0FBF1F000F00700044308E082
:1028F000322000EB09106421B0FBF1F000F00F0072
:1029000004432C8106B0BDE8F08700000038014088
:1029100001468888C0F308007047C1F3080282802E
:10292000704700BFFEE700000FB4054B10B503A9C8
:10293000044A029800F008F910BC5DF814FB00008E
:10294000A9400008200000200FB4084B10B504A9CE
:1029500002AA039800F0F8F8044602A9002000F04B
:1029600081FC204610BC5DF814FB000065320008B5
:102970007CB50C001D461646014601D0601E00E0E5
:102980000020CDE90010064B6A462946304600F08B
:10299000DBF8002C02D0009A002111707CBD0000F1
:1029A0004F32000802E008C8121F08C1002AFAD1FD
:1029B00070477047002001E001C1121F002AFBD1BF
:1029C000704700002DE9FF5F82B00021DDE904308F
:1029D000020DDDF840B0034318D044F61050A2F2C7
:1029E000FF3242431514119801281FD0A5EB0B00AC
:1029F000401C5FEA000A4FF000064E4FDFF83891A6
:102A0000B046504615D5CAF1000413E011980124D0
:102A10004AA3012801D16FEA0B010298119AC0E97B
:102A20000031C0E9024206B0BDE8F09FCBF10000E2
:102A3000DFE704460021404A491842EB0450CDE943
:102A4000001012E0E00707D032463B4640464946B8
:102A5000FDF77CFF8046894632463B4610461946C4
:102A6000FDF774FF06460F466410002CEAD1DDE93D
:102A70000401DDE90023BAF1000F06DAFDF766FF75
:102A800042464B46FDF762FF05E0FDF790FD4246EA
:102A90004B46FDF78CFD04460E460022284BFDF701
:102AA000DFFF03D84FF0FF30014607E00022254B3F
:102AB00020463146FDF7D4FCFDF7BAFF102409E0AB
:102AC000002C0ADB0A220023FDF717FE039B30329D
:102AD0001A55641E50EA0102F2D1641C039AC4F133
:102AE00011031444119A012A03D0012208430DD185
:102AF0000AE0084304D000204FF0110B119072E758
:102B0000A3EB0B056D1E0DE05B4504DD4FF00002ED
:102B100005F1010504E003DA4FF00002A5F101051B
:102B2000002AECD002981199C0E90231C0E90045B1
:102B300079E70000000014400000F03F3000000082
:102B40000000F0430000E03F2DE9FF4F95B09A46AA
:102B5000884606460025EEE1252877D10024274641
:102B6000F94A0121039400E0044316F8013F203B99
:102B700001FA03F01042F7D130782A2811D06FF013
:102B80002F033078A0F13002092A16D8039A44F0B6
:102B9000020402EB820203EB42021044761C039013
:102BA000EFE758F8042B0392002A03DA504244F46A
:102BB0000054039044F00204761C30782E2816D17D
:102BC00016F8010F44F004042A280DD06FF02F02EC
:102BD0003078A0F13003092B09D807EB870302EB0B
:102BE0004303C718761CF3E758F8047B761C30784B
:102BF0006C280FD006DC4C2817D068280DD06A2826
:102C000014D104E0742810D07A280FD10DE044F4D8
:102C100000140AE044F4801401E044F44014727893
:102C2000824202D104F58014761C761C3078662826
:102C30000BD013DC582877D009DC002875D0452844
:102C4000F6D04628F4D047281AD193E118E063283B
:102C500035D0642879D0652812D18BE1702873D0E3
:102C600008DC6728F1D069286FD06E280DD06F2856
:102C700006D1ACE073282CD0752874D0782853D0B6
:102C80005246179990476D1C54E1C4F30250022834
:102C900009D003280DD0D8F8001004280DD00D60FD
:102CA00008F1040846E1D8F80010EA17C1E900521B
:102CB000F6E7D8F800100D80F2E70D70F0E718F88D
:102CC000041B8DF8001000208DF80100EB46012058
:102CD00003E058F804BB4FF0FF3061074FF00001EC
:102CE00002D40DE009F101018946B9420FDA8145AC
:102CF000F8DB1BF809100029F4D108E009F1010103
:102D000089468142FADB1BF809100029F6D10398A5
:102D10005346A0EB090721463846179A00F080FA7F
:102D2000284400EB090507E044E008E10DE01BF84A
:102D3000010B524617999047B9F10109F7D2534652
:102D400021463846179AF2E039E00A21C4F30252CC
:102D50004FF0000B0091022A06D058F8040BC1175F
:102D6000032A09D00AE023E008F1070020F0070257
:102D7000F2E80201904605E000B2C117042A01D131
:102D800040B2C117002906DA0A460021404261EB31
:102D900002012D2202E0220504D52B228DF8042009
:102DA000012203E0E20701D02022F7E7914657E035
:102DB0000A2100E010214FF0000B00910BE01021E0
:102DC0004FF0000B44F004040827009103E00820B2
:102DD0004FF0000B0090C4F30252022A05D058F8BD
:102DE000040B0021032A08D008E008F1070020F0B6
:102DF0000702F2E80201904603E080B2042A00D103
:102E0000C0B24FF0000922072AD53278702A07D0C5
:102E1000DDF800C08CF0100C5CEA0B0C05D00EE065
:102E200040228DF80420012208E050EA010306D078
:102E300030238DF804308DF8052002229146009B46
:102E400083F0080353EA0B030AD150EA010201D1CF
:102E5000620705D530228DF804204FF001097F1E4E
:102E60003278582A04D039A20C920CAA02920BE0B4
:102E70003BA2F9E75B46009AFDF73FFC0C9B9B5C8D
:102E8000029A521E0292137050EA0102F2D1029885
:102E900004A9081A00F1200B600702D524F480343D
:102EA00000E001275F4502DDA7EB0B0000E00020FA
:102EB00000EB0B01009003984944401A0390E00393
:102EC00006D453462146179A039800F0A9F9054401
:102ED000002706E001A85246C05D179990476D1C77
:102EE0007F1C4F45F6DBE0030CD553462146179A6D
:102EF000039800F095F9054404E0302052461799F4
:102F000090476D1C0099481E00900029F5DC08E0F0
:102F10000298029952460078491C029117999047ED
:102F20006D1CBBF10001ABF1010BF1DC5BE100F0CA
:102F300065F90544761C307800287FF40DAE19B091
:102F40002846BDE8F08F00000928010030313233F7
:102F500034353637383961626364656600000000D5
:102F600030313233343536373839414243444546BF
:102F700000000000600700D4062708F1070020F0D9
:102F80000700F0E80223804603F0004C5FEA0C00E3
:102F900001D097A009E0200501D596A005E0E00743
:102FA00001D095A001E0AFF24C001390307823F0EF
:102FB000004365280CD006DC452809D046281DD0E2
:102FC00047287FD13BE0662818D067287AD136E0C1
:102FD0000021112F01DB112000E0781CCDE9000158
:102FE00004A90CA8FFF7EEFCDDE90D010C9A4FF0E7
:102FF000000B07F10109109200914EE04FF00040E4
:103000000097CDE9011004A90CA8FFF7DBFCDDE96E
:103010000D020C9B0F994FF0000B914610930092FC
:1030200011B9791C00EB0109B7EB090003D4C0F119
:10303000FF3B07F10109A9EB0700019042E0012FD6
:1030400000DA01270021112F01DD112000E03846B0
:10305000CDE9000104A90CA8FFF7B4FCDDE90D01DE
:103060000C9A00914FF0000BB946109221070FD433
:10307000009A4A4503DA914601E0A9F10109B9F144
:10308000010F05DD109AA9F10101515C3029F4D03E
:10309000B84202DA10F1040F03DA0121CDE9011080
:1030A00010E0002803DC8344A9EB000102E0411C8E
:1030B000494500DD8946A0EB0B00401C01904FF014
:1030C00000400290200705D40198484502DB4FF0EC
:1030D000FF30019000208DF84B0002980DF14B0756
:1030E000B0F1004F25D002200C902B200D900298BB
:1030F00000280CDA404202902D200D9007E00A21B2
:103100000298FDF7E4FA3031029007F8011D0C999E
:10311000481E0C900029F2DC02980028EFD1791E9D
:103120000D980870307800F0200040F0450007F856
:10313000020D11A8C01BC01D02901398007800B1A9
:10314000012000EB0901019801EBE07102980144B4
:103150000398401A401E0390E00306D453462146CC
:10316000179A039800F05CF805441398007818B19A
:103170005246179990476D1CE00323D553462146CC
:10318000179A039800F04CF805441BE0BBF1000FC0
:1031900007DB0098584504DD1098179910F80B00CC
:1031A00001E0179930205246904701980BF1010B2E
:1031B000401E05F10105019004D12E2052461799B9
:1031C00090476D1CB9F10001A9F10109DEDC05E0B1
:1031D00017F8010B5246179990476D1C0299481E2B
:1031E00002900029F4DC53462146179A03989EE684
:1031F0002D0000002B000000200000002DE9F04110
:10320000044600251E461746880404D405E03946C6
:103210002020B0476D1C641EF9D52846BDE8F0811A
:103220002DE9F041044600251E469046C80301D50D
:10323000302700E02027880404D505E041463846C1
:10324000B0476D1C641EF9D52846BDE8F0814A6878
:10325000002A06D00A68531C0B6010704868401E94
:10326000486070470A68531C0B601070704700007C
:1032700070B500250BE04FF4FA7207A107A000F02B
:1032800029F904460CB9002070BD681CC5B20A2D8E
:10329000F1DB0120F8E700004F4B00004154000033
:1032A00070B590B005460E4613A0FFF73DFB4FF4F6
:1032B0007A721AA11AA000F00DF9044634B1214621
:1032C0001AA0FFF731FB012010B070BD25A0FFF759
:1032D0002BFB33462A462DA16846FFF735FB41F20A
:1032E000883231A1684600F0F5F804460CB9002098
:1032F000EAE70120E8E700005B44454255475D20CE
:10330000E8AEBEE7BDAEE58D95E8BF9EE68EA5E6CC
:10331000A8A1E5BC8F2E2E2E0D0A00004F4B0000F9
:1033200041542B4349504D55583D30005B45525256
:103330004F525D20E8AEBEE7BDAEE58D95E8BF9E7D
:10334000E68EA5E6A8A1E5BC8FE5A4B1E8B4A52169
:1033500020E99499E8AFAFE7A0813A2025640D0AEF
:10336000000000005B535543434553535D20E58DFA
:1033700095E8BF9EE68EA5E6A8A1E5BC8FE8AEBEA7
:10338000E7BDAEE68890E58A9F0D0A0041542B43C5
:10339000495053544152543D22544350222C22252B
:1033A00073222C2573000000434F4E4E45435400BA
:1033B0002DE9F04106464FF4FA720FA10FA000F07C
:1033C00089F8074617B10120BDE8F08100F012FD31
:1033D00080460DA1FCF7BAFE04460BA1601CFCF769
:1033E000B5FE054600202870621C08A13046FFF794
:1033F000ABFA0020E8E700004F4B000041542B439C
:1034000049465352000000002200000025730000CE
:1034100008B501210420FEF7CFFA1020ADF8000016
:103420008DF8030003208DF8020069460148FDF77E
:1034300095FF08BD0008014010B500221021084882
:10344000FEF776F8642000F0DFFD01221021044829
:10345000FEF76EF84FF4FA7000F0D6FD10BD0000D4
:103460000008014010B50446FFF7D2FFFFF7E4FF64
:10347000204600F05BF8FFF7FBFE08B1012010BD0D
:103480000020FCE770B590B004460D462B4622465E
:1034900008A16846FFF758FA42F210720AA168467E
:1034A00000F018F8064616B9002010B070BD0120D3
:1034B000FBE7000041542B43574A41503D222573FE
:1034C000222C2225732200005749464920474F5499
:1034D000204950002DE9F04105460E4614460027CC
:1034E00000F09EFC29460FA000F04CFC06B114B978
:1034F0000020BDE8F08110E000F07CFC074647B1F9
:1035000031463846FCF722FE08B10020F1E700F012
:1035100087FC641E012000F077FD002CECD1022016
:10352000E7E7000025730D0A0000000010B58AB01F
:10353000044647A0FFF7F8F952A0FFF7F5F9214636
:103540005AA0FFF7F1F961A0FFF7EEF967A0FFF7C6
:10355000EBF96EA0FFF7E8F901210520FEF72CFA40
:1035600001217348FEF718FA72A0FFF7DDF97CA07D
:10357000FFF7DAF985A0FFF7D7F98FA0FFF7D4F9A5
:1035800098A0FFF7D1F90420ADF8240018208DF899
:10359000270003208DF8260009A99B48FDF7DEFED1
:1035A0009AA0FFF7C1F90820ADF8240004208DF897
:1035B000270009A99448FDF7D1FEA4A0FFF7B4F9AC
:1035C000AEA0FFF7B1F904940020ADF81400ADF8F7
:1035D0001600ADF81800ADF81C000C20ADF81A006C
:1035E00004A9B148FFF728F92146B0A0FFF79CF9DC
:1035F000B7A0FFF799F9BFA0FFF796F9C6A0FFF7AC
:1036000093F9CEA0FFF790F9D5A0FFF78DF9DEA0D2
:10361000FFF78AF926208DF8200001208DF821007F
:103620008DF822008DF8230008A8FEF715F8DFA01A
:10363000FFF77AF9E8A0FFF777F9F6A0FFF774F93A
:10364000FEA0FFF771F9012240F2255108E20000C7
:103650005B53657269616C20496E69745D20E5BCDD
:1036600080E5A78BE5889DE5A78BE58C9657694695
:1036700069E6A8A1E59D97E4B8B2E58FA32E2E2EAA
:103680000D0A00005B53657269616C20496E6974B4
:103690005D20E79BAEE6A087E4B8B2E58FA33A20B1
:1036A0005553415254320D0A000000005B536572BD
:1036B00069616C20496E69745D20E6B3A2E789B93F
:1036C000E78E873A20256C750D0A00005B53657202
:1036D00069616C20496E69745D205458E5BC95E8B9
:1036E000849A3A205041320D0A0000005B53657203
:1036F00069616C20496E69745D205258E5BC95E89B
:10370000849A3A205041330D0A0000005B536572E1
:1037100069616C20496E69745D20312E20E9858DC8
:10372000E7BDAEE697B6E9929F2E2E2E0D0A000059
:10373000010002005B53657269616C20496E697417
:103740005D20202D204750494F41E697B6E9929FD2
:103750003A20E5B7B2E590AFE794A80D0A00000063
:103760005B53657269616C20496E69745D20202D20
:10377000204146494FE697B6E9929F3A20E5B7B215
:10378000E590AFE794A80D0A000000005B53657256
:1037900069616C20496E69745D20202D205553416C
:1037A000525432E697B6E9929F3A20E5B7B2E590D7
:1037B000AFE794A80D0A00005B53657269616C2045
:1037C000496E69745D20202D2054494D32E697B62C
:1037D000E9929F3A20E5B7B2E590AFE794A80D0AC9
:1037E000000000005B53657269616C20496E69746A
:1037F0005D20322E20E9858DE7BDAEE5BC95E884DD
:103800009A2E2E2E0D0A0000000801405B536572AF
:1038100069616C20496E69745D20202D205458E543
:10382000BC95E8849A28504132293A20E5A48DE7D6
:1038300094A8E68EA8E68CBDE8BE93E587BAEFBCF7
:103840008C35304D487A0D0A000000005B536572DC
:1038500069616C20496E69745D20202D205258E505
:10386000BC95E8849A28504133293A20E6B5AEE762
:10387000A9BAE8BE93E585A50D0A00005B53657201
:1038800069616C20496E69745D20332E20E9858D55
:10389000E7BDAEE4B8B2E58FA3E58F82E695B02E22
:1038A0002E2E0D0A00000000004400405B5365729C
:1038B00069616C20496E69745D20202D20E6B3A2F9
:1038C000E789B9E78E873A20256C750D0A0000005C
:1038D0005B53657269616C20496E69745D20202DAF
:1038E00020E695B0E68DAEE4BD8D3A2038E4BD8D7E
:1038F0000D0A00005B53657269616C20496E697442
:103900005D20202D20E5819CE6ADA2E4BD8D3A200E
:1039100031E4BD8D0D0A00005B53657269616C2056
:10392000496E69745D20202D20E6A0A1E9AA8CE4EF
:10393000BD8D3A20E697A00D0A0000005B5365722A
:1039400069616C20496E69745D20202D20E6B58187
:10395000E68EA7E588B63A20E697A00D0A0000009B
:103960005B53657269616C20496E69745D20202D1E
:1039700020E6A8A1E5BC8F3A20E694B6E58F91E653
:10398000A8A1E5BC8F0D0A005B53657269616C20CC
:10399000496E69745D20342E20E9858DE7BDAEE463
:1039A000B8ADE696AD2E2E2E0D0A00005B53657263
:1039B00069616C20496E69745D20202D205553414A
:1039C000525432E4B8ADE696AD3A20E5B7B2E59090
:1039D000AFE794A80D0A00005B53657269616C2023
:1039E000496E69745D20202D20E4B8ADE696ADE502
:1039F000A484E79086E587BDE695B03A205553410B
:103A00005254325F49525148616E646C65720D0ABE
:103A1000000000005B53657269616C20496E697437
:103A20005D20202D20E68AA2E58DA0E4BC98E585E6
:103A300088E7BAA73A20310D0A0000005B5365728F
:103A400069616C20496E69745D20202D20E5AD9080
:103A5000E4BC98E58588E7BAA73A20310D0A000052
:103A60003348FEF7C3FE33A0FEF75EFF0121304866
:103A7000FEF779FE3CA0FEF757FF46A0FEF754FF85
:103A8000EF20ADF808004EF65F20ADF804000020EE
:103A9000ADF80A00ADF8060001A94FF08040FEF72E
:103AA00051FC47A0FEF740FF4EF65F214DA0FEF708
:103AB0003BFF55A0FEF738FF5EA0FEF735FF1C2048
:103AC0008DF8200002208DF8210001208DF82200C1
:103AD00008A8FDF7C1FD012211469007FEF726FC5C
:103AE0005EA0FEF721FF69A0FEF71EFFAFF2B40053
:103AF000FEF71AFF6F4800886FF30E006D490880CB
:103B00000846008820F40040088000206A490880A8
:103B10006A4908806AA0FEF707FF74A0FEF704FF59
:103B20007EA0FEF701FF89A0FEF7FEFE0AB010BDE1
:103B3000004400405B53657269616C20496E697492
:103B40005D20352E20E590AFE794A8E68EA5E6949B
:103B5000B6E4B8ADE696AD3A20E5B7B2E590AFE78A
:103B600094A80D0A000000005B53657269616C2027
:103B7000496E69745D20362E20E590AFE794A85514
:103B800053415254323A20E5B7B2E590AFE794A8DA
:103B90000D0A00005B53657269616C20496E69749F
:103BA0005D20372E20E9858DE7BDAE54494D32E5C5
:103BB000AE9AE697B6E599A82E2E2E0D0A000000C3
:103BC0005B53657269616C20496E69745D20202DBC
:103BD00020E5AE9AE697B6E599A83A2054494D32C9
:103BE0000D0A00005B53657269616C20496E69744F
:103BF0005D20202D20E9A284E58886E9A291E5993F
:103C0000A83A2025640D0A005B53657269616C2037
:103C1000496E69745D20202D20E887AAE58AA8E90D
:103C2000878DE8A385E8BDBDE580BC3A20323339F5
:103C30000D0A00005B53657269616C20496E6974FE
:103C40005D20202D20E8B685E697B6E697B6E99781
:103C5000B43A203230306D730D0A00005B53657248
:103C600069616C20496E69745D20382E20E9858D6C
:103C7000E7BDAE54494D32E4B8ADE696AD3A20E525
:103C8000B7B2E590AFE794A80D0A00005B536572E8
:103C900069616C20496E69745D20202D20E68AA23E
:103CA000E58DA0E4BC98E58588E7BAA73A20320DF7
:103CB0000A0000002C0000202E0000203000002010
:103CC0005B53657269616C20496E69745D20392EA1
:103CD00020E5889DE5A78BE58C96E7BC93E586B249
:103CE000E58CBA2E2E2E0D0A000000005B53657283
:103CF00069616C20496E69745D20202D20E68EA5D7
:103D0000E694B6E7BC93E586B2E58CBA3A20E5B70F
:103D1000B2E6B885E7A9BA0D0A0000005B536572E8
:103D200069616C20496E69745D20202D20E58F91BA
:103D3000E98081E7BC93E586B2E58CBA3A20E5B725
:103D4000B2E6B885E7A9BA0D0A0000005B536572B8
:103D500069616C20496E69745D2057694669E6A8FF
:103D6000A1E59D97E4B8B2E58FA3E5889DE5A78B13
:103D7000E58C96E5AE8CE68890EFBC810D0A0D0AC5
:103D8000000000000FB410B5A2B025A8219080213A
:103D900001A8219B249AFEF7EBFD84B2002021901C
:103DA000002C1CDD00BF12E001A9095C0E4A0F4B7C
:103DB0001B88D1540D4A1288511CCA1701EB52625C
:103DC000D211A1EBC212094B1A80411C88B2A04249
:103DD000EADB012240F227710548FEF707FD22B019
:103DE00010BC5DF814FB0000140200202E0000201F
:103DF00000440040084800880121B1EBD03F08D1C1
:103E0000002005490988C1F30E01044A50541046A8
:103E100070470020FCE700002C0000201401002067
:103E2000054800886FF30E000349088008460088A3
:103E300020F40040088070472C00002010B50024BA
:103E40004FF47A7208A109A0FFF744FB50B9FFF7BD
:103E5000D1FF044634B108A12046FCF777F908B138
:103E6000012010BD0020FCE74F4B000041542B43C4
:103E700057535441545553002B43575354415455B1
:103E8000533A320030B585B00024002530E00523D8
:103E9000621C1DA11EA0FEF747FD28A11AA0FFF776
:103EA000F1FA98B928A0FEF73FFD14216846FCF707
:103EB00042F96846FFF77CFA18B9694629A0FEF76F
:103EC00033FD01202E490870012513E0601C4100DC
:103ED0002CA0FEF729FD601CC4B2611C01EB41025D
:103EE000C2EBC1114FF6FF7202EA011000F08CF82C
:103EF000052CCCDB00BF052C03DB2DA0FEF714FD49
:103F00000025284605B030BD7669766F53313800FC
:103F10005B576946695D20E8BF9EE68EA5E588B0DF
:103F2000576946693A2025732028E5B09DE8AF958A
:103F30002025642F2564290D0A0000003132333416
:103F400035363738000000005B576946695D2057F9
:103F5000694669E8BF9EE68EA5E68890E58A9F0DD2
:103F60000A0000005B576946695D20E88EB7E58F5F
:103F7000964950E59CB0E59D803A2025730D0A00D6
:103F8000380000205B576946695D2057694669E83B
:103F9000BF9EE68EA5E5A4B1E8B4A5EFBC8C256470
:103FA000E7A792E5908EE9878DE8AF950D0A0000AE
:103FB0005B576946695D2057694669E8BF9EE68E92
:103FC000A5E5A4B1E8B4A5EFBC8CE5B7B2E8BEBEE8
:103FD000E588B0E69C80E5A4A7E9878DE8AF95E683
:103FE000ACA1E695B00D0A0010B504466FF00400D0
:103FF000FEF71DF92046E11704EB5171C910014A83
:10400000116010BD140000200146134A12684A4393
:104010004FF47A735A434FF0E0235A6100229A61B9
:104020001A46126942F001021A6100BF4FF0E02205
:10403000106900F001021AB100F48032002AF5D0B4
:104040004FF0E022126922F001024FF0E0231A61E2
:1040500000229A6170470000140000200146114AB6
:1040600012684A434FF0E0235A6100229A611A46CF
:10407000126942F001021A6100BF4FF0E02210699C
:1040800000F001021AB100F48032002AF5D04FF09E
:10409000E022126922F001024FF0E0231A610022AF
:1040A0009A6170471400002000BF054A128802F090
:1040B0008002002AF9D0C2B2014B1B1D1A80704742
:1040C0000038014010B5002413A0FEF72DFC1BA200
:1040D00001210846FDF72AFC1CA201210220FDF760
:1040E00025FC4FF4E130FFF7BDF948B91BA0FEF7FE
:1040F0001BFC24A201210220FDF718FC012408E08A
:1041000023A0FEF711FC2CA201210220FDF70EFCDA
:104110000024204610BD00005B53797374656D5D0B
:1041200020E5889DE5A78BE58C9657694669E6A84A
:10413000A1E59D972E2E2E0D0A0000002020537918
:104140007374656D20496E69740000002020576902
:104150004669204D6F64756C650000005B53797390
:1041600074656D5D2057694669E6A8A1E59D97E5F0
:10417000889DE5A78BE58C96E68890E58A9F0D0AD9
:10418000000000002020496E69743A204F4B000067
:104190005B53797374656D5D2057694669E6A8A124
:1041A000E59D97E5889DE5A78BE58C96E5A4B1E8AC
:1041B000B4A50D0A000000002020496E69743A2061
:1041C0004661696C65640000A0B04820FFF70CFFF1
:1041D0004FF4E13001F0FEFAFDF7B2F9FDF704FB10
:1041E000FDF7A4FCFCF7F0FEFDF7DAF9FDF7C0FCE3
:1041F0004FF4E130FFF79AF9C5A0FEF795FBFDF704
:10420000FDFCFDF761FACDA201210846FDF78EFB0A
:10421000CEA203210120FDF789FBFFF753FF002801
:104220003AD0CEA203210120FDF780FBCFA20521C9
:104230000120FDF77BFBFFF725FE002826D0CFA04D
:10424000FEF772FBDCA205210120FDF76FFB4FF4A6
:104250007A70FFF7D9FE00F083FF01F0ABF8FDF7AD
:1042600033FAD8A201210846FDF760FBD9A201214B
:104270000220FDF75BFBDAA201210320FDF756FBCC
:10428000DBA201210420FDF751FB0AE0DCA205219D
:104290000120FDF74BFB04E0DDA203210120FDF727
:1042A00045FBF9E2DF480068401CDE490860FEF784
:1042B0009BF88246BAF1030F06D10120FDF7F6FB09
:1042C000D948FEF731FB25E0BAF1040F06D10020F2
:1042D000FDF7ECFBD548FEF727FB1BE0BAF1010F19
:1042E00018D1D3480078002811D0CE48D1A1026857
:1042F0006846FEF729FB6846FBF73AFF84B2DDA06B
:10430000FEF712FB2146684600F0A4FB02E0E9A09C
:10431000FEF70AFBF348008800F4004030B1F24990
:10432000F2A0FEF701FB0020EE490880BD480068BE
:1043300042F21071B0FBF1F201FB1200002849D1EA
:10434000FFF77CFD04466CB1B948007850B9F0A085
:10435000FEF7EAFA0120B649087097A20521FDF799
:10436000E5FA36E0002C28D1B1480078002824D0A6
:10437000EEA0FEF7D9FA0020AD490870F2A205219F
:104380000120FDF7D3FAF4A0FEF7CEFAFAA2052138
:104390000120FDF7CBFAFFF775FD40B1FAA0FEF75B
:1043A000C3FA85A205210120FDF7C0FA11E0FDA2A4
:1043B00005210120FDF7BAFA0BE054B19C480078C2
:1043C00038B1FDA0FEF7B0FA7BA205210120FDF770
:1043D000ADFA00BF9348006847F23051B0FBF1F2EC
:1043E00001FB120008B900F0BBFE8E480068F949D5
:1043F000B0FBF1F201FB120000287CD1FCF7FCFDC0
:10440000002879D1FCF7DAFD1F90FCF7D1FD1E9052
:10441000FDF706F91D90FDF7B7F81C9000201B90E2
:104420001A901990189018AB19AA1AA91BA8FDF791
:1044300039FE8346BBF1000F29D11898FCF734F9F7
:1044400004460D461A98FCF72FF906460F461B98AE
:10445000FCF72AF9804689461C98FCF720F90F9052
:10446000FCF722F9CDE90845CDE91001BDF864005B
:10447000CDE90289CDE9046706901098CDE90001E5
:10448000D548DDE91D321F99FEF74EFA0DE01C9864
:10449000FCF705F90646FCF707F9CDE90001CF481E
:1044A000DDE91D321F99FEF73FFA6148007870B3CD
:1044B0001F98FCF7F4F804462146C9A0FDF7E2FB7B
:1044C0004FF4FA70FFF7A0FD1E98FCF7E8F80446D9
:1044D0002146C5A0FDF7D6FB4FF4FA70FFF794FD17
:1044E0001C98FCF7DCF804462146C1A0FDF7CAFB86
:1044F0004FF4FA7001E0CBE1C7E1FFF785FDBBF1B6
:10450000000F04D1BCA01B99FDF7BCFB78E183E14F
:104510005B53797374656D5D2057694669E6A8A1A0
:10452000E59D97E4B8B2E58FA3E5889DE5A78BE507
:104530008C96E68890E58A9F0D0A0000202053792A
:104540007374656D20496E697400000020205769FE
:10455000466920496E69742E2E2E0000202057696E
:10456000466920496E6974204F4B00002020436F3C
:104570006E6E656374696E672E2E2E005B537973C1
:1045800074656D5D2057694669E8BF9EE68EA5E5B6
:10459000AE8CE68890EFBC8CE58786E5A487E8BF03
:1045A0009BE8A18CE4B88BE4B880E6ADA5E8AEA1A9
:1045B000E588920D0A0000002020436F6E6E65634F
:1045C00074656400202053797374656D20526561B1
:1045D000647900002020576946693A204F4B00005B
:1045E0002020546F756368204B65793A204F4E0048
:1045F000202052656C61793A204F46460000000049
:104600002020436F6E6E656374204661696C000004
:1046100020205769466920496E6974204661696C9B
:104620000000000034000020EC5E0008305F00084D
:10463000380000207B2274797065223A22746573F9
:1046400074222C226D657373616765223A22486576
:104650006C6C6F2066726F6D2053544D3332222C78
:104660002274696D657374616D70223A256C757D75
:10467000000000005B53797374656D5D20E8A7A6A8
:10468000E691B8E68C89E994AE41E68C89E4B88B72
:10469000EFBC8CE58F91E98081E6B58BE8AF95E6BC
:1046A00095B0E68DAEE588B0E69C8DE58AA1E599EA
:1046B000A80D0A005B53797374656D5D20576946D8
:1046C00069E69CAAE8BF9EE68EA5EFBC8CE697A0A3
:1046D000E6B395E58F91E98081E695B0E68DAE0D64
:1046E0000A000000240000204C0000205B53797376
:1046F00074656D5D20E694B6E588B0E4B8B2E58FE8
:10470000A3E695B0E68DAE3A2025730D0A000000B1
:104710005B576946695D2057694669E9878DE6966A
:10472000B0E8BF9EE68EA50D0A0000005B57694603
:10473000695D2057694669E8BF9EE68EA5E696AD9D
:10474000E5BC800D0A0000002020446973636F6E91
:104750006E656374656400005B576946695D20E5BA
:10476000B09DE8AF95E9878DE696B0E8BF9EE68EEE
:10477000A52E2E2E0D0A000020205265636F6E6E4E
:10478000656374696E6700005B576946695D20E97F
:10479000878DE696B0E8BF9EE68EA5E68890E58A0E
:1047A0009F0D0A0020205265636F6E6E6563742052
:1047B0004661696C000000005B576946695D2057DF
:1047C000694669E8BF9EE68EA5E6ADA3E5B8B80DDB
:1047D0000A000000C0D40100B8600008686000084A
:1047E000542D303031000000482D303031000000B1
:1047F0004C2D303031000000532D3030310000009E
:104800004FF4FA70FFF700FC24A01A99FDF73AFA6A
:104810004FF4FA70FFF7F8FBFCF756FF21A20121D5
:104820000846FDF783F823A113A81F9AFEF78CF81A
:1048300013AA01210220FDF779F821A113A81E9ADD
:10484000FEF782F813AA01210320FDF76FF8BBF1F0
:10485000000F0FD11B98FBF727FF044622460B469B
:104860001BA113A8FEF770F813AA01210420FDF77D
:104870005DF809E01AA113A81C9AFEF765F813AABF
:1048800001210420FDF752F802E019A0FEF74CF8D0
:104890000120FFF7B9FB00BF04E50000542D3030C4
:1048A00032000000202053656E736F7220446174E3
:1048B00061000000202054656D703A2025640000DE
:1048C000202048756D693A202564252500000000E8
:1048D0002020536F696C3A20252E31662525000073
:1048E00020204C696768743A202564252500000063
:1048F0005B53656E736F725D20E6B8A9E6B9BFE5DC
:10490000BAA6E4BCA0E6849FE599A8E8AFBBE58F12
:1049100096E5A4B1E8B4A50D0A00000030B591B049
:10492000044600250020009022461CA101A8FEF7A5
:104930000BF801A91DA0FDF7F7FF43F6982223A16C
:1049400001A8FEF7C7FD002822D1FFF753FA05465C
:10495000002D1DD01EA12846FBF7F8FB002817D01C
:104960001DA12846FBF7F2FB28B11FA0FDF7DCFFD5
:10497000002011B030BD6A4621A12846FBF700FC9B
:10498000012805D121A00099FDF7CEFF0098F0E79E
:1049900027A0FDF7C9FF0020EBE7000041542B5092
:1049A000494E473D22257322000000005B444542EA
:1049B00055475D20E58F91E9808150696E67E591EB
:1049C000BDE4BBA43A2025730D0A00004F4B000044
:1049D0002B50494E473A00002B50494E473A544914
:1049E0004D454F55540000005B44454255475D20FE
:1049F00050696E67E8B685E697B60D0A00000000BC
:104A0000252A5B5E302D395D257500005B444542EB
:104A100055475D2050696E67E5938DE5BA94E6973A
:104A2000B6E997B43A20256C75206D730D0A000025
:104A30005B44454255475D2050696E67E591BDE492
:104A4000BBA4E689A7E8A18CE5A4B1E8B4A50D0A4A
:104A50000000000070B588B005460C46002618A17D
:104A600019A0FEF71DFC002824D11BA0FDF75CFF58
:104A7000224622A16846FDF767FF4FF4FA6223A1A0
:104A80006846FEF727FD88B921A0FDF74DFF2846AF
:104A9000FFF778F94FF47A70FFF7B6FA4FF4FA623D
:104AA00022A123A0FEF716FD012602E023A0FDF7B8
:104AB0003BFF02E029A0FDF737FF304608B070BD8C
:104AC00033303030000000003139322E3136382E8C
:104AD0003232352E343300005B5365727665725D79
:104AE00020E8BF9EE68EA5E69C8DE58AA1E599A803
:104AF000E68890E58A9F0D0A0000000041542B4390
:104B0000495053454E443D25640000003E000000DE
:104B10005B5365727665725D20E58F91E98081E671
:104B200095B0E68DAE2E2E2E0D0A00004F4B0000E4
:104B300041542B434950434C4F5345005B536572DE
:104B40007665725D20E58F91E98081E591BDE4BBDA
:104B5000A4E5A4B1E8B4A50D0A0000005B5365729A
:104B60007665725D20E8BF9EE68EA5E69C8DE58A9F
:104B7000A1E599A8E5A4B1E8B4A50D0A00000000DC
:104B80002DE9F04788B006460F4690464FF00009E1
:104B9000002413E10320631C3A46314600908BA0A9
:104BA000FDF7C2FE97A201210320FCF7BFFE99A2E8
:104BB00001210420FCF7BAFEFFF732F998A0FDF7B7
:104BC000B3FE4FF47A72A1A1A1A0FEF783FC39468F
:104BD0003046FEF765FB00287AD1A0A0FDF7A4FEC1
:104BE000A6A201210320FCF7A1FE8AA20121042034
:104BF000FCF79CFE0120A4490870FFF711F940461C
:104C0000FBF7B6FA82465246A0A16846FDF79CFE25
:104C10006946A2A0FDF788FE4FF4FA62A7A1684694
:104C2000FEF758FC002879D1A5A0FDF77DFEB0A2C3
:104C300001210320FCF77AFEB0A201210420FCF739
:104C400075FEFFF7EDF84046FFF79CF8AEA0FDF7C4
:104C50006BFEB5A201210320FCF768FEA7A201218B
:104C60000420FCF763FEB2A0FDF75EFEB9A20121AD
:104C70000320FCF75BFEBAA201210420FCF756FEDC
:104C80004FF4FA50FFF7C0F9FFF7B4F80546002DCE
:104C900045D0B6A0FDF748FEBCA0FDF745FE29466D
:104CA00084A0FDF741FEC3A12846FBF74FFA80B16F
:104CB000C2A0FDF739FECBA201210320FCF736FE8E
:104CC000CBA201210420FCF731FE4FF0010933E0B3
:104CD00055E0C9A12846FBF739FA78B1C9A0FDF71C
:104CE00023FED7A201210320FCF720FED7A2012139
:104CF0000420FCF71BFE4FF000091DE0D5A0FDF7D6
:104D000013FEB8A201210320FCF710FECFA201215F
:104D10000420FCF70BFE4FF001090DE00DE0D7A0D9
:104D2000FDF702FEE0A201210320FCF7FFFD8CA2AB
:104D300001210420FCF7FAFD0CE0DDA0FDF7F4FDF5
:104D4000E5A201210320FCF7F1FDE5A201210420E9
:104D5000FCF7ECFDE4A0FDF7E7FD4FF4FA623BA1A0
:104D6000E8A0FEF7B7FB0020474908704FF47A70BF
:104D7000FFF74AF9B9F1000F00D022E00CE0E4A0FF
:104D8000FDF7D2FDECA201210320FCF7CFFDD4A258
:104D900001210420FCF7CAFD601CC4B2032C0DDA0B
:104DA0002146E8A0FDF7C0FD04EB4401C1EBC411AE
:104DB0004FF6FF7202EAC100FFF726F9032CFFF657
:104DC000E9AE00BF484608B0BDE8F0875B44454205
:104DD00055475D20E5B09DE8AF95E8BF9EE68EA5FE
:104DE000E69C8DE58AA1E599A83A2025733A2573BA
:104DF0002028E5B09DE8AF952025642F2564290D76
:104E00000A0000002020436F6E6E656374696E6750
:104E100000000000202053657276657200000000DB
:104E20005B44454255475D20E5BCBAE588B6E8AE2F
:104E3000BEE7BDAEE58D95E8BF9EE68EA5E6A8A1CE
:104E4000E5BC8F2E2E2E0D0A000000004F4B0000F7
:104E500041542B4349504D55583D30005B44454229
:104E600055475D20E8BF9EE68EA5E69C8DE58AA1AC
:104E7000E599A8E68890E58A9F0D0A002020436FF7
:104E80006E6E6563746564003900002041542B43E5
:104E9000495053454E443D25640000005B44454263
:104EA00055475D20E58F91E980814154E591BDE44E
:104EB000BBA43A2025730D0A000000003E0000004C
:104EC0005B44454255475D20E694B6E588B0273EF1
:104ED00027E68F90E7A4BAE7ACA6EFBC8CE58F91EC
:104EE000E9808148545450E8AFB7E6B1820D0A001A
:104EF000202053656E64696E6700000020205265B3
:104F000071756573740000005B44454255475D2030
:104F100048545450E8AFB7E6B182E5B7B2E58F9197
:104F2000E980810D0A000000202053656E740000A6
:104F30005B44454255475D20E7AD89E5BE85E69C6B
:104F40008DE58AA1E599A8E5938DE5BA942E2E2EDC
:104F50000D0A0000202057616974696E6700000027
:104F60002020526573706F6E736500005B4445428C
:104F700055475D20E694B6E588B0E69C8DE58AA1AC
:104F8000E599A8E5938DE5BA940D0A005B53657227
:104F900076657220546573745D20E694B6E588B03A
:104FA000E69C8DE58AA1E599A8E5938DE5BA943A4A
:104FB000200D0A00323030204F4B00005B536572E9
:104FC00076657220546573745D20E69C8DE58AA138
:104FD000E599A8E5938DE5BA94E6ADA3E5B8B80DDB
:104FE0000A00000020205365727665723A000000C6
:104FF00020204F4B0000000041542B4349505345A3
:105000004E4400005B53657276657220546573747C
:105010005D20E694B6E588B04154E591BDE4BBA4BB
:10502000E59B9EE698BEEFBC8CE6A8A1E59D97E7C0
:105030008AB6E68081E5BC82E5B8B80D0A000000BA
:1050400020204D6F64756C653A0000002020457289
:10505000726F72005B53657276657220546573746B
:105060005D20E69C8DE58AA1E599A8E5938DE5BADA
:1050700094E5BC82E5B8B80D0A0000005B53657288
:1050800076657220546573745D20E69CAAE694B63A
:10509000E588B0E69C8DE58AA1E599A8E5938DE5C4
:1050A000BA940D0A0000000020204E6F000000009E
:1050B0005B53657276657220546573745D20E58F6D
:1050C00091E980814154E591BDE4BBA4E5A4B1E838
:1050D000B4A50D0A000000002020436D643A0000D2
:1050E00020204661696C00005B44454255475D20C5
:1050F000E585B3E997AD544350E8BF9EE68EA50D14
:105100000A00000041542B434950434C4F53450083
:105110005B53657276657220546573745D20E8BFD9
:105120009EE68EA5E69C8DE58AA1E599A8E5A4B149
:10513000E8B4A50D0A0000002020436F6E6E656381
:10514000740000005B44454255475D202564E7A795
:1051500092E5908EE9878DE8AF952E2E2E0D0A00F0
:1051600010B586B02C48007800280AD12BA0FDF796
:10517000DBFB35A0FDF7D8FB28A0FDF7D5FB06B07B
:1051800010BD26A0FDF7D0FB3AA0FDF7CDFB43A054
:10519000FDF7CAFB21A0FDF7C7FB4BA20121084682
:1051A000FCF7C4FB4CA201210220FCF7BFFB4EA080
:1051B000FFF7B4FB04469CB121464FA0FDF7B4FBBA
:1051C0005BA201210220FCF7B1FB22465BA101A8F2
:1051D000FDF7BAFB01AA01210320FCF7A7FB0CE0B5
:1051E00059A0FDF7A1FB66A201210220FCF79EFB5E
:1051F00066A201210320FCF799FB08A0FDF794FBB0
:1052000065A0FDF791FB05A0FDF78EFB4FF4FA605A
:10521000FEF7FAFE00BFB2E7380000203D3D3D3DFD
:105220003D3D3D3D3D3D3D3D3D3D3D3D3D3D3D3DAE
:105230003D3D3D3D3D3D3D3D3D3D3D3D3D3D3D3D9E
:105240003D3D0D0A000000005B4261696475205419
:105250006573745D2057694669E69CAAE8BF9EE6BF
:105260008EA5EFBC8CE8B7B3E8BF87E6B58BE8AF97
:10527000950D0A005B426169647520546573745D25
:1052800020E6B58BE8AF95E799BEE5BAA6E8BF9EE4
:10529000E68EA52E2E2E0D0A000000005B426169ED
:1052A000647520546573745D20E6B58BE8AF95E5B1
:1052B0009CB0E59D803A207777772E6261696475AE
:1052C0002E636F6D0D0A0000202042616964752015
:1052D0005465737400000000202050696E67696E89
:1052E000672E2E2E000000007777772E62616964AA
:1052F000752E636F6D0000005B4261696475205418
:105300006573745D2050696E67E799BEE5BAA63A89
:1053100020E68890E58A9F202D20E5938DE5BA94BC
:10532000E697B6E997B420256C75206D730D0A00D9
:105330002020537563636573730000002020256C83
:1053400075206D73000000005B4261696475205434
:105350006573745D2050696E67E799BEE5BAA63A39
:1053600020E5A4B1E8B4A5202D20E8B685E697B6DF
:10537000E68896E4B88DE58FAFE8BEBE0D0A000062
:1053800020204661696C656400000000202054699B
:105390006D656F75740000005B426169647520542F
:1053A0006573745D20E6B58BE8AF95E5AE8CE68855
:1053B000900D0A00F0B5CBB050A0FDF7B5FA5AA099
:1053C000FDF7B2FA64A269A16CA0FDF7ADFA032162
:1053D00075A0FDF7A9FA49A0FDF7A6FA7BA063A383
:1053E0005DA27C4900900BA8FDF7AEFA00250026CF
:1053F00001245BE078A0FDF797FA0322214681A003
:10540000FDF792FA3DA0FDF78FFA0323224685A10E
:1054100001A8FDF799FA87A201210846FCF786FA50
:1054200001AA01210220FCF781FA86A0FDF77CFA8F
:105430000BA98EA0FDF778FA8EA201210320FCF7BC
:1054400075FA8FA201210420FCF770FA0BAA8FA134
:1054500046A0FFF795FB074639468EA0FDF764FA94
:1054600077B16D1C94A0FDF75FFA9DA20121032086
:10547000FCF75CFA9DA201210420FCF757FA0DE02D
:10548000761C9CA0FDF750FA95A201210320FCF7A1
:105490004DFAA2A201210420FCF748FAA1A0FDF7D1
:1054A00043FA40F6B830FEF7AFFD641C032CA1DDD3
:1054B00049A0FDF739FAA7A0FDF736FA03222946DD
:1054C000ACA0FDF731FA03223146B3A0FDF72CFA68
:1054D0000AA0FDF729FAB9A201210846FCF726FA2D
:1054E00003232A46B8A106A8FDF72EFA06AA012131
:1054F0000220FCF71BFA4BB0F0BD00003D3D3D3DE6
:105500003D3D3D3D3D3D3D3D3D3D3D3D3D3D3D3DCB
:105510003D3D3D3D3D3D3D3D3D3D3D3D3D3D3D3DBB
:105520003D3D0D0A000000005B53657276657220F8
:10553000546573745D20E6B58BE8AF95E69C8DE508
:105540008AA1E599A8E581A5E5BAB7E78AB6E6801C
:10555000812E2E2E0D0A00002F6170692F6D6F6E47
:1055600069746F722F6865616C7468003139322E0E
:105570003136382E3232352E343300005B536572AB
:1055800076657220546573745D20E6B58BE8AF953F
:10559000E59CB0E59D803A20687474703A2F2F2501
:1055A0007325730D0A0000005B53657276657220E7
:1055B000546573745D20E6B58BE8AF95E6ACA1E663
:1055C00095B03A202564E6ACA10D0A007669766FA5
:1055D00053313800E85F00080D0A3D3D3D3D3D3D3B
:1055E0003D3D3D3D3D3D3D3D3D3D3D3D3D3D3D3DEB
:1055F0003D3D3D3D3D3D3D3D3D3D3D3D3D3D3D3DDB
:105600000D0A00005B5365727665722054657374F1
:105610005D20E6B58BE8AF95202325642F25640D2A
:105620000A0000005465737420253032642F25640D
:105630000000000020205365727665722054657367
:10564000740000005B536572766572205465737454
:105650005D20E58F91E98081E8AFB7E6B182E5860C
:1056600085E5AEB93A200D0A0000000025730D0A49
:1056700000000000202053656E64696E6700000022
:10568000202052657175657374000000333030302E
:10569000000000005B536572766572205465737478
:1056A0005D20E78AB6E68081E8BF94E59B9EE580B1
:1056B000BC3A2025640D0A005B5365727665722042
:1056C000546573745D20E6B58BE8AF95E7BB93E650
:1056D0009E9C3A20E68890E58A9F0D0A0000000013
:1056E0002020526573756C743A00000020204F4BE7
:1056F000000000005B536572766572205465737418
:105700005D20E6B58BE8AF95E7BB93E69E9C3A201B
:10571000E5A4B1E8B4A50D0A000000002020466110
:10572000696C00005B44454255475D20E7AD89E563
:10573000BE8533E7A792E8BF9BE8A18CE4B88BE471
:10574000B880E6ACA1E6B58BE8AF952E2E2E0D0AFB
:10575000000000005B5365727665722054657374B7
:105760005D20E6B58BE8AF95E5AE8CE688900D0A36
:10577000000000005B536572766572205465737497
:105780005D20E68890E58A9FE6ACA1E695B03A20D8
:1057900025642F25640D0A005B53657276657220BF
:1057A000546573745D20E5A4B1E8B4A5E6ACA1E648
:1057B00095B03A2025642F25640D0A0020205465F9
:1057C000737420446F6E6500202025642F256420AB
:1057D0004F4B000010B5044601210420FCF7ECF803
:1057E00001210420FCF7E8F801218803FCF7E4F824
:1057F0004FF400701A4908801820C8700320887080
:105800001848FBF7ABFD4FF480601549088028204D
:10581000C8701448FBF7A2FD134804600020124929
:105820008880C880088188810C2048810F48FDF756
:1058300003F801210D48FCF796FF25200C4908705C
:105840000320487088700120C8700846FBF704FFE9
:10585000012240F225510548FCF7C8FF10BD0000A9
:1058600018000020000801403C00002000380140E2
:105870001C000020000000000000000000000000EC
:1058800000000000000000F80000000000000033ED
:105890003000000000100C06100C06000000000094
:1058A0000000000040C07840C0784000043F04047D
:1058B0003F040400007088FC08300000001820FF3E
:1058C000211E0000F008F000E018000000211C0379
:1058D0001E211E0000F00888700000001E212324F5
:1058E0001927211010160E00000000000000000013
:1058F00000000000000000E01804020000000007A3
:105900001820400000020418E000000000402018A9
:1059100007000000404080F0804040000202010F7C
:1059200001020200000000F0000000000101011F60
:1059300001010100000000000000000080B07000C4
:105940000000000000000000000000000001010154
:1059500001010101000000000000000000303000E3
:1059600000000000000000008060180400601806BD
:105970000100000000E010080810E000000F1020F7
:1059800020100F00001010F8000000000020203F41
:1059900020200000007008080888700000302824CB
:1059A000222130000030088888483000001820206C
:1059B00020110E000000C02010F800000007042491
:1059C000243F240000F808888808080000192120D6
:1059D00020110E0000E0108888180000000F112030
:1059E00020110E0000380808C83808000000003FE9
:1059F000000000000070880808887000001C222148
:105A000021221C0000E010080810E00000003122F4
:105A100022110F00000000C0C00000000000003094
:105A200030000000000000800000000000008060E6
:105A30000000000000008040201008000001020467
:105A4000081020004040404040404000040404044E
:105A5000040404000008102040800000002010080A
:105A600004020100007048080808F000000000303F
:105A700036010000C030C828E810E00007182724CD
:105A800023140B000000C038E0000000203C23027B
:105A90000227382008F8888888700000203F2020DE
:105AA00020110E00C0300808080838000718202010
:105AB0002010080008F808080810E000203F202007
:105AC00020100F0008F88888E8081000203F2020E8
:105AD0002320180008F88888E8081000203F2000DC
