:020000040800F2
:1000000008B80020E50E0008D5020008D702000855
:10001000D9020008DB020008DD0200080000000031
:10002000000000000000000000000000DF020008E7
:10003000E102000800000000E3020008E5020008F9
:10004000FF0E0008FF0E0008FF0E0008FF0E00085C
:10005000FF0E0008FF0E0008FF0E0008FF0E00084C
:10006000FF0E0008FF0E0008FF0E0008FF0E00083C
:10007000FF0E0008FF0E0008FF0E0008FF0E00082C
:10008000FF0E0008FF0E0008FF0E0008FF0E00081C
:10009000FF0E0008FF0E0008FF0E0008FF0E00080C
:1000A000FF0E0008FF0E0008FF0E0008FF0E0008FC
:1000B000FF0E0008FF0E0008FF0E0008FF0E0008EC
:1000C000FF0E0008FF0E0008FF0E0008FF0E0008DC
:1000D000FF0E0008610E0008BD090008FF0E0008B1
:1000E000FF0E0008FF0E0008FF0E0008FF0E0008BC
:1000F000FF0E0008FF0E0008FF0E0008FF0E0008AC
:10010000FF0E0008FF0E0008FF0E0008FF0E00089B
:10011000FF0E0008FF0E0008FF0E0008FF0E00088B
:10012000FF0E0008FF0E0008FF0E0008FF0E00087B
:1001300000F002F800F03CF80AA090E8000C8244BD
:100140008344AAF10107DA4501D100F031F8AFF29A
:10015000090EBAE80F0013F0010F18BFFB1A43F0A5
:1001600001031847AC240000CC240000103A24BF3F
:1001700078C878C1FAD8520724BF30C830C144BF0C
:1001800004680C607047000000230024002500264E
:10019000103A28BF78C1FBD8520728BF30C148BFEA
:1001A0000B607047002070471FB51FBD10B510BD14
:1001B00001F098FC1146FFF7F7FF00F009F801F095
:1001C000B6FC03B4FFF7F2FF03BC00F0F3FD000040
:1001D00008B54FF4A06000F0A5FE00F09FFD00F010
:1001E0002FF900F089F9002000F0C8FC4FF4806777
:1001F000384600F001FA284C4FF4E135606028469B
:1002000000F0E2FD284600F0EEFB4FF4FA6505E051
:1002100022A001F003FB284600F0AEFD002000F014
:100220001BFB0028F4D10025224E25606068D0E930
:100230000212914215D00122694600F036FA1E4A98
:1002400020689DF800101154401C2060084600F002
:10025000A5FA2168B94213D3174800F02DFE256096
:100260000EE0216819B1144800F026FE2560D6F88A
:10027000940178B10020C6F89401642000F07CFD60
:10028000002000F053F90128D0D116210BA000F076
:100290002DFACBE70120EEE70000002041544B2D62
:1002A00044545520496E6974204661696C202E2E95
:1002B0002E0D0A0000802142A0000020414C49453B
:1002C0004E54454B2041544B2D4D3735312054452C
:1002D000535400007047FEE7FEE7FEE7FEE7704775
:1002E00070477047704700000CB500224C480092E0
:1002F0000192016841F4803101604FF4A06301680C
:1003000001F4003101910099491C0091019911B942
:1003100000999942F3D10168890333D501210191F4
:1003200040490A6842F010020A600A6822F003029B
:100330000A600A6842F002020A604168416041684E
:100340004160416841F480614160416821F47C1161
:100350004160416841F4E8114160016841F08071F9
:10036000016001688901FCD5416821F00301416009
:10037000416841F0020141604168C1F381010229F5
:10038000FAD10CBD01920CBD254810B5016841F0B1
:10039000010101604168244A114041600168234A1B
:1003A00011400160016821F480210160416821F45D
:1003B000FE0141604FF41F018160FFF795FF1C496A
:1003C0004FF00060086010BD154A10B55068194B19
:1003D00010F00C01184803D0042901D0082901D0DD
:1003E000036012E05168536801F470114FF0020489
:1003F00013F4803F04EB914102D053689B0301D575
:100400000E4B00E00B4B5943016051680A4AC1F39F
:100410000311121D515C0268CA40026010BD000049
:1004200000100240002002400000FFF8FFFFF6FE2F
:1004300008ED00E000127A000800002000093D00ED
:1004400038B50121482001F004F82024ADF800401F
:1004500010208DF803000320244D8DF8020069461A
:10046000284600F00EFE2021284600F074FEADF86C
:1004700000401F4C6946204600F003FE2021204624
:1004800000F069FE38BD70B51A4E044606EBC4058F
:1004900056F83400A98800F054FE0128A98856F8BF
:1004A000340003D0BDE8704000F055BEBDE8704098
:1004B00000F053BE2DE9F04100250E4F2C460126D9
:1004C00007EBC400818857F8340000F03AFE00289A
:1004D00006FA04F001D0854301E02843C5B2641C4C
:1004E000E4B2022CECD32846BDE8F081000C0140B8
:1004F000001801401C00002008B50121442000F034
:10050000A8FF1C20ADF8000048208DF803006946C4
:10051000364800F0B6FD0120ADF8000028208DF827
:1005200003006946324800F0ACFD08BD2DE9F041FA
:10053000304C2F4F2D4D012608B1267001E0207858
:10054000A0B11021284600F0F2FDB0B108212846E4
:1005500000F0EDFD88B10421284600F0E8FD60B10F
:100560000121384600F0E3FD012806D0102128467D
:1005700000F0DDFD012824D035E00A2000F0FCFB6E
:10058000002020701021284600F0D1FD80B1082104
:10059000284600F0CCFD70B10421284600F0C7FDCC
:1005A00058B10121384600F0C2FD012807D01AE0F9
:1005B0000120BDE8F0810220FBE70320F9E70420D9
:1005C000F7E70821284600F0B2FD01280BD10421ED
:1005D000284600F0ACFD012805D10121384600F085
:1005E000A6FD00B926700020E3E7000000180140D6
:1005F000000801402C00002070B5054610210020A5
:1006000000F05FFB04001AD015B1691E0D420CD03A
:10061000B5F1004F15D800202946012202FA00F555
:10062000A94202D9401C2028F8DB2946002000F00E
:1006300048FB206028B10020E060C4E9015020465A
:1006400070BD2146002000F033FB002070BD10B5C6
:1006500004460168002000F02BFB2146BDE8104055
:10066000002000F025BB2DE9F0410446001D0F4697
:100670000BC8CB1AC51A954200D91546421E114027
:10068000461AAE4200D92E46206832460844394602
:1006900001F035F9AA1BB919206801F030F9A068FA
:1006A0002844A0602846BDE8F0812DE9F0410446C9
:1006B0000F46D4E902100D1A954200D9154661681B
:1006C0004A1E10400E1AAE4200D92E46216832460C
:1006D0000144384601F013F9AA1BB819216801F04A
:1006E0000EF9E0682844E0602846DCE7C9B200F073
:1006F000E0B92DE9F047894680464FF4007715466A
:1007000000243946774801F03FF9774E00213068E0
:10071000C1608160404601F0D3F801464046FFF7D2
:10072000E5FF4FF0FF3849466E4801F0B7F810B1C9
:100730000120BDE8F0876DA16A4801F0AFF808B16B
:100740000020F6E76AA1674801F0A8F860B93068B0
:10075000D0E90212914209D0624901222144641C6D
:10076000FFF7A3FFBC42DED34046E2E76D1E03D095
:10077000642000F001FBD6E76FF00100D9E75EA02E
:1007800001F04CB864A001F049B86BA001F046B884
:1007900071A001F043B878A001F040B82DE9F0470E
:1007A0007D4F06464F4978684FF4007A4FF00008B5
:1007B0000E54401C7860504508D387F8008051469D
:1007C0004848C7F8048001F0DFF804E038780D28C5
:1007D00001D10A2E01D03E70ABE76F4D002489464F
:1007E0000835404855F8341001F058F8484508D10C
:1007F0003C4801F065F8014605EBC4004268394801
:100800009047641C052CECDBD7E72DE9F0418846C6
:10081000064600241CE004EB440706EB87056868E5
:1008200001F04EF8A968401E014456F82720686878
:10083000FFF75FFF01280AD056F827202BA1A868F0
:10084000FFF757FF002802DA601CBDE8F081641C46
:100850004445E0DB0020F8E770B5064605224FA1CD
:100860004FA0FFF746FF0024651E401C07D005225D
:100870004CA14AA0FFF73DFF801C00D12C46200070
:1008800001D0284670BD062E0CD2DFE806F0030624
:100890000F12161A1221444802E043480521D830AD
:1008A000FFF7B3FF80B16FF0010070BD08213F4832
:1008B000F6E73E4808216030F2E73C480621C030A8
:1008C000EEE708213A48EBE7052236A139A0FFF709
:1008D00010FF002800DB002515B16FF0020070BD8D
:1008E000002070BDA0040020040000204F4B000039
:1008F0004552524F520000000D0A555243203A20F3
:1009000020206474755F7572635F61746B5F6572DC
:10091000726F720D0A0000000D0A555243203A20F2
:1009200020206474755F7572635F6572726F725FA9
:1009300073696D0D0A0000000D0A555243203A20DC
:1009400020206474755F7572635F6572726F725F89
:10095000677072730D0A00000D0A555243203A2049
:1009600020206474755F7572635F6572726F725F69
:100970006373710D0A0000000D0A555243203A209E
:1009800020206474755F7572635F6572726F725F49
:100990006D7174740D0A00003000002061746B00EA
:1009A0002B2B2B004F4B0000481B00085C1C000841
:1009B000641D000841544F0D0A00000038B5614C19
:1009C00040F22551204600F0F7FE00280AD02046CC
:1009D00000F08BFE8DF800005B480122694600683C
:1009E000FFF741FE38BD2DE9F041804686B0012178
:1009F000242000F02EFD01214E04304600F032FD8F
:100A00008020ADF8000010208DF8030003258DF83C
:100A1000025069464D4800F034FB0424ADF8004014
:100A200018204B4F8DF803006946384600F029FB2B
:100A30000820ADF800008DF803406946384600F004
:100A400020FB0121304600F01FFD0021304600F060
:100A50001BFD0024ADF80C400C203A4EADF80840C8
:100A6000ADF80E00CDF80480ADF80A40ADF81040A6
:100A700001A9304600F06CFD26208DF814008DF899
:100A800015508DF8165001208DF8170005A800F0BC
:100A90004EFA012240F22551304600F0D6FD0121E8
:100AA000304600F0C8FD2B48C0F89C4106B0BDE8B8
:100AB000F0812DE9F041DFF89C800E4601210746C8
:100AC000C8F89C1100241F4D0BE04021284600F07F
:100AD00069FE0028F9D0395D284600F002FE641C4A
:100AE000E4B2B442F1D34021284600F05BFE002876
:100AF000F9D0194900200870C8F89C01D7E72DE902
:100B0000F047DFF854800024074698F800500E465E
:100B1000A1460C700A2000F02FF998F800008542D9
:100B20000ED1002D0CD00D4803E0015D3955641C39
:100B3000E4B2AC42F9D398F80010317088F8009014
:100B4000BDE8F0870044004004000020001401408C
:100B5000000801400080224260000020A006002022
:100B600003E011F8013B00F8013B521EF9D2704737
:100B700001E000F8011B521EFBD2704770B504461D
:100B80006448654E002150F8240006EB84054200BD
:100B90002869FFF7EDFF5F480021103050F824204E
:100BA000A868FFF7E5FF01203119087670BD10B580
:100BB000584B594C002253F82030114604EB80006A
:100BC00005E0046934F8114004B1521C491C8B4201
:100BD000F7D864204243B2FBF3F0C0B210BD2DE958
:100BE000F0414D4E0546002470190F46007E10B9A5
:100BF0003168284688474FF0FF327FB3454B0833B2
:100C000053F82510B7FBF1F0B7FBF1FC01FB1C71A9
:100C100001B1401C3F4951F82510491E1ED406EB76
:100C20008506376937F811C0BCF1000F05D00024E4
:100C3000844211D1002284B207E0641CF8E73769CE
:100C400001EB020C521C27F81C408242F7D353F8E8
:100C500025004843BDE8F081491EE3D51046F9E779
:100C600070B52D4A13181B7E9BB12A4B103353F8D5
:100C700020308B421AD9274B02EB8002083353F8FD
:100C800020301069B1FBF3F130F811400020034629
:100C900008E011688847012070BD15690E18401CD6
:100CA00025F81630A042F8DB002070BD022070BD90
:100CB000002905D0184A02EB80029268891ACFE712
:100CC000704710B50446FFF78AFF411C05D0124952
:100CD00001EB84018968084410BD002010BD2DE996
:100CE000F0418846174606461146FFF778FF04464E
:100CF000401CAFD008483A4600EB86054146A8683C
:100D00002044FFF72DFF41463046FFF7D1FFA8688A
:100D100020449FE7C41D00086400002010B56FF058
:100D2000040000F044F9204820490068B0FBF1F0CD
:100D30001F49C0B200EB40020870C2EBC0104FF672
:100D4000FF7202EAC000488010BD19490978484383
:100D50004FF0E021486100238B61086940F00100F9
:100D600008610869C20701D0C003FAD5086920F0FC
:100D7000010008618B6170470D49498848434FF075
:100D8000E021486100238B61086940F0010008619F
:100D90000869C20701D0C003FAD5086920F0010034
:100DA00008618B61704700000800002000127A0083
:100DB00080000020704747490A885206FCD5454A02
:100DC000C1B2121D1180704770B5054686B0012171
:100DD00044F2040000F03DFB4FF40070ADF8100049
:100DE00003248DF8124018203B4E8DF8130004A9FF
:100DF000304600F046F93015ADF8100004208DF8AB
:100E0000130004A9304600F03CF925208DF81400A9
:100E10008DF815408DF8164001208DF8170005A8B3
:100E200000F085F80020ADF80400ADF80600ADF83C
:100E30000800ADF80C000C20264CADF80A00009517
:100E40006946204600F084FB012240F225512046ED
:100E500000F0FBFB0121204600F0EDFB06B070BD69
:100E600070B51C4C40F22551204600F0A5FC00282E
:100E70000ED0204600F039FC184AC1B21088030495
:100E800006D444044FF0000306D50A2901D013808C
:100E900070BD40F400400DE00D2909D0C0F30D04F1
:100EA0000F4D401C80B229551080C728EFD870BD67
:100EB00040F48040108070BD30B5064B00221D1DEF
:100EC00005E01C886406FCD5845C2C80521C8A4298
:100ED000F7D330BD003801400008014084000020F5
:100EE000E0B000200948804709480047FEE7FEE7D8
:100EF000FEE7FEE7FEE7FEE7FEE7FEE7FEE7FEE7CA
:100F000004480549054A064B70470000890300085C
:100F10003101000808B2002008B8002008B4002001
:100F200008B400202849084328490860704730B5B4
:100F30000F23C27801780125F2B1244A126801F129
:100F4000E02102F4E062C2F5E062120AC2F1040498
:100F5000D3404278A24084781C401443220181F897
:100F60000024007800F01F018D404009800000F14E
:100F7000E020C0F8005130BD01F01F008540480955
:100F8000800000F1E020C0F8805130BD104A1140CF
:100F900001430E48001F016070470C4A121D0029D2
:100FA000116801D0014300E08143116070474FF0A8
:100FB000E0210428086903D020F00400086170478C
:100FC00040F00400FAE700000000FA050CED00E034
:100FD00080FFFF1F8F4910B5884206D101210420F0
:100FE00000F049FA002104203BE08B49884206D1F9
:100FF0000121082000F03FFA0021082031E0874954
:10100000884206D10121102000F035FA002110207D
:1010100027E08349884206D10121202000F02BFAE5
:10102000002120201DE07F49884206D10121402077
:1010300000F021FA0021402013E07B49884206D1CC
:101040000121802000F017FA0021802009E0774973
:1010500088420AD184150121204600F00CFA0021B3
:101060002046BDE8104000F006BA10BD10B50121C1
:10107000084600F000FA0021BDE81040012000F011
:10108000FAB9F0B5CC78002204F00F03E40601D5DC
:101090008C7823430C784FF00F0C14F0FF0F4FF0B7
:1010A000010E1BD005680E880EFA02F42640A642F7
:1010B00010D196000CFA06F725EA070703FA06F5A1
:1010C000CE783D43282E02D0482E02D002E0446163
:1010D00000E00461521C082AE5D305600A88FF2A53
:1010E0001CD94468002202F108060EFA06F50E88A3
:1010F0002E40AE420ED196000CFA06F7BC4303FA1E
:1011000006F7CE783C43282E00D14561CE78482E94
:1011100000D10561521C082AE5D34460F0BD4FF6AA
:10112000FF710180022181700421C1707047024665
:10113000002092680A4200D001207047806880B287
:10114000704702460020D2680A4200D00120704752
:10115000C06880B2704701617047416170470AB151
:101160000161704741617047C160704741F480324E
:101170008261816182618169806970472C4B10B501
:101180001A684FF68074224042EA00100843186043
:1011900010BD2849C8617047F0B5254C002801DA18
:1011A000E36900E06368450D2E0185B2C0F3015785
:1011B000B540C0F30342032F05D0C6020AD503266B
:1011C0009640B34307E023F07062636823F07063D6
:1011D000636002E0AB4343F0706201B12A43002830
:1011E00001DAE261F0BD6260F0BD10B58A0721F05E
:1011F00003040F49120F21440F238C6893409C4332
:101200008C608B68904003438B6010BD0949C1F826
:10121000DC00704700080140000C01400010014054
:101220000014014000180140001C01400020014052
:101230000000014000002042A548016841F0010182
:1012400001604168A34A114041600168A24A11400F
:101250000160016821F480210160416821F4FE01F0
:1012600041604FF41F018160704799490A6822F478
:1012700080320A600A6822F480220A60B0F5803F5A
:1012800007D0B0F5802F03D1086840F4A020086093
:101290007047086840F48030F9E703460020590998
:1012A0008B4A01290AD002290AD0516A03F01F0291
:1012B000012393400B4200D0012070471168F5E7ED
:1012C000116AF3E718B500204FF4A06400903120B4
:1012D000FFF7E3FF0099491C0091A14201D00028CB
:1012E000F5D03120FFF7D9FF002800D0012018BD2C
:1012F000774A116821F0F80141EAC0001060704798
:10130000764908607047724B5A68084322F47C1291
:101310001043586070477149086670476C4A5168BD
:1013200021F003010143516070476948406800F0B3
:101330000C007047664A516821F0F001014351608A
:101340007047634A516821F4E0610143516070477E
:101350005F4A516821F4605141EAC0005060704713
:101360005B4A0029517A01D0014300E08143517268
:1013700070475A49C1F8D8007047554A516821F45E
:1013800040410143516070475149002281F82020BB
:1013900081F82020012802D0042802D1052081F8FC
:1013A000200070474E490860704749490A6A024365
:1013B0000A6270474A4944390860704730B5444A68
:1013C0005168484B11F00C0103D0042901D00829C1
:1013D00001D0036012E05168536801F470114FF0BE
:1013E000020413F4803F04EB914102D053689B0345
:1013F00001D53D4B00E03B4B5943016051680F2341
:1014000003EA1111394B5C5C0168E14041605468AA
:10141000072505EA14241C5D21FA04F4846054684D
:1014200005EAD4241B5DD940C1605268032303EA56
:1014300092322E4B1B1F9A5CB1FBF2F1016130BD61
:10144000234A0029516901D0014300E081435161E1
:1014500070471F4A0029916901D0014300E0814390
:10146000916170471A4A0029D16901D0014300E017
:101470008143D1617047164A0029D16801D00143E8
:1014800000E08143D1607047114A0029116901D001
:10149000014300E081431161704711494039086000
:1014A00070470E49C86470470949C87170470848B9
:1014B000416A41F0807141627047054A014600204F
:1014C00092680A4200D00120704701498872704733
:1014D000001002400000FFF8FFFFF6FE000042424D
:1014E0008004424200127A0000093D009000002072
:1014F000C44910B588420AD101218C032046FFF768
:10150000BAFF2046BDE810400021FFF7B4BFBE4936
:10151000884202D101214C0410E0BC49884202D12A
:1015200001218C040AE0BA49884202D10121CC048D
:1015300004E0B84988420AD101210C052046FFF792
:10154000A3FF2046BDE810400021FFF79DBF10BD5E
:1015500030B50446008A85B00D464CF6FF71084050
:10156000E98801432182A0894EF6F3110840A98839
:101570002A8911436A8902431143A181A08A4FF647
:10158000FF410840A9890143A1826846FFF716FF81
:101590009C48844201D1039800E00298A189090483
:1015A00000EBC00101EB0010296801D5490000E003
:1015B0008900B0FBF1F06422B0FBF2F109010B09E4
:1015C0006FF018056B4300EB8300A3891D044FF0F7
:1015D000320306D503EBC000B0FBF2F000F00700C9
:1015E00005E003EB0010B0FBF2F000F00F00084341
:1015F000208105B030BD4FF416510160002181807B
:10160000C18001810C2242818181704710B5028A1C
:101610004FF2FF031A400B884C8823438C88C988FB
:101620000C4323431343038210BD002101804180FA
:101630008180C18070470029818902D041F4005126
:1016400001E021F400518181704710B5C1F34213CC
:1016500001F01F040121A140012B07D0022B07D06C
:101660001430002A026805D00A4304E00C30F8E781
:101670001030F6E78A43026010BD002A828A01D04A
:101680000A4300E08A4382827047028A22F00F02F6
:101690000282028A0A4302827047828922F400622F
:1016A000828182890A43828170470029818902D020
:1016B00041F0020101E021F0020181817047028ABC
:1016C00022F020020282028A0A4302827047002925
:1016D000018A02D041F4804101E021F4804101827D
:1016E0007047C1F30801818070478088C0F308000B
:1016F0007047818941F0010181817047028BD2B22C
:101700000283028B42EA012101837047028B02F4BB
:101710007F420283028B0A43028370470029818A39
:1017200002D041F0200101E021F0200181827047C8
:101730000029818A02D041F0100101E021F010015E
:10174000818270470029818A02D041F0080101E0BE
:1017500021F00801818270470029818902D041F47B
:10176000004101E0C1F30E01818170470029818AA7
:1017700002D041F4006101E021F4006181827047F0
:10178000828A22F004028282828A0A43828270471D
:101790000029818A02D041F0020101E021F002011A
:1017A000818270470246002012880A4200D0012040
:1017B0007047C9430180704770B501F01F050126CD
:1017C0000024C1F3421306FA05F2012B0FD0022BBD
:1017D0000FD0838A4FEA11210088134206FA01F6DE
:1017E00000EA060001D000B10124204670BD8389C3
:1017F000F0E7038AEEE70A0A01219140C94301801C
:10180000704700000038014000440040004800409C
:10181000004C004000500040704700000FB40449E5
:1018200010B503AA029800F0D5F810BC5DF814FBBF
:10183000880000202DE9F0410E4604460020206279
:101840002046E168884730B3252805D0D4E9012136
:101850009047206A401CF2E7E1682046002788474D
:10186000050018D0A5F14100192802D820354FF401
:1018700000673246294620462760FEF793FC40B1B8
:10188000012804D0F61D26F007060836D8E7361DD5
:10189000D6E72846DAE7206ABDE8F08130B505468C
:1018A0000B462A4613F8014B12F8010B08B1A0426F
:1018B000F8D01CB1002802D06D1CF1E7284630BDDD
:1018C00010B5431C02E010F8011B71B18107FAD179
:1018D0004FF0013202C88C1A8C4314EAC211F9D0BD
:1018E000C01A0A0603D0C01E10BDC01A10BD0A04DB
:1018F00001D0801E10BD0902FCD0401E10BD032A7D
:1019000040F2308010F0030C00F0158011F8013B1C
:10191000BCF1020F624498BF11F801CB00F8013B03
:1019200038BF11F8013BA2F1040298BF00F801CBC7
:1019300038BF00F8013B11F0030300F05D80083A66
:10194000C0F0088051F8043B083A51F804CBA0E8F5
:101950000810F5E7121D5CBF51F8043B40F8043B4A
:10196000AFF30080D20724BF11F8013B11F801CB7F
:1019700048BF11F8012B24BF00F8013B00F801CB50
:1019800048BF00F8012B70474FF000020429C0F057
:10199000128010F0030C00F06380CCF1040CBCF159
:1019A000020F18BF00F8012BA8BF20F8022BA1EBF3
:1019B0000C0100F055B85FEAC17C24BF00F8012B90
:1019C00000F8012B48BF00F8012B704770477047A3
:1019D00070477047074B70B50D467B4400F06BF8BD
:1019E0000446284600F07AF810B14FF0FF3070BD81
:1019F000204670BDD9F3FFFF10B5203AC0F00B8030
:101A0000B1E81850203AA0E81850B1E81850A0E802
:101A10001850BFF4F5AF5FEA027C24BFB1E818505C
:101A2000A0E8185044BF18C918C0BDE810405FEACC
:101A3000827C24BF51F8043B40F8043B08BF704748
:101A4000D20728BF31F8023B48BF11F8012B28BF4D
:101A500020F8023B48BF00F8012B70474FF000020E
:101A600000B5134694469646203922BFA0E80C5094
:101A7000A0E80C50B1F12001BFF4F7AF090728BF6F
:101A8000A0E80C5048BF0CC05DF804EB890028BFEB
:101A900040F8042B08BF704748BF20F8022B11F014
:101AA000804F18BF00F8012B7047000001694A1CE5
:101AB00002610878704700B58FB0CDE9013100218F
:101AC000059105497944CDE9031011466846FFF7B1
:101AD000B1FE0FB000BD0000E5FFFFFF007B00F08E
:101AE00080007047754600F02BF8AE460500694649
:101AF000534620F00700854618B020B5FFF700FADE
:101B0000BDE820404FF000064FF000074FF00008FE
:101B10004FF0000B21F00701AC46ACE8C009ACE87F
:101B2000C009ACE8C009ACE8C0098D46704710B5E3
:101B30000446AFF300802046BDE81040FEF741BBED
:101B400000487047A8B1002005000000802400086C
:101B5000C421000805000000E82400083C2100081A
:101B6000050000009C2300082C2000080500000050
:101B7000102400080021000805000000A824000827
:101B80000420000805000000F8240008B020000828
:101B90000500000008250008C4200008050000001A
:101BA00018250008D820000805000000342500088A
:101BB0005021000805000000D0240008FC1E000889
:101BC00005000000F82500085C2000080500000062
:101BD000402500086021000805000000D425000809
:101BE000AC1F000805000000C4240008E81E00081F
:101BF0000500000028250008EC2000080500000072
:101C0000C8250008D81F000805000000202400088F
:101C10002821000805000000B02500081421000854
:101C200005000000802400089C2100080500000039
:101C30002C240008B0210008050000008C240008B6
:101C40007420000805000000B8240008D41E000815
:101C50000500000004240008B02200080500000070
:101C600080240008E821000805000000F82300088F
:101C7000EC22000805000000802500081C23000855
:101C800005000000E02500086C22000805000000A7
:101C9000A4250008841F000805000000E8230008B0
:101CA0005422000805000000C02300082822000874
:101CB0000500000070250008B41E000805000000A3
:101CC000802400087021000805000000742400082A
:101CD0006023000805000000BC250008442300081C
:101CE00005000000DC240008842200080500000034
:101CF00068240008D022000805000000DC2300084A
:101D00003023000805000000B4230008FC2100086F
:101D10000500000064250008941E0008050000006E
:101D200080240008D4210008050000004424000895
:101D3000182000080500000050240008201F00089B
:101D40000500000038240008381F000805000000C6
:101D5000982500085C1F0008050000004C250008BD
:101D6000701E00080500000080240008842100087F
:101D7000050000008C250008042300080500000071
:101D80009C2400089C22000805000000EC250008A7
:101D900078230008050000005C2400088C2300085C
:101DA00005000000D02300084022000805000000C4
:101DB000A823000814220008050000005825000888
:101DC0004C1E000800050000007800002000000004
:101DD0002000000000A0000000000F00506C6561B2
:101DE000736520636865636B204353512021212173
:101DF0000D0A0000506C6561736520636865636B54
:101E00002047505253202121210D0A00506C65615A
:101E1000736520636865636B2053494D204361728D
:101E200064202121210D0A00506C656173652063D7
:101E30006865636B204D51545420506172616D652B
:101E4000746572202121210D0A00000041542B42AB
:101E50004149434F4E3D2230222C2230222C223049
:101E6000222C2231222C22333030220D0A00000095
:101E700041542B4F4E45434F4E3D2231222C2230B0
:101E8000222C2230222C2231222C22333030220DDF
:101E90000A00000041542B414C49434F4E3D223033
:101EA000222C2230222C2231222C22333030220DBF
:101EB0000A00000041542B4D515454434F4E3D22D3
:101EC00030222C2230222C2231222C22333030227C
:101ED0000D0A000041542B48545450544D3D2231BA
:101EE00030220D0A0000000041542B485254544D3A
:101EF0003D22313230220D0A0000000041542B53A4
:101F000056524E554D3D223030333932373432330C
:101F10003539353637333533343530220D0A000044
:101F200041542B4F4E4550493D22313233343536E2
:101F300037383930220D0A0041542B4F4E45414964
:101F40003D2231323334353637383930313233345B
:101F5000353637383930220D0A00000041542B4FF6
:101F60004E4549503D226D7174742E6865636C6FE7
:101F700075642E636F6D222C2236303032220D0AAA
:101F80000000000041542B4D51545449503D2263F0
:101F90006C6F75642E616C69656E74656B2E636F12
:101FA0006D222C2231383833220D0A0041542B483F
:101FB000525444543D223431344334393435344559
:101FC00035343435344232443438353235343434AF
:101FD0003534220D0A00000041542B524547445429
:101FE0003D22343134433439343534453534343595
:101FF0003442324435323435343734343534220DBA
:102000000A00000041542B4C494E4B31544D3D22A7
:1020100035220D0A0000000041542B4F4E45444923
:102020003D223132333435220D0A000041542B4C0D
:10203000494E4B313D22544350222C22636C6F7524
:10204000642E616C69656E74656B2E636F6D222CF6
:10205000223539363636220D0A00000041542B5302
:1020600056524B45593D22313233343536373822BA
:102070000D0A000041542B4854545055524C3D22F7
:1020800068747470733A2F2F636C6F75642E616C73
:1020900069656E74656B2E636F6D2F7465737466FE
:1020A0006F726474753F646174613D220D0A0000B3
:1020B00041542B4C494E4B32454E3D224F46462211
:1020C0000D0A000041542B4C494E4B33454E3D22E6
:1020D0004F4646220D0A000041542B4C494E4B34CA
:1020E000454E3D224F4646220D0A000041542B52D8
:1020F0004547454E3D224F4646220D0A000000004E
:1021000041542B4C494E4B314D443D224C4F4E4790
:10211000220D0A0041542B52454754503D22494D4F
:102120004549220D0A00000041542B5245474D44B9
:102130003D224C494E4B220D0A00000041542B4CCD
:10214000494E4B31454E3D224F4E220D0A000000B4
:1021500041542B535652454E3D224F4E220D0A00FC
:1021600041542B485254454E3D224F4E220D0A00F9
:1021700041542B574F524B3D22414C4959554E2209
:102180000D0A000041542B574F524B3D224241490A
:10219000445559554E220D0A0000000041542B575A
:1021A0004F524B3D2248545450220D0A000000006B
:1021B00041542B485454504D443D22474554220D20
:1021C0000A00000041542B574F524B3D224E4554BC
:1021D000220D0A0041542B574F524B3D224F4E4582
:1021E0004E4554220D0A000041542B574F524B3D8F
:1021F000224D515454220D0A0000000041542B413D
:102200004C495055423D22757064617461220D0A3B
:102210000000000041542B4241495055423D22707C
:102220007562220D0A00000041542B4D5154545048
:1022300055423D2261746B2F707562220D0A0000B9
:1022400041542B4241495355423D22737562220D40
:102250000A00000041542B4D5154545355423D2225
:1022600061746B2F737562220D0A000041542B4D6F
:1022700051545450573D2270617373776F726422CA
:102280000D0A000041542B414C49444E3D22446507
:10229000766963654E616D65220D0A0041542B42DB
:1022A00041494E4D3D226E616D65220D0A000000D0
:1022B00041542B4854545048443D22436F6E6E6540
:1022C0006374696F6E3A636C6F7365220D0A000068
:1022D00041542B414C4952493D22636E2D73686134
:1022E0006E67686169220D0A0000000041542B4DA1
:1022F00051545443443D22616C69656E74656B2290
:102300000D0A000041542B42414945503D22616C69
:1023100069656E74656B220D0A00000041542B4DF7
:10232000515454554E3D2261646D696E220D0A0070
:1023300041542B414C495355423D22676574220D4F
:102340000A00000041542B414C4944533D2244654E
:1023500076696365536563726574220D0A00000037
:1023600041542B414C49504B3D2250726F64756370
:10237000744B6579220D0A0041542B4241494B456B
:10238000593D226B6579220D0A00000041542B4211
:10239000414952493D22677A220D0A0041542B4C93
:1023A000494E4B310D0A000041542B4241495055D2
:1023B000420D0A0041542B414C495055420D0A0030
:1023C00041542B4D5154545055420D0A0000000009
:1023D00041542B4241495355420D0A0041542B416F
:1023E0004C495355420D0A0041542B4D51545453FE
:1023F00055420D0A0000000041542B4D51545443E6
:10240000440D0A0041542B4854545048440D0A00CE
:1024100041542B4C494E4B314D440D0A00000000F5
:1024200041542B5245474D440D0A000041542B485E
:102430005454504D440D0A0041542B4F4E454149D0
:102440000D0A000041542B4F4E4544490D0A00002F
:1024500041542B4F4E4550490D0A000041542B4228
:10246000414952490D0A000041542B414C495249FF
:102470000D0A000041542B414C49504B0D0A0000FD
:1024800041542B574F524B0D0A00000041542B482A
:1024900054545055524C0D0A0000000041542B4238
:1024A00041494E4D0D0A000041542B4C494E4B31D1
:1024B000544D0D0A0000000041542B485454505410
:1024C0004D0D0A0041542B485254544D0D0A000042
:1024D00041542B5356524E554D0D0A0041542B4139
:1024E0004C49444E0D0A000041542B4C494E4B318F
:1024F000454E0D0A0000000041542B4C494E4B3212
:10250000454E0D0A0000000041542B4C494E4B3300
:10251000454E0D0A0000000041542B4C494E4B34EF
:10252000454E0D0A0000000041542B524547454ED0
:102530000D0A000041542B535652454E0D0A00001F
:1025400041542B485254454E0D0A000041542B4F24
:102550004E45434F4E0D0A0041542B424149434FD3
:102560004E0D0A0041542B414C49434F4E0D0A0079
:1025700041542B4D515454434F4E0D0A000000005E
:1025800041542B4D515454554E0D0A0041542B4289
:10259000414945500D0A000041542B4F4E454950CA
:1025A0000D0A000041542B4D51545449500D0A005E
:1025B00041542B52454754500D0A000041542B41C1
:1025C0004C4944530D0A000041542B524547445492
:1025D0000D0A000041542B48525444540D0A000087
:1025E00041542B4D51545450570D0A0041542B4225
:1025F00041494B45590D0A0041542B5356524B4506
:10260000590D0A002B41544B204552524F523A006B
:102610003026000800000020A00000006C01000827
:10262000D0260008A000002068B70000880100083C
:10263000000000000000000000A24A0400000000AA
:10264000000000000102030406070809000C014015
:1026500020000000001801402000000001000000E0
:102660000000000000000000042600087F070008AA
:102670000C1E000885070008F41D00088B070008E1
:10268000DC1D000891070008281E000897070008B5
:10269000000000007D0B0008AF0B0008E0060020E2
:1026A00000000068E0A6002000000F6800000000A5
:1026B0000000000000000000000000000204060806
:1026C00000000000010203040102030406070809D8
:0400000508000131BD
:00000001FF
