:020000040800F2
:10000000C8BF0020E91700089504000897040008FD
:10001000990400089B0400089D04000800000000EB
:100020000000000000000000000000009F04000825
:10003000A104000800000000A3040008A5040008B3
:100040000318000803180008031800080318000824
:100050000318000803180008031800080318000814
:100060000318000803180008031800080318000804
:1000700003180008031800080318000803180008F4
:1000800003180008031800080318000803180008E4
:1000900003180008031800080318000803180008D4
:1000A00003180008031800080318000803180008C4
:1000B00003180008031800080318000803180008B4
:1000C00003180008031800080318000803180008A4
:1000D00003180008611700080F140008031800082F
:1000E00003180008031800080318000800F002F8BD
:1000F00000F04BF80AA090E8000C82448344AAF177
:100100000107DA4501D100F040F8AFF2090EBAE874
:100110000F0013F0010F18BFFB1A43F0010318473B
:10012000484B0000684B0000103A24BF78C878C1E3
:10013000FAD8520724BF30C830C144BF04680C60ED
:10014000704700000023002400250026103A28BF35
:1001500078C1FBD8520728BF30C148BF0B60704739
:10016000642902F07980732902F007830020704728
:100170001FB502F0ABFD04000020002102F0AAFD33
:10018000401C60601FBD10B510BD02F063FD11463C
:10019000FFF7EEFF00F008F802F08AFD03B4FFF766
:1001A000F2FF03BC01F086FA08B500254FF4A06009
:1001B00001F03AFB01F032FA00F022FA00F07CFA8A
:1001C000002001F05BF94FF48066304600F0F4FA4D
:1001D000594C4FF4E137A060384601F075FA3846C3
:1001E00001F0CAF855A001F09BFF4FF47A77002187
:1001F000084600F061FC68B138466D1C01F03CFA1D
:100200000A2DF4D910E000F0ECFC30B138466D1C3A
:1002100001F032FA0A2DF6D906E00A2D04D841F28F
:10022000883001F029FA21E040F6B8374E4801F055
:1002300077FF4EA001F074FF52A001F071FF58A0AB
:1002400001F06EFF63A001F06BFF6FA001F068FF8B
:1002500077A001F065FF7D4801F062FF7C4801F066
:100260005FFF384601F008FA0A2DDFD879A001F0C7
:1002700057FF00252560A0687D4FC5608560A06898
:10028000D0E90212914219D00122694600F0EDFA3C
:10029000784A20689DF800101154401C20600846E0
:1002A00000F0ACFB2168B1421BD3724801F072FA36
:1002B0003146704802F03EF9256012E0216839B1FC
:1002C0006C4801F067FA31466A4802F033F925605C
:1002D000D7F8940148B30020C7F89401642001F0D6
:1002E000CBF93146644801F063FA606020B1014601
:1002F000614800F0DBFA6560002000F0F7F90128A2
:1003000015D00228BBD131465A4802F013F93146C4
:10031000584800F0E9FE0028B1D1564802F0A6F88E
:100320000146544801F036FAA9E70120D4E7152127
:1003300052A000F0BBFAA2E70000002057616974E8
:1003400020666F7220436174312044545520746FCD
:100350002073746172742C20776169742031357355
:100360002E2E2E2E200D0A004C34000841544B2D09
:1003700044545520496E6974204661696C202E2EC4
:100380002E0D0A00C7EBB0B4D5D5D2D4CFC2B2BDC2
:10039000D6E8BDF8D0D0BCECB2E93A0D0A000000B6
:1003A000312ECAB9D3C3B5E7C4D4C9CFCEBBBBFACB
:1003B000C5E4D6C3C8EDBCFEBCECB2E9445455C498
:1003C000DCB7F1B5A5B6C0D5FDB3A3B9A4D7F70D79
:1003D0000A000000322EBCECB2E9445455B4AEBF62
:1003E000DAB2CECAFDD3EB53544D3332CDA8D1B6D9
:1003F000B5C4B4AEBFDAB2CECAFDCAC7B7F1D2BB7C
:10040000D6C20D0A00000000332EBCECB2E9445401
:1004100055D3EB53544D3332B4AEBFDAB5C4BDD36C
:10042000CFDFCAC7B7F1D5FDC8B70D0A000000007D
:10043000342EBCECB2E9B4FAC2EBC5E4D6C3D6B8EC
:10044000C1EECAC7B7F1D3D0CEF300009C34000888
:10045000FC330008436174312044545520496E69CF
:1004600074205375636365737373200D0A00000075
:1004700000802142A0000020A0040020414C4945FA
:100480004E54454B2041544B2D4434582054455331
:10049000540000007047FEE7FEE7FEE7FEE7704706
:1004A00070477047704700000CB500224C4800921E
:1004B0000192016841F4803101604FF4A06301684A
:1004C00001F4003101910099491C0091019911B981
:1004D00000999942F3D10168890333D50121019133
:1004E00040490A6842F010020A600A6822F00302DA
:1004F0000A600A6842F002020A604168416041688D
:100500004160416841F480614160416821F47C119F
:100510004160416841F4E8114160016841F0807137
:10052000016001688901FCD5416821F00301416047
:10053000416841F0020141604168C1F38101022933
:10054000FAD10CBD01920CBD254810B5016841F0EF
:10055000010101604168244A114041600168234A59
:1005600011400160016821F480210160416821F49B
:10057000FE0141604FF41F018160FFF795FF1C49A8
:100580004FF00060086010BD154A10B55068194B57
:1005900010F00C01184803D0042901D0082901D01B
:1005A000036012E05168536801F470114FF00204C7
:1005B00013F4803F04EB914102D053689B0301D5B3
:1005C0000E4B00E00B4B5943016051680A4AC1F3DE
:1005D0000311121D515C0268CA40026010BD000088
:1005E00000100240002002400000FFF8FFFFF6FE6E
:1005F00008ED00E000127A000C00002000093D0028
:1006000038B50121482001F0A6FB2024ADF80040B8
:1006100010208DF803000320244D8DF80200694658
:10062000284601F0B0F92021284601F016FAADF86D
:1006300000401F4C6946204601F0A5F920212046C4
:1006400001F00BFA38BD70B51A4E044606EBC4052E
:1006500056F83400A98801F0F6F90128A98856F85F
:10066000340003D0BDE8704001F0F7B9BDE8704038
:1006700001F0F5B92DE9F04100250E4F2C46012679
:1006800007EBC400818857F8340001F0DCF900283A
:1006900006FA04F001D0854301E02843C5B2641C8A
:1006A000E4B2022CECD32846BDE8F081000C0140F6
:1006B000001801402000002008B50121442001F06D
:1006C0004AFB1C20ADF8000048208DF80300694665
:1006D000364801F058F90120ADF8000028208DF8C7
:1006E00003006946324801F04EF908BD2DE9F0419A
:1006F000304C2F4F2D4D012608B1267001E0207897
:10070000A0B11021284601F094F9B0B10821284683
:1007100001F08FF988B10421284601F08AF960B10F
:100720000121384601F085F9012806D0102128461C
:1007300001F07FF9012824D035E00A2000F09CFF69
:10074000002020701021284601F073F980B10821A3
:10075000284601F06EF970B10421284601F069F9CC
:1007600058B10121384601F064F9012807D01AE098
:100770000120BDE8F0810220FBE70320F9E7042017
:10078000F7E70821284601F054F901280BD104218C
:10079000284601F04EF9012805D10121384601F023
:1007A00048F900B926700020E3E700000018014076
:1007B000000801403000002070B5054610210020DF
:1007C00000F0FFFE04001AD015B1691E0D420CD0D6
:1007D000B5F1004F15D800202946012202FA00F594
:1007E000A94202D9401C2028F8DB2946002000F04D
:1007F000E8FE206028B10020E060C4E901502046F6
:1008000070BD2146002000F0D3FE002070BD10B561
:1008100004460168002000F0CBFE2146BDE81040F0
:10082000002000F0C5BE2DE9F0410446001D0F4632
:100830000BC8CB1AC51A954200D91546421E114065
:10084000461AAE4200D92E46206832460844394640
:1008500001F02BFEAA1BB919206801F026FEA06842
:100860002844A0602846BDE8F0812DE9F041044607
:100870000F46D4E902100D1A954200D91546616859
:100880004A1E10400E1AAE4200D92E46216832464A
:100890000144384601F009FEAA1BB819216801F08D
:1008A00004FEE0682844E0602846DCE700F0C4BDB0
:1008B0002DE9F047894680464FF40077154600241D
:1008C0003946F74801F036FEF64E00213068C16027
:1008D0008160404601F0CAFD01464046FFF7E6FF51
:1008E0004FF0FF384946EE4801F08AFD10B1012073
:1008F000BDE8F087ECA1EA4801F082FD08B10020D4
:10090000F6E7EAA1E64801F07BFD60B93068D0E97E
:100910000212914209D0E24901222144641CFFF7EE
:10092000A4FFBC42DED34046E2E76D1E03D0642044
:1009300000F0A2FED6E76FF00100D9E72DE9F047FD
:1009400000240F4681464FF4007A2646254651463C
:10095000D34801F0EFFDDFF84C830021D8F8000008
:10096000C1608160484601F081FD01464846FFF7BD
:100970009DFFDFF82C9317E0D8F80000D0E90212B1
:10098000914209D009EB04010122641CFFF76DFFBD
:1009900054450CD2002503E06D1D0CB1642D06D228
:1009A000052000F069FE761DBE42E5D30CB1BC48BF
:1009B0009EE700209CE710B50522BEA1BEA0FFF770
:1009C00077FF401C07D00522B7A1BAA0FFF770FF40
:1009D000801C01D0002010BD4FF0FF3010BDB7A02B
:1009E00001F09EBBBDA001F09BBBC4A001F098BB71
:1009F000CAA001F095BBD1A001F092BB2DE9F04750
:100A0000D64F0646A64978684FF4007A4FF00008A2
:100A10000E54401C7860504508D387F8008051463A
:100A20009F48C7F8048001F085FD04E038780D2860
:100A300001D10A2E01D03E705AE7C84D00248946E4
:100A40000835974855F8341001F0DAFC484508D1CC
:100A5000934801F00BFD014605EBC4004268904845
:100A60009047641C052CECDBD7E72DE9F041884664
:100A7000064600241CE004EB440706EB8705686883
:100A800001F0F4FCA968401E014456F8272068686C
:100A9000FFF70EFF01280AD056F8272082A1A86888
:100AA000FFF706FF002802DA601CBDE8F081641C35
:100AB0004445E0DB0020F8E72DE9F0410D4606460D
:100AC00003244FF4FA77FFF776FF30B1384600F091
:100AD000D3FD641E002CF6DC01E0002C02DC4FF09C
:100AE000FF30E2E70C219E48FFF7BFFF10B16FF027
:100AF0000100DAE7062E0CD2DFE806F003070F1339
:100B0000161A97481021903001E006219548FFF70A
:100B1000ACFF80B16FF00200C7E792481121483066
:100B2000F5E711219048F2E78F481121CC30EEE72C
:100B300004218E48EBE7052D0DD2DFE805F0030711
:100B40001014170089480121303002E087480E2137
:100B50003C30FFF78AFF68B16FF00300A5E78348D8
:100B60000F21E430F5E70E218148F2E780480E219D
:100B7000A830EEE700F09AFB002896D06FF0040052
:100B800093E72DE9F8430E468046002503244FF4F1
:100B9000FA77FFF710FF30B1384600F06DFD641EA4
:100BA000002CF6DC01E0002C03DC4FF0FF30BDE848
:100BB000F88343466FA24FF480617448009601F0B9
:100BC000D1FA642272A17148FFF772FE012800D1A8
:100BD000012500F06BFB10B16FF00200E7E728463B
:100BE000E5E770B503244FF4FA75FFF7E4FE30B182
:100BF000284600F041FD641E002CF6DC01E0002CCC
:100C000002DC4FF0FF3070BD052227A163A0FFF783
:100C10004FFE002802DA6FF0010070BD002070BDA9
:100C20002DE9F0410D46074603244FF4FA76FFF70D
:100C3000C2FE30B1304600F01FFD641E002CF6DC11
:100C400001E0002C02DC4FF0FF302EE742F2107181
:100C500055A0FFF773FE04006FF0010604D001F009
:100C600005FC421CAA4201D930461EE721463846FF
:100C700001F01BFC00F01AFB0028E6D06FF0020028
:100C800013E770B5044641F288314AA0FFF756FEDB
:100C900005464BA101F0B4FB08B14CA1C1E097E0BF
:100CA000A00C0020080000204F4B00004552524F7E
:100CB0005200000061746B002B2B2B000D0A555263
:100CC00043203A2020206474755F7572635F6174FD
:100CD0006B5F6572726F720D0A0000000D0A55524B
:100CE00043203A2020206474755F7572635F6572DB
:100CF000726F725F73696D0D0A0000000D0A555224
:100D000043203A2020206474755F7572635F6572BA
:100D1000726F725F677072730D0A00000D0A555290
:100D200043203A2020206474755F7572635F65729A
:100D3000726F725F6373710D0A0000000D0A5552E5
:100D400043203A2020206474755F7572635F65727A
:100D5000726F725F6D7174740D0A000034000020B0
:100D6000002D0008502E0008642F0008FC300008F9
:100D70009432000841542B534D53454E443D222597
:100D800073222C222573220D0A000000A0080020E7
:100D9000534D53454E44204F4B00000041542B50BF
:100DA00057520D0A0000000041542B4C4F430D0ACE
:100DB0000000000041542B574F524B0D0A00000019
:100DC0002B574F524B3A224E455422004E45540069
:100DD000EAA1284601F014FB08B1ECA121E0EDA145
:100DE000284601F00DFB08B1EEA11AE0EFA128465C
:100DF00001F006FB08B1F1A113E0F2A1284601F0D1
:100E0000FFFA08B1F3A10CE0F4A1284601F0F8FACA
:100E100008B1F6A105E0F7A1284601F0F1FA28B1E2
:100E2000F9A1204601F0FEFA002070BD4FF0FF301E
:100E300070BD2DE9FF5F0646AFF2700101F0C8FBFF
:100E400041F28835002750B3D0A1304601F0C0FBF5
:100E5000010006F11C0906F1140406F1100A76D00F
:100E6000D0A1304601F0B4FB00286ED0D3A13046AB
:100E700001F0AEFB002869D0D6A1304601F0A8FBF6
:100E80000028F8D0D9A1304601F0A2FB0028F2D00A
:100E9000DDA1304601F09CFB00287DD0A7E00024B6
:100EA000AB46621CDBA1684601F046F9594668462C
:100EB000FFF744FDCCA101F0A3FA401C8246CAA171
:100EC00001F09EFA00B10770C7A1401C01F098FA2A
:100ED000401C8146C4A101F093FA00B10770C2A181
:100EE000401C01F08DFA401C8046BFA101F088FA39
:100EF00000B1077004EB440006EB401505F1140047
:100F0000514601F08FFA05F11C00494601F08AFABA
:100F100005F15C00414601F085FA621CC0A16846FB
:100F200001F00AF959466846FFF708FDAEA101F045
:100F300067FA411C05F11000032201F01DFB641C3F
:100F4000EF74042CADDB52E001E026E053E02946CB
:100F5000B7A0FFF7F3FCA4A101F052FA401C8046B1
:100F6000222101F043FA050000D02F704146484687
:100F700001F058FA2221681C01F038FA401C05469D
:100F8000222101F033FA00B10770294606F15C0016
:100F900001F048FA7DA13DE02FE02E462946A7A0AA
:100FA000FFF7CCFC90A101F02BFA401C05468EA166
:100FB00001F026FA00B107702246A3A1284601F0ED
:100FC00087F93146A1A0FFF7B9FC87A101F018FA13
:100FD000401C044684A101F013FA00B107702146B9
:100FE000484601F01FFA9DA1504601F01BFA04B0DB
:100FF0000020BDE8F09F31460CE0294698A0FFF79D
:101000009DFC79A101F0FCF999A1401C01F0E0FAE6
:1010100010B198A12046E4E797A1FBE72DE9F0473E
:101020000C460546024686B094A1204601F084F89D
:101030000719AFF26821284601F0CAFA05F5C8760B
:10104000E8B152A1284601F0C3FA010005F16C0491
:1010500005F11C0805F1140A05F110092BD051A166
:10106000284601F0B5FA98B3CDE9004653464A4602
:101070008649384601F060F8002006B038E40024C4
:1010800004EB440005EB401303F16C0003F15C0139
:10109000CDE9021003F11C025838CDE90002049694
:1010A000621C7B493846103301F046F8641C074443
:1010B000042CE5DBE0E75C35CDF800800396CDE954
:1010C000015453464A467349384601F035F8D3E790
:1010D000FFE7CDF80080CDE9014653464A466E4908
:1010E000384601F029F8C7E72DE9F0410324E8B0BC
:1010F00080464FF4FA77261F0025FFF75CFC40B1CD
:10110000384600F0B9FA641E002CF6DC304650BBBD
:1011100001E02846FBE76846FFF7B3FD6FF00106E4
:1011200008BB684600F0CFF8E8B96846FFF781FED3
:10113000C8B96C4641F2883158A0FFF7FFFB5AA1AD
:1011400001F05EF9401C074657A101F059F900B1C2
:101150000570394604F5C87001F064F941466846E7
:10116000FFF75CFF10B1304668B09EE400F09EF8D7
:101170000028F9D06FF00200F6E700002B574F521D
:101180004B3A224D51545422000000004D5154540A
:10119000000000002B574F524B3A22485454502223
:1011A0000000000048545450000000002B574F52DC
:1011B0004B3A22414C4959554E220000414C495965
:1011C000554E00002B574F524B3A224F4E454E453D
:1011D000542200004F4E454E455400002B574F52AD
:1011E0004B3A22524E44495322000000524E444989
:1011F000530000002B574F524B3A225955414E5A3B
:101200004959554E220000005955414E5A495955E9
:101210004E00000041542B4C494E4B25640D0A00F2
:1012200041542B4C494E4B2564454E0D0A0000009D
:1012300041542B4D51545449500D0A0041542B48F0
:101240005454504D440D0A002573000041542B485E
:1012500054545055524C0D0A000000004F4E0000EF
:1012600041542B5356524C494E4B0D0A000000007E
:10127000310000004F6C64004E6577000A776F7292
:101280006B5F6D6F64653A2025730A00F44A0008AD
:10129000904B0008F84B0008384B000841542B5481
:1012A00041534B4D440D0A002200000010B50522A9
:1012B00024A125A0FFF7FCFA002801DB002010BDC7
:1012C0004FF0FF3010BD2DE9FF41054641F2883156
:1012D0001FA0FFF733FB804621A1284601F078F9D3
:1012E00010B10126002427E00426FBE7621C1DA1A3
:1012F000684600F021FF6946404601F081F890B150
:10130000AFF25C0101F07CF8401C0746AFF26801C7
:1013100001F076F808B10021017004EB440005EB00
:101320004010394604E004EB440005EB401011A1E5
:101330006C3001F077F8641CB442D7DB002004B0B5
:101340000CE400004F4B000041544F0D0A00000018
:1013500041542B534F434B45544C494E4B0D0A00BF
:101360004E4554002B534F434B45544C494E4B254F
:10137000643A00004F46460070B5054686B001212C
:10138000042000F0E8FC0121480400F0EDFC0424F6
:10139000ADF8104018202F4E8DF8130004A93046E8
:1013A00000F0F1FA0820ADF810008DF8134004A900
:1013B000304600F0E8FA26208DF8140003218DF85D
:1013C00015108DF8161001208DF8170005A800F0F3
:1013D00030FA0020ADF80400ADF80600ADF80800C2
:1013E000ADF80C000C201C4CADF80A0000956946C5
:1013F000204600F02FFD012240F22551204600F04A
:10140000A6FD0121204600F098FD06B070BD38B55C
:10141000114C40F22551204600F050FE00280AD021
:10142000204600F0E4FD8DF800000C4801226946DA
:101430000068FFF7F8F938BD30B5074B00221D1DD5
:1014400005E01C886406FCD5845C2C80521C8A4212
:10145000F7D330BD000801400044004008000020E0
:1014600003E011F8013B00F8013B521EF9D270472E
:1014700001E000F8011B521EFBD2704770B5044614
:101480006448654E002150F8240006EB84054200B4
:101490002869FFF7EDFF5F480021103050F8242045
:1014A000A868FFF7E5FF01203119087670BD10B577
:1014B000584B594C002253F82030114604EB800061
:1014C00005E0046934F8114004B1521C491C8B42F8
:1014D000F7D864204243B2FBF3F0C0B210BD2DE94F
:1014E000F0414D4E0546002470190F46007E10B99C
:1014F0003168284688474FF0FF327FB3454B0833A9
:1015000053F82510B7FBF1F0B7FBF1FC01FB1C71A0
:1015100001B1401C3F4951F82510491E1ED406EB6D
:101520008506376937F811C0BCF1000F05D00024DB
:10153000844211D1002284B207E0641CF8E73769C5
:1015400001EB020C521C27F81C408242F7D353F8DF
:1015500025004843BDE8F081491EE3D51046F9E770
:1015600070B52D4A13181B7E9BB12A4B103353F8CC
:1015700020308B421AD9274B02EB8002083353F8F4
:1015800020301069B1FBF3F130F811400020034620
:1015900008E011688847012070BD15690E18401CCD
:1015A00025F81630A042F8DB002070BD022070BD87
:1015B000002905D0184A02EB80029268891ACFE709
:1015C000704710B50446FFF78AFF411C05D0124949
:1015D00001EB84018968084410BD002010BD2DE98D
:1015E000F0418846174606461146FFF778FF044645
:1015F000401CAFD008483A4600EB86054146A86833
:101600002044FFF72DFF41463046FFF7D1FFA86881
:1016100020449FE7E43300086400002010B56FF019
:10162000040000F046F9204820490068B0FBF1F0C2
:101630001F49C0B200EB40020870C2EBC0104FF669
:10164000FF7202EAC000488010BD1949097848437A
:101650004FF0E021486100238B61086940F00100F0
:1016600008610869C20701D0C003FAD5086920F0F3
:10167000010008618B6170470D49498848434FF06C
:10168000E021486100238B61086940F00100086196
:101690000869C20701D0C003FAD5086920F001002B
:1016A00008618B61704700000C00002000127A0076
:1016B00080000020704748490A885206FCD5464AF7
:1016C000C1B2121D1180704770B5054686B0012168
:1016D00044F2040000F03FFB4FF40070ADF810003E
:1016E00003248DF8124018203C4E8DF8130004A9F5
:1016F000304600F048F93015ADF8100004208DF8A0
:10170000130004A9304600F03EF925208DF814009E
:101710008DF815408DF8164001208DF8170005A8AA
:1017200000F087F80020ADF80400ADF80600ADF831
:101730000800ADF80C000C20274CADF80A0000950D
:101740006946204600F086FB012240F225512046E2
:1017500000F0FDFB0121204600F0EFFB06B070BD5C
:1017600010B51D4C40F22551204600F0A7FC002882
:101770000FD0204600F03BFC194A1A4C1188C1F3E7
:101780000D03491CE05488B21080C72801D90020FD
:10179000108010BD30B5104B00221D1D05E01C88C7
:1017A0006406FCD5845C2C80521C8A42F7D330BD81
:1017B00030B5024600200A4C0A4B02E01D5C15546D
:1017C000401C884204D22588C5F30D058542F5D812
:1017D0000021218030BD0000003801400008014098
:1017E00084000020A0B8002009488047094800472D
:1017F000FEE7FEE7FEE7FEE7FEE7FEE7FEE7FEE7C1
:10180000FEE7FEE704480549054A064B704700001D
:1018100049050008ED000008C8B90020C8BF002035
:10182000C8BB0020C8BB00202849084328490860DD
:10183000704730B50F23C27801780125F2B1244AF0
:10184000126801F1E02102F4E062C2F5E062120ADE
:10185000C2F10404D3404278A24084781C4014436F
:10186000220181F80024007800F01F018D4040091A
:10187000800000F1E020C0F8005130BD01F01F00F1
:1018800085404809800000F1E020C0F8805130BD5B
:10189000104A114001430E48001F016070470C4A76
:1018A000121D0029116801D0014300E0814311603D
:1018B00070474FF0E0210428086903D020F00400AD
:1018C0000861704740F00400FAE700000000FA05E4
:1018D0000CED00E080FFFF1F8F4910B5884206D154
:1018E0000121042000F049FA002104203BE08B494B
:1018F000884206D10121082000F03FFA002108208B
:1019000031E08749884206D10121102000F035FAE4
:101910000021102027E08349884206D101212020A0
:1019200000F02BFA002120201DE07F49884206D1DB
:101930000121402000F021FA0021402013E07B49E2
:10194000884206D10121802000F017FA0021802072
:1019500009E0774988420AD184150121204600F028
:101960000CFA00212046BDE8104000F006BA10BD78
:1019700010B50121084600F000FA0021BDE8104032
:10198000012000F0FAB9F0B5CC78002204F00F0382
:10199000E40601D58C7823430C784FF00F0C14F03B
:1019A000FF0F4FF0010E1BD005680E880EFA02F4EF
:1019B0002640A64210D196000CFA06F725EA070742
:1019C00003FA06F5CE783D43282E02D0482E02D0E9
:1019D00002E0446100E00461521C082AE5D305607E
:1019E0000A88FF2A1CD94468002202F108060EFA70
:1019F00006F50E882E40AE420ED196000CFA06F780
:101A0000BC4303FA06F7CE783C43282E00D145614B
:101A1000CE78482E00D10561521C082AE5D34460D7
:101A2000F0BD4FF6FF710180022181700421C17069
:101A300070470246002092680A4200D00120704799
:101A4000806880B2704702460020D2680A4200D007
:101A500001207047C06880B27047016170474161E2
:101A600070470AB10161704741617047C1607047BA
:101A700041F480328261816182618169806970474D
:101A80002C4B10B51A684FF68074224042EA0010C1
:101A90000843186010BD2849C8617047F0B5254C4F
:101AA000002801DAE36900E06368450D2E0185B284
:101AB000C0F30157B540C0F30342032F05D0C6025F
:101AC0000AD503269640B34307E023F070626368AB
:101AD00023F07063636002E0AB4343F0706201B1D6
:101AE0002A43002801DAE261F0BD6260F0BD10B562
:101AF0008A0721F003040F49120F21440F238C6839
:101B000093409C438C608B68904003438B6010BD76
:101B10000949C1F8DC00704700080140000C014091
:101B2000001001400014014000180140001C014059
:101B3000002001400000014000002042A54801684B
:101B400041F0010101604168A34A11404160016810
:101B5000A24A11400160016821F4802101604168BE
:101B600021F4FE0141604FF41F01816070479949E3
:101B70000A6822F480320A600A6822F480220A602D
:101B8000B0F5803F07D0B0F5802F03D1086840F44E
:101B9000A02008607047086840F48030F9E70346E9
:101BA000002059098B4A01290AD002290AD0516A1A
:101BB00003F01F02012393400B4200D00120704725
:101BC0001168F5E7116AF3E718B500204FF4A06437
:101BD00000903120FFF7E3FF0099491C0091A142DA
:101BE00001D00028F5D03120FFF7D9FF002800D020
:101BF000012018BD774A116821F0F80141EAC000C0
:101C000010607047764908607047724B5A68084305
:101C100022F47C121043586070477149086670477F
:101C20006C4A516821F003010143516070476948D3
:101C3000406800F00C007047664A516821F0F001DE
:101C4000014351607047634A516821F4E0610143E8
:101C5000516070475F4A516821F4605141EAC00009
:101C6000506070475B4A0029517A01D0014300E07F
:101C70008143517270475A49C1F8D8007047554A9C
:101C8000516821F44041014351607047514900229D
:101C900081F8202081F82020012802D0042802D1D8
:101CA000052081F8200070474E4908607047494977
:101CB0000A6A02430A6270474A4944390860704719
:101CC00030B5444A5168484B11F00C0103D0042947
:101CD00001D0082901D0036012E05168536801F473
:101CE00070114FF0020413F4803F04EB914102D0D5
:101CF00053689B0301D53D4B00E03B4B59430160CA
:101D000051680F2303EA1111394B5C5C0168E14013
:101D100041605468072505EA14241C5D21FA04F487
:101D20008460546805EAD4241B5DD940C1605268C0
:101D3000032303EA92322E4B1B1F9A5CB1FBF2F194
:101D4000016130BD234A0029516901D0014300E0FF
:101D50008143516170471F4A0029916901D00143B5
:101D600000E08143916170471A4A0029D16901D08E
:101D7000014300E08143D1617047164A0029D168D0
:101D800001D0014300E08143D1607047114A00292E
:101D9000116901D0014300E081431161704711498D
:101DA0004039086070470E49C86470470949C871D6
:101DB00070470848416A41F0807141627047054AA6
:101DC0000146002092680A4200D001207047014974
:101DD00088727047001002400000FFF8FFFFF6FE17
:101DE000000042428004424200127A0000093D0095
:101DF00090000020C44910B588420AD101218C030B
:101E00002046FFF7BAFF2046BDE810400021FFF74B
:101E1000B4BFBE49884202D101214C0410E0BC4944
:101E2000884202D101218C040AE0BA49884202D1D9
:101E30000121CC0404E0B84988420AD101210C05F3
:101E40002046FFF7A3FF2046BDE810400021FFF722
:101E50009DBF10BD30B50446008A85B00D464CF6D6
:101E6000FF710840E98801432182A0894EF6F311F1
:101E70000840A9882A8911436A8902431143A18134
:101E8000A08A4FF6FF410840A9890143A182684614
:101E9000FFF716FF9C48844201D1039800E00298A6
:101EA000A189090400EBC00101EB0010296801D5EC
:101EB000490000E08900B0FBF1F06422B0FBF2F1D0
:101EC00009010B096FF018056B4300EB8300A38930
:101ED0001D044FF0320306D503EBC000B0FBF2F057
:101EE00000F0070005E003EB0010B0FBF2F000F09B
:101EF0000F000843208105B030BD4FF4165101603A
:101F000000218180C18001810C2242818181704742
:101F100010B5028A4FF2FF031A400B884C88234306
:101F20008C88C9880C4323431343038210BD0021CE
:101F3000018041808180C18070470029818902D061
:101F400041F4005101E021F400518181704710B546
:101F5000C1F3421301F01F040121A140012B07D05E
:101F6000022B07D01430002A026805D00A4304E08F
:101F70000C30F8E71030F6E78A43026010BD002A03
:101F8000828A01D00A4300E08A4382827047028A33
:101F900022F00F020282028A0A430282704782897B
:101FA00022F40062828182890A438281704700297B
:101FB000818902D041F0020101E021F0020181811A
:101FC0007047028A22F020020282028A0A430282B9
:101FD00070470029018A02D041F4804101E021F4D8
:101FE000804101827047C1F3080181807047808879
:101FF000C0F308007047818941F001018181704779
:10200000028BD2B20283028B42EA01210183704724
:10201000028B02F47F420283028B0A4302837047E1
:102020000029818A02D041F0200101E021F0200145
:10203000818270470029818A02D041F0100101E0BD
:1020400021F01001818270470029818A02D041F07D
:10205000080101E021F0080181827047002981898F
:1020600002D041F4004101E0C1F30E0181817047CB
:102070000029818A02D041F4006101E021F400616D
:1020800081827047828A22F004028282828A0A4315
:10209000828270470029818A02D041F0020101E06A
:1020A00021F00201818270470246002012880A4214
:1020B00000D001207047C9430180704770B501F01E
:1020C0001F0501260024C1F3421306FA05F2012B75
:1020D0000FD0022B0FD0838A4FEA112100881342C0
:1020E00006FA01F600EA060001D000B101242046FC
:1020F00070BD8389F0E7038AEEE70A0A0121914067
:10210000C94301807047000000380140004400408E
:1021100000480040004C0040005000407047000064
:102120000FB4044910B503AA029800F02BFB10BCB1
:102130005DF814FB880000200FB41CB5084B06AAFC
:102140007B4469460090059800F0E5FA04460020BB
:10215000694600F0F3FA20461CBC5DF814FB000051
:10216000F90500000FB47CB50C0009AA009001D05D
:102170002044401E084B7B4469460190089800F0BB
:10218000CAFA05461CB10020694600F0D7FA284675
:102190007CBC5DF814FB0000CD0500002DE9F0418A
:1021A0000E460446002020622046E168884730B38E
:1021B000252805D0D4E901219047206A401CF2E788
:1021C000E168204600278847050018D0A5F14100A6
:1021D000192802D820354FF4006732462946204698
:1021E0002760FDF7BDFF40B1012804D0F61D26F0A1
:1021F00007060836D8E7361DD6E72846DAE7206A0C
:10220000BDE8F08170B50C460546012A05D0287856
:10221000800600D5EA69002302E0012305E05B1C8B
:10222000934202D2E05C0028F9D1A869E618C01AEE
:10223000A861286A184428622846AFF3008004E0A9
:10224000D5E9012114F8010B9047B442F8D3284690
:10225000AFF3008070BD00002DE9F0410646002478
:1022600010687529314616A510D0AFF300800028FC
:1022700002DA404213A507E031688A0701D512A5AA
:1022800002E0490704D511A5012401E0AFF3008065
:1022900000210A2206F1240709E0B0FBF2FCB0FBA2
:1022A000F2F302FB1C00303078541846491C002819
:1022B000F3D123462A463046BDE8F04100F0CCB9C0
:1022C000000000002D0000002B0000002000000096
:1022D0000FB400B58DB010A9099000910B904FF08C
:1022E000FF300A9000200C9006487844069006487B
:1022F00078446A4607900F9909A800F05BFA0DB080
:102300005DF814FBE7040000FF0400002DE9FF5F07
:102310004FF000089946144646469169D2E901A754
:10232000DDF838B001988847054659EA0B0005D01A
:1023300009E0A1690198761C88470546216A28466C
:1023400088470028F5D1681C03D05FEACA7005D021
:1023500015E04FF0FF3004B0BDE8F09F2068011D8C
:102360002160D0F800800AE05FEACA7001D108F865
:10237000015BA169761C01987F1E88470546002FE6
:102380001ADD681C18D0B9F1000F0DD0E81705EB65
:10239000D060421120F01F0059F822102A1A0120A3
:1023A00090400142E0D107E0BBF1000FDCD12846AC
:1023B000216A88470028D7D0E16901988847BBF196
:1023C000000F07D1002E05DD5FEACA7002D100219F
:1023D00088F80010A068B84203DDBBF1000F03D0FD
:1023E00017B16FF00100B6E73046B4E7401ECAB23D
:1023F00010F8011F8A4202D00029F9D1002070474D
:1024000030B505460B462A4613F8014B12F8010B6E
:1024100008B1A042F8D01CB1002802D06D1CF1E731
:10242000284630BD40EA0103024630B59B0710D173
:102430004FF0013400E008C208C91D1B9D4315EA96
:10244000C41FF8D013F0FF0102F8011B0DD01B0AC6
:10245000F8E711F8013B002B02F8013B05D011F819
:10246000013B002B02F8013BF3D130BD10B5431CFA
:1024700002E010F8011B71B18107FAD14FF001326F
:1024800002C88C1A8C4314EAC211F9D0C01A0A0689
:1024900003D0C01E10BDC01A10BD0A0401D0801E9A
:1024A00010BD0902FCD0401E10BD032A40F230804E
:1024B00010F0030C00F0158011F8013BBCF1020F85
:1024C000624498BF11F801CB00F8013B38BF11F806
:1024D000013BA2F1040298BF00F801CB38BF00F81D
:1024E000013B11F0030300F09581083AC0F0088029
:1024F00051F8043B083A51F804CBA0E80810F5E77E
:10250000121D5CBF51F8043B40F8043BAFF3008060
:10251000D20724BF11F8013B11F801CB48BF11F8D5
:10252000012B24BF00F8013B00F801CB48BF00F8A5
:10253000012B70474FF000020429C0F0128010F008
:10254000030C00F09B81CCF1040CBCF1020F18BF0E
:1025500000F8012BA8BF20F8022BA1EB0C0100F022
:102560008DB95FEAC17C24BF00F8012B00F8012B74
:1025700048BF00F8012B704710B5044610F0030F58
:1025800008BF11F0030F40F015804FF0013E121FFD
:10259000C0F20E8051F8043BA3EB0E0C2CEA030CA6
:1025A0001CEACE1C08BF40F8043BF0D0A1F10401A6
:1025B00002F10402521E08DB11F8013B002B00F867
:1025C000013BF7D11146FFF7B5FF204610BD0000D3
:1025D0004FF0013C50F8042B51F8043B9A4221D1B2
:1025E000A2EB0C03934313EACC1317D150F8042B3E
:1025F00051F8043B9A4215D1A2EB0C03934313EA22
:10260000CC130BD150F8042B51F8043B9A4209D15A
:10261000A2EB0C03934313EACC13DBD04FF0000082
:10262000704700BFD01A01BAB1FA81F101F0180168
:1026300022FA01F0CB40C1F12001DBB2C0B2C01AD6
:102640002CFA01F3D11A914311EAC311E6D1704774
:1026500070477047704770472DE9F0470D4699461F
:102660009246044600F124080168880604D5E06912
:1026700021F01001216000E00120A84201DD471B8C
:1026800000E00027A1697A1902EB0900081AA0618D
:102690002078C00602D42046AFF30080002608E070
:1026A000D4E901211AF806009047206A401C761CE4
:1026B00020624E45F4DB2078C0060AD52046AFF3F1
:1026C000008006E0D4E9012130209047206A401CB8
:1026D0002062381EA7F10107F4DC07E0D4E90121EC
:1026E00018F805009047206A401C2062281EA5F1BA
:1026F0000105F3DC2046AFF300802078000602D508
:102700000220BDE8F0870120FBE7000001694A1CB8
:1027100002610878704700B58FB0CDE90131002122
:10272000059105497944CDE9031011466846FFF744
:1027300035FD0FB000BD0000E5FFFFFF0A6802F89D
:10274000010B0A607047D1E900239A4202D2531C60
:102750000B601070704710B5436913B1AFF3008080
:1027600001E0FFF74FFD012010BD127800F12401B8
:102770000A7000224A700122EDE711684FF0FF3223
:10278000E9E70000074B70B50D467B44FFF7C3FF38
:102790000446284600F05AFA10B14FF0FF3070BDE1
:1027A000204670BD29EFFFFF0268114413780160D5
:1027B00018467047D160054979445161044979440C
:1027C000116200211161114600F086B8EDFFFFFF94
:1027D00005010000426842B1016811F8013B23B1D4
:1027E000521EC0E90012184670470121C160881EC0
:1027F000704742685AB1C368016843B983688B4225
:1028000005D0491E521CC0E90012002070474FF04D
:10281000FF30704710B5203AC0F00B80B1E8185077
:10282000203AA0E81850B1E81850A0E81850BFF4BA
:10283000F5AF5FEA027C24BFB1E81850A0E8185059
:1028400044BF18C918C0BDE810405FEA827C24BFAD
:1028500051F8043B40F8043B08BF7047D20728BF3B
:1028600031F8023B48BF11F8012B28BF20F8023B8A
:1028700048BF00F8012B70474FF0000200B5134627
:1028800094469646203922BFA0E80C50A0E80C5090
:10289000B1F12001BFF4F7AF090728BFA0E80C5041
:1028A00048BF0CC05DF804EB890028BF40F8042B3A
:1028B00008BF704748BF20F8022B11F0804F18BFA7
:1028C00000F8012B704710B5044600F0E9F90068E4
:1028D000005D00F0010010BD2DE9F34F4FF0000A3C
:1028E0000C4656468DB001200C9001F10C000B9067
:1028F00062690B9801219047051E2DD0252D2CD003
:10290000216A8847C0B162690B9801219047216A0A
:1029100088470028F7D16269411E0B98904700E074
:10292000761CA1690D988847216A88470028F7D14D
:10293000E1690D988847DBE7A1690D988847A842AF
:10294000074601D1761CD3E7E1690D9888477F1CC3
:1029500002D1BAF1000F6FD06CE162690B980027C9
:102960003D46394690472A2804D162690B980121D7
:1029700090470125DFF8D08262690B9801219047CA
:10298000A0F130010A290AD24745E5DC07EB8701AF
:1029900000EB4107303FDFD445F01005ECE7E906D6
:1029A00001D46FF000476C280AD04C2814D0682856
:1029B00015D06A280DD074281CD07A281AD01DE0B2
:1029C00062690B98012190476C2802D045F00405FC
:1029D00014E045F002050DE045F020050AE06269CB
:1029E0000B9801219047682802D045F0080505E0C2
:1029F00045F4006562690B9801219047C4E90157CD
:102A000065283DD019DC58287AD00CDC452837D011
:102A100004DC252826D041289ED131E046282FD03D
:102A2000472899D12CE05B2877D0612828D06328EB
:102A30007CD0642823D15AE0F7E06F2848D008DC26
:102A400066281DD067281BD0692821D06E2816D192
:102A500027E0702845D0732868D0752847D078289B
:102A60000DD14DE0A1690D988847252805463FF412
:102A700069AFE1690D9888476D1C3FF46AAFD9E0F2
:102A80000D9923466A466FF00100AFF30080C6E05F
:102A900045F0400023464FF000026060A80736D49E
:102AA0003EE0E8077FF447AF2068011D2160006821
:102AB000290501D506701BE7290701D5068017E710
:102AC000A90703D5F117C0E9006111E706600FE718
:102AD00045F0400023464FF008026060A80716D476
:102AE0001EE040F60E0125EA0100606016E045F0A8
:102AF000400023464FF00A026060A80707D40FE0A9
:102B000045F040006060A80708D5234610220D99C3
:102B10006FF00100AFF3008081E007E01022234650
:102B20000D996FF00100AFF3008078E04FF00009DD
:102B300063284F46C8464B46CB4602D05B2807D099
:102B400039E02079C00601D40120A060012732E0DD
:102B50006269D4F80CB00B98012190475E2807D128
:102B60004FF0010949466269D4F80CB00B989047C0
:102B7000216939B900210A4603AB43F82120491CD9
:102B80000829FADBD8B3216949B308F10108626961
:102B90000B98012190475D28F4D1B9F1000F09D0BD
:102BA000002003A951F82020D24341F82020401CE6
:102BB0000828F7DB03AB2069002820794FEA407032
:102BC0001ED05B462246CDF80080CDE901970D99D5
:102BD00000286FF0010020DAAFF300801FE0C1177A
:102BE00003AA00EBD1614B1121F01F0102EB83021C
:102BF000411A13680120884003431360C7E719E0B6
:102C00000D99224600286FF00100009702DAAFF319
:102C1000008004E0FFF77AFB01E0AFF300800028BA
:102C20000ADA401C06D10C9820B14FF0FF300FB0EB
:102C3000BDE8F08F5046FAE7E90701D10AF1010A31
:102C4000064400200C9053E6CCCCCC0C007B00F06A
:102C500080007047754600F035F8AE4605006946BD
:102C6000534620F00700854618B020B5FEF7CAFD90
:102C7000BDE820404FF000064FF000074FF000087D
:102C80004FF0000B21F00701AC46ACE8C009ACE8FE
:102C9000C009ACE8C009ACE8C0098D467047000027
:102CA00010B500F013F8001D10BD00BF2900000092
:102CB00010B50446AFF300802046BDE81040FDF794
:102CC0006DBA00000048704768B90020004870479E
:102CD00088B9002010B500290AD00878002807D04C
:102CE00005487844FFF774FC002801D0002010BD8F
:102CF0000248784410BD0000A61F00009E1F00007F
:102D000005000000584A00081841000805000000AE
:102D1000404A00085C3D000805000000D04A000859
:102D20002042000805000000E4490008A041000816
:102D300005000000D8490008904200080500000086
:102D4000B8490008844200080500000070490008E6
:102D500060350008050000004C4A0008BC4300082C
:102D600005000000C04900080842000805000000F6
:102D7000584800087C3C0008050000008048000816
:102D8000343D000805000000AC490008704200080E
:102D9000050000000C4800086C4300080500000016
:102DA000F04800084C4200080500000044450008B7
:102DB000A83E00080500000088470008CC41000834
:102DC0000500000064480008803E0008050000007F
:102DD00000490008504100080500000010490008A3
:102DE00064410008050000002049000878410008FF
:102DF00005000000644A0008DC42000805000000ED
:102E00003C4900086042000805000000FC49000839
:102E1000283E00080500000090480008483D0008D2
:102E200005000000304900088C4100080500000042
:102E3000F0490008543E00080500000098470008CB
:102E40003842000805000000A0490008E0410008E1
:102E5000050000000C4800081C43000805000000A5
:102E6000B047000858430008050000004848000823
:102E7000543F00080500000074480008D83C0008D2
:102E8000050000007C47000804440008050000001D
:102E9000084A0008B4410008050000000C4800087A
:102EA000A8430008050000007047000840440008DF
:102EB000050000007C490008584400080500000097
:102EC000C44A0008D44300080500000094490008E3
:102ED000043E0008050000001445000820380008E2
:102EE00005000000A0450008843800080500000027
:102EF00020460008E838000805000000A046000849
:102F00004C39000805000000E4440008C035000802
:102F1000050000007045000830360008050000007C
:102F2000F0450008A03600080500000070460008C3
:102F30001037000805000000304A0008C8420008A9
:102F400005000000A44A0008DC3F0008050000005E
:102F500038480008A837000805000000604900084C
:102F6000C03C0008050000000C480008F0420008C2
:102F70000500000000480008884400080500000023
:102F8000CC4900086C44000805000000E448000833
:102F9000EC43000805000000E44700082444000852
:102FA0000500000004450008003800080500000086
:102FB000904500086438000805000000104600082D
:102FC000C838000805000000904600082C390008A9
:102FD00005000000D44400089C35000805000000EE
:102FE000604500080C36000805000000E0450008B8
:102FF0007C3600080500000060460008EC3600083A
:1030000005000000244A0008B44200080500000042
:10301000844A0008A83F000805000000284800086E
:10302000703700080500000054490008A83C00085B
:10303000050000000C48000894430008050000004B
:10304000CC470008943E000805000000D84700085F
:10305000743D000805000000DC4A00088C3D0008B3
:103060000500000088490008DC3D0008050000005C
:10307000F4440008E037000805000000804500081F
:10308000443800080500000000460008A838000881
:1030900005000000804600080C390008050000000B
:1030A000C4440008783500080500000050450008B9
:1030B000E835000805000000D04500085836000833
:1030C0000500000050460008C83600080500000052
:1030D000184A0008A042000805000000744A0008D1
:1030E000903F000805000000184800083837000825
:1030F0000500000048490008903C00080500000059
:103100000C4800080443000805000000F0470008D0
:10311000B03D000805000000D8480008F43E000853
:1031200005000000E84A0008183F000805000000FC
:10313000A44700083C41000805000000A44700081F
:103140004443000805000000BC470008443C000858
:1031500005000000944A0008C03F00080500000078
:10316000244500081C40000805000000B045000888
:103170006440000805000000304600084040000898
:1031800005000000B0460008F83F000805000000F8
:10319000D0460008F440000805000000F046000892
:1031A000AC400008050000001047000888400008F7
:1031B0000500000030470008D0400008050000006E
:1031C00050470008303F000805000000A0440008F8
:1031D000D03E000805000000B0480008EC3C0008A4
:1031E00005000000A4470008304300080500000067
:1031F000BC470008603C0008050000009C4800082F
:103200001C3D000805000000B44A0008C43D000849
:103210000500000034450008703900080500000072
:10322000C0450008B8390008050000004046000805
:10323000003A000805000000C0460008483A0008AF
:1032400005000000E0460008903A00080500000074
:1032500000470008D83A0008050000002047000891
:10326000203B00080500000040470008683B0008BC
:103270000500000060470008B03B000805000000A2
:10328000B0440008F83B000805000000C4480008EE
:10329000043D000805000000A4470008F4410008B0
:1032A00005000000BC470008443C00080500000081
:1032B0009C4800081C3D000805000000344500083B
:1032C0007039000805000000C0450008B839000842
:1032D0000500000040460008003A00080500000014
:1032E000C0460008483A000805000000E046000813
:1032F000903A00080500000000470008D83A00088E
:103300000500000020470008203B000805000000E1
:1033100040470008683B00080500000060470008BF
:10332000B03B000805000000B0440008F83B00086E
:1033300005000000C4480008043D00080500000026
:10334000A44700087C43000805000000BC470008B3
:10335000443C0008050000009C4800081C3D000893
:103360000500000034450008703900080500000021
:10337000C0450008B83900080500000040460008B4
:10338000003A000805000000C0460008483A00085E
:1033900005000000E0460008903A00080500000023
:1033A00000470008D83A0008050000002047000840
:1033B000203B00080500000040470008683B00086B
:1033C0000500000060470008B03B00080500000051
:1033D000B0440008F83B000805000000C44800089D
:1033E000043D0008000500000078000020000000F7
:1033F0002000000000A0000000000F002A2A2A2A56
:103400002A2A2A2A2A2A2A2A2A2A2A2A2A2A2A2A1C
:103410002A2A2A2A2A2A2A2A2A2A2A2A2A2A2A2A0C
:103420002A2A2A2A2A2A2A2A2A2A2A2A2A2A2A2AFC
:103430002A2A2A2A2A2A2A2A2A2A2A2A2A2A2A2AEC
:103440002A2A2A2A2A2A0D0A0D0A00002A2A2A2AAA
:103450002A2A2A2A2A2A2A2A2A2A2A2A2A2A2A2ACC
:103460002A2A2A2A2A2A2A2A2A2A2A2A2A2A2A2ABC
:103470002A2A2A2A2A2A2A2A2A2A2A2A2A2A2A2AAC
:103480002A2A2A2A2A2A2A2A2A2A2A2A2A2A2A2A9C
:103490002A2A2A2A2A2A0D0A00000000352EBCEC0E
:1034A000B2E9445455B9A9B5E7CAC7B7F1D5FDB3D8
:1034B000A3A3AC445455CDC6BCF6CAB9D3C331326C
:1034C000562F3141B5E7D4B4B9A9B5E7A3ACB2BB27
:1034D000D2AACAB9D3C3555342B5C43556B8F8C4F5
:1034E000A3BFE9B9A9B5E7A3A1A3A10D0A000000F4
:1034F000506C6561736520636865636B204353514D
:10350000202121210D0A0000506C65617365206344
:103510006865636B2047505253202121210D0A001A
:10352000506C6561736520636865636B2053494D1A
:103530002043617264202121210D0A00506C6561D5
:10354000736520636865636B204D5154542050614E
:1035500072616D65746572202121210D0A000000E1
:1035600041542B41504E3D224155544F222C222292
:103570002C22220D0A00000041542B4F4E4550557D
:1035800042313D2230222C2261746B2F70756231E2
:10359000222C2230222C2230220D0A0041542B41B1
:1035A0004C49505542313D2231222C2261746B2FFF
:1035B00070756231222C2230222C2230220D0A001A
:1035C00041542B4D515454505542313D2231222CFF
:1035D0002261746B2F70756231222C2230222C22D2
:1035E00030220D0A0000000041542B4F4E4550552B
:1035F00042323D2230222C2261746B2F7075623270
:10360000222C2230222C2230220D0A0041542B4140
:103610004C49505542323D2230222C2261746B2F8E
:1036200070756232222C2230222C2230220D0A00A8
:1036300041542B4D515454505542323D2230222C8E
:103640002261746B2F70756232222C2230222C2260
:1036500030220D0A0000000041542B4F4E455055BA
:1036600042333D2230222C2261746B2F70756233FD
:10367000222C2230222C2230220D0A0041542B41D0
:103680004C49505542333D2230222C2261746B2F1D
:1036900070756233222C2230222C2230220D0A0037
:1036A00041542B4D515454505542333D2230222C1D
:1036B0002261746B2F70756233222C2230222C22EF
:1036C00030220D0A0000000041542B4F4E4550554A
:1036D00042343D2230222C2261746B2F707562348B
:1036E000222C2230222C2230220D0A0041542B4160
:1036F0004C49505542343D2230222C2261746B2FAC
:1037000070756234222C2230222C2230220D0A00C5
:1037100041542B4D515454505542343D2230222CAB
:103720002261746B2F70756234222C2230222C227D
:1037300030220D0A0000000041542B4F4E455749DE
:103740004C4C3D2230222C226465766963652F6CD7
:103750006173745F77696C6C222C226F66666C698A
:103760006E65222C2230222C2230220D0A0000000D
:1037700041542B414C4957494C4C3D2230222C227C
:103780006465766963652F6C6173745F77696C6CCF
:10379000222C226F66666C696E65222C2230222CE8
:1037A0002230220D0A00000041542B4D5154545731
:1037B000494C4C3D2230222C226465766963652F8A
:1037C0006C6173745F77696C6C222C226F66666C17
:1037D000696E65222C2230222C2230220D0A000034
:1037E00041542B4F4E45535542313D2230222C221D
:1037F00061746B2F73756231222C2230220D0A0006
:1038000041542B414C49535542313D2231222C2207
:1038100061746B2F73756231222C2230220D0A00E5
:1038200041542B4D515454535542313D2231222C99
:103830002261746B2F73756231222C2230220D0AA3
:103840000000000041542B4F4E45535542323D225B
:1038500030222C2261746B2F73756232222C22303D
:10386000220D0A0041542B414C49535542323D220E
:1038700030222C2261746B2F73756232222C22301D
:10388000220D0A0041542B4D515454535542323DA0
:103890002230222C2261746B2F73756232222C220B
:1038A00030220D0A0000000041542B4F4E45535565
:1038B00042333D2230222C2261746B2F73756233A8
:1038C000222C2230220D0A0041542B414C495355E1
:1038D00042333D2230222C2261746B2F7375623388
:1038E000222C2230220D0A0041542B4D51545453A6
:1038F0005542333D2230222C2261746B2F73756246
:1039000033222C2230220D0A0000000041542B4F9C
:103910004E45535542343D2230222C2261746B2F88
:1039200073756234222C2230220D0A0041542B413F
:103930004C49535542343D2230222C2261746B2F66
:1039400073756234222C2230220D0A0041542B4D13
:10395000515454535542343D2230222C2261746B11
:103960002F73756234222C2230220D0A00000000D1
:1039700041542B4D4F44425553434D44313D225207
:103980005455222C2230222C22636D6431222C22A9
:1039900031222C223033222C2230222C2275696EC7
:1039A0007431365F4142222C2231222C22696E74FE
:1039B000222C2230220D0A0041542B4D4F444255F7
:1039C00053434D44323D22525455222C2230222C56
:1039D00022636D6432222C2231222C223033222C9D
:1039E0002231222C2275696E7431365F4142222CBD
:1039F0002231222C22696E74222C2230220D0A00E0
:103A000041542B4D4F44425553434D44333D225274
:103A10005455222C2230222C22636D6433222C2216
:103A200031222C223033222C2232222C2275696E34
:103A30007431365F4142222C2231222C22696E746D
:103A4000222C2230220D0A0041542B4D4F44425566
:103A500053434D44343D22525455222C2230222CC3
:103A600022636D6434222C2231222C223033222C0A
:103A70002233222C2275696E7431365F4142222C2A
:103A80002231222C22696E74222C2230220D0A004F
:103A900041542B4D4F44425553434D44353D2252E2
:103AA0005455222C2230222C22636D6435222C2284
:103AB00031222C223033222C2234222C2275696EA2
:103AC0007431365F4142222C2231222C22696E74DD
:103AD000222C2230220D0A0041542B4D4F444255D6
:103AE00053434D44363D22525455222C2230222C31
:103AF00022636D6436222C2231222C223033222C78
:103B00002235222C2275696E7431365F4142222C97
:103B10002231222C22696E74222C2230220D0A00BE
:103B200041542B4D4F44425553434D44373D22524F
:103B30005455222C2230222C22636D6437222C22F1
:103B400031222C223033222C2236222C2275696E0F
:103B50007431365F4142222C2231222C22696E744C
:103B6000222C2230220D0A0041542B4D4F44425545
:103B700053434D44383D22525455222C2230222C9E
:103B800022636D6438222C2231222C223033222CE5
:103B90002237222C2275696E7431365F4142222C05
:103BA0002231222C22696E74222C2230220D0A002E
:103BB00041542B4D4F44425553434D44393D2252BD
:103BC0005455222C2230222C22636D6439222C225F
:103BD00031222C223033222C2238222C2275696E7D
:103BE0007431365F4142222C2231222C22696E74BC
:103BF000222C2230220D0A0041542B4D4F444255B5
:103C000053434D4431303D22525455222C22302210
:103C10002C22636D643130222C2231222C2230334D
:103C2000222C2239222C2275696E7431365F414272
:103C3000222C2231222C22696E74222C2230220D59
:103C40000A00000041542B5441534B54494D453D0B
:103C5000223130222C2231303030220D0A00000077
:103C600041542B5441534B54494D453D2235222C50
:103C70002231303030220D0A0000000041542B5216
:103C80005354494D3D2231323030220D0A0000009C
:103C900041542B4F4E45434F4E3D2231222C22336F
:103CA0003030220D0A00000041542B414C49434F53
:103CB0004E3D2231222C22333030220D0A000000EA
:103CC00041542B4D515454434F4E3D2231222C220E
:103CD000333030220D0A000041542B4854545054C4
:103CE0004D3D223130220D0A0000000041542B547A
:103CF00052414E53504F4C4C4E554D3D2231302287
:103D00000D0A000041542B4D4F44425553504F4C27
:103D10004C4E554D3D223130220D0A0041542B545A
:103D200041534B434F4D424E554D3D223230220DB3
:103D30000A00000041542B4C494E4B5253544D3D08
:103D400022313230220D0A0041542B485254544D36
:103D50003D22313230220D0A0000000041542B5523
:103D60004152544C543D2231303234222C223530D1
:103D7000220D0A0041542B4F4E4550493D2231320D
:103D80003334353637383930220D0A0041542B4F41
:103D90004E454B45593D223132333435363738396B
:103DA0003031323334353637383930220D0A00009D
:103DB00041542B5356524C494E4B3D2231220D0A51
:103DC0000000000041542B5441534B4445563D22C2
:103DD0004434582D31220D0A0000000041542B4F6D
:103DE0004E4549503D226D7174742E6865636C6F49
:103DF0007564732E636F6D222C2231383833220D97
:103E00000A00000041542B4D51545449503D226248
:103E1000726F6B65722E656D71782E696F222C2220
:103E200031383833220D0A0041542B48525444543F
:103E30003D22343134433439343534453534343526
:103E40003442324434383532353434343534220D4A
:103E50000A00000041542B52454744543D2234315E
:103E600034433439343534453534343534423244CE
:103E700035323435343734343534220D0A000000FD
:103E800041542B4C494E4B31544D3D2235220D0AA5
:103E90000000000041542B4F4E4544493D22313231
:103EA000333435220D0A000041542B4C494E4B311E
:103EB0003D22544350222C22382E3133352E3130BE
:103EC0002E313833222C223334313935220D0A0079
:103ED00041542B5452414E53434D4431303D2230D6
:103EE00031303330303039303030313534303822C1
:103EF0000D0A000041542B5356524E554D3D223170
:103F00003936373836353234303038373630393361
:103F1000343438220D0A000041542B5356524B457D
:103F2000593D223132333435363738220D0A0000FC
:103F300041542B5452414E53434D44393D2230316C
:103F40003033303030383030303130354338220D76
:103F50000A00000041542B4854545055524C3D2205
:103F600068747470733A2F2F636C6F75642E616C74
:103F700069656E74656B2E636F6D2F7465737466FF
:103F80006F726474753F646174613D220D0A0000B4
:103F900041542B4F4E45444953543D2230222C224C
:103FA0003C25643E220D0A0041542B414C494449B2
:103FB00053543D2230222C223C25643E220D0A001F
:103FC00041542B5441534B444953543D2230222CED
:103FD000223C25643E220D0A0000000041542B4D76
:103FE000515454444953543D2230222C223C2564E0
:103FF0003E220D0A0000000041542B5452414E5302
:10400000434D44343D223031303330303033303062
:10401000303137343041220D0A00000041542B5416
:1040200052414E53434D44313D22303130333030D4
:1040300030303030303138343041220D0A00000049
:1040400041542B5452414E53434D44333D22303161
:104050003033303030323030303132354341220D60
:104060000A00000041542B5452414E53434D4432F8
:104070003D22303130333030303130303031443522
:104080004341220D0A00000041542B5452414E532B
:10409000434D44373D2230313033303030363030CC
:1040A000303136343042220D0A00000041542B5486
:1040B00052414E53434D44363D223031303330303F
:1040C00030353030303139343042220D0A000000B2
:1040D00041542B5452414E53434D44383D223031CC
:1040E0003033303030373030303133354342220DC9
:1040F0000A00000041542B5452414E53434D443565
:104100003D2230313033303030343030303143358F
:104110004342220D0A00000041542B554152543DA8
:1041200022313135323030222C2231222C223822D9
:104130002C224E4F4E45220D0A00000041542B54B4
:1041400041534B4D443D224F4646220D0A0000008C
:1041500041542B4C494E4B32454E3D224F46462250
:104160000D0A000041542B4C494E4B33454E3D2225
:104170004F4646220D0A000041542B4C494E4B3409
:10418000454E3D224F4646220D0A000041542B5217
:104190004547454E3D224F4646220D0A000000008D
:1041A00041542B5541525441543D224F4646220D15
:1041B0000A00000041542B485454504844464C5483
:1041C0003D224F4646220D0A0000000041542B4C70
:1041D000494E4B314D443D224C4F4E47220D0A0073
:1041E00041542B52454754503D22494D4549220DDB
:1041F0000A00000041542B5441534B4D443D224191
:104200004C49220D0A00000041542B555345523DA4
:1042100022414C49454E54454B220D0A00000000F6
:1042200041542B434D444B45593D22414C49454E49
:1042300054454B220D0A000041542B5245474D4432
:104240003D224C494E4B220D0A00000041542B4C9C
:10425000494E4B31454E3D224F4E220D0A00000083
:1042600041542B485254454E3D224F4E220D0A00D8
:1042700041542B4155544F55503D224F4E220D0A6B
:104280000000000041542B523D224F4E220D0A00E7
:1042900041542B4E455441543D224F4E220D0A00AD
:1042A00041542B4F4E45464C543D224F4E220D0A51
:1042B0000000000041542B414C49464C543D224FD4
:1042C0004E220D0A0000000041542B4D515454461B
:1042D0004C543D224F4E220D0A00000041542B53F6
:1042E000454E44464153543D224F4E220D0A000094
:1042F00041542B574F524B3D22414C4959554E2268
:104300000D0A000041542B574F524B3D2259554145
:104310004E5A4959554E220D0A00000041542B5760
:104320004F524B3D2248545450220D0A00000000C9
:1043300041542B5441534B4D443D22555345522239
:104340000D0A000041542B5441534B4D443D22541F
:1043500052414E53220D0A0041542B485454504DA3
:10436000443D22474554220D0A00000041542B577A
:104370004F524B3D224E4554220D0A0041542B54BE
:1043800041534B4D443D224F4E454E4554220D0A5C
:104390000000000041542B574F524B3D224F4E45D9
:1043A0004E4554220D0A000041542B574F524B3DAD
:1043B000224D515454220D0A0000000041542B5349
:1043C000544152543D2241544B2D443458220D0A3D
:1043D0000000000041542B4D51545450573D227061
:1043E000617373776F7264220D0A000041542B4190
:1043F0004C49444E3D224465766963654E616D6566
:10440000220D0A0041542B4854545048443D224345
:104410006F6E6E656374696F6E3A636C6F7365225D
:104420000D0A000041542B414C4952493D22636E14
:104430002D7368616E67686169220D0A00000000D3
:1044400041542B4D51545443443D22616C69656E77
:1044500074656B220D0A000041542B4D5154545584
:104460004E3D2261646D696E220D0A0041542B415C
:104470004C4944533D2244657669636553656372D4
:104480006574220D0A00000041542B414C49504BE9
:104490003D2250726F647563744B6579220D0A007A
:1044A00041542B5452414E53434D4431300D0A0078
:1044B00041542B4D4F44425553434D4431300D0A26
:1044C0000000000041542B4F4E45505542310D0A1B
:1044D0000000000041542B414C49505542310D0A17
:1044E0000000000041542B4D515454505542310DA1
:1044F0000A00000041542B4F4E45535542310D0ADE
:104500000000000041542B414C49535542310D0AE3
:104510000000000041542B4D515454535542310D6D
:104520000A00000041542B5452414E53434D443134
:104530000D0A000041542B4D4F44425553434D4406
:10454000310D0A0041542B4C494E4B310D0A0000ED
:1045500041542B4F4E45505542320D0A0000000089
:1045600041542B414C49505542320D0A0000000085
:1045700041542B4D515454505542320D0A00000005
:1045800041542B4F4E45535542320D0A0000000056
:1045900041542B414C49535542320D0A0000000052
:1045A00041542B4D515454535542320D0A000000D2
:1045B00041542B5452414E53434D44320D0A000096
:1045C00041542B4D4F44425553434D44320D0A0044
:1045D00041542B4F4E45505542330D0A0000000008
:1045E00041542B414C49505542330D0A0000000004
:1045F00041542B4D515454505542330D0A00000084
:1046000041542B4F4E45535542330D0A00000000D4
:1046100041542B414C49535542330D0A00000000D0
:1046200041542B4D515454535542330D0A00000050
:1046300041542B5452414E53434D44330D0A000014
:1046400041542B4D4F44425553434D44330D0A00C2
:1046500041542B4F4E45505542340D0A0000000086
:1046600041542B414C49505542340D0A0000000082
:1046700041542B4D515454505542340D0A00000002
:1046800041542B4F4E45535542340D0A0000000053
:1046900041542B414C49535542340D0A000000004F
:1046A00041542B4D515454535542340D0A000000CF
:1046B00041542B5452414E53434D44340D0A000093
:1046C00041542B4D4F44425553434D44340D0A0041
:1046D00041542B5452414E53434D44350D0A000072
:1046E00041542B4D4F44425553434D44350D0A0020
:1046F00041542B5452414E53434D44360D0A000051
:1047000041542B4D4F44425553434D44360D0A00FE
:1047100041542B5452414E53434D44370D0A00002F
:1047200041542B4D4F44425553434D44370D0A00DD
:1047300041542B5452414E53434D44380D0A00000E
:1047400041542B4D4F44425553434D44380D0A00BC
:1047500041542B5452414E53434D44390D0A0000ED
:1047600041542B4D4F44425553434D44390D0A009B
:1047700041542B4D51545443440D0A0041542B488D
:1047800054545048440D0A0041542B4C494E4B316F
:104790004D440D0A0000000041542B5245474D4442
:1047A0000D0A000041542B5441534B4D440D0A0057
:1047B00041542B485454504D440D0A0041542B543D
:1047C00041534B54494D450D0A00000041542B4FB5
:1047D0004E4544490D0A000041542B4F4E45504967
:1047E0000D0A000041542B414C4952490D0A00006A
:1047F00041542B5356524C494E4B0D0A00000000B9
:1048000041542B414C49504B0D0A000041542B5749
:104810004F524B0D0A00000041542B4F4E45574953
:104820004C4C0D0A0000000041542B414C495749A3
:104830004C4C0D0A0000000041542B4D515454576C
:10484000494C4C0D0A00000041542B48545450551B
:10485000524C0D0A0000000041542B525354494D54
:104860000D0A000041542B4C494E4B31544D0D0A5A
:104870000000000041542B48545450544D0D0A0080
:1048800041542B4C494E4B5253544D0D0A000000DD
:1048900041542B485254544D0D0A000041542B549E
:1048A00041534B434F4D424E554D0D0A0000000001
:1048B00041542B5452414E53504F4C4C4E554D0D7C
:1048C0000A00000041542B4D4F44425553504F4C69
:1048D0004C4E554D0D0A000041542B5356524E5527
:1048E0004D0D0A0041542B414C49444E0D0A000025
:1048F00041542B4C494E4B31454E0D0A00000000EF
:1049000041542B4C494E4B32454E0D0A00000000DD
:1049100041542B4C494E4B33454E0D0A00000000CC
:1049200041542B4C494E4B34454E0D0A00000000BB
:1049300041542B524547454E0D0A000041542B4827
:104940005254454E0D0A000041542B4F4E45434FE3
:104950004E0D0A0041542B414C49434F4E0D0A0065
:1049600041542B4D515454434F4E0D0A000000004A
:1049700041542B41504E0D0A0000000041542B4D74
:10498000515454554E0D0A0041542B4F4E45495039
:104990000D0A000041542B4D51545449500D0A004A
:1049A00041542B52454754500D0A000041542B41AD
:1049B00055544F55500D0A0041542B520D0A00001A
:1049C00041542B555345520D0A00000041542B41D0
:1049D0004C4944530D0A000041542B4E4554415458
:1049E0000D0A000041542B5541525441540D0A0008
:1049F00041542B52454744540D0A000041542B4862
:104A0000525444540D0A000041542B485454504809
:104A100044464C540D0A000041542B4F4E45464C21
:104A2000540D0A0041542B414C49464C540D0A0088
:104A300041542B4D515454464C540D0A0000000073
:104A400041542B554152544C540D0A0041542B53A0
:104A5000544152540D0A000041542B554152540DFB
:104A60000A00000041542B53454E44464153540D17
:104A70000A00000041542B4F4E45444953540D0A3F
:104A80000000000041542B414C49444953540D0A45
:104A90000000000041542B5441534B444953540DE2
:104AA0000A00000041542B4D515454444953540DB5
:104AB0000A00000041542B5441534B4445560D0A03
:104AC0000000000041542B4D51545450570D0A0022
:104AD00041542B434D444B45590D0A0041542B4F33
:104AE0004E454B45590D0A0041542B5356524B45E8
:104AF000590D0A000A536F636B65743A0A2020450A
:104B00006E61626C653A200925730A20204D6F643E
:104B1000653A200925730A202052756E205374616E
:104B200074653A200925730A2020436F6C6C656315
:104B3000743A200925730A000A536F636B65743A4F
:104B40000A2020456E61626C653A200925730A20AF
:104B5000204D6F64653A200925730A202053657241
:104B600076657220416464723A200925730A202018
:104B700052756E2053746174653A200925730A20BA
:104B800020436F6C6C6563743A200925730A00003A
:104B90000A536F636B65742025643A0A2020456EC2
:104BA00061626C653A200925730A20204D6F6465A7
:104BB0003A200925730A20205365727665722041D8
:104BC0006464723A200925730A2020506F72743A87
:104BD000200925730A202052756E20537461746574
:104BE0003A200925730A2020436F6C6C6563743A80
:104BF000200925730A0000000A536F636B65743A3D
:104C00000A2020456E61626C653A200925730A20EE
:104C1000204D6F64653A200925730A202053657280
:104C200076657220416464723A200925730A202057
:104C3000506F72743A200925730A202052756E2035
:104C400053746174653A200925730A2020436F6C00
:104C50006C6563743A200925730A00002B41544B9C
:104C6000204552524F523A00984D00080000002053
:104C7000A000000028010008384E0008A000002015
:104C800028BF00004401000810010000430000009C
:104C9000F8FFFFFF0040404040404040404041415D
:104CA0004141414040404040404040404040404001
:104CB000404040404005020202020202020202029B
:104CC0000202020202202020202020202020200298
:104CD0000202020202029090909090901010101028
:104CE00010101010101010101010101010101010C4
:104CF0000202020202028888888888880808080858
:104D00000808080808080808080808080808080823
:104D1000020202024000000000000000000000004B
:104D20000000000000000000000000000000000083
:104D30000000000000000000000000000000000073
:104D40000000000000000000000000000000000063
:104D50000000000000000000000000000000000053
:104D60000000000000000000000000000000000043
:104D70000000000000000000000000000000000033
:104D80000000000000000000000000000000000023
:104D90000000000000000000000000000000000013
:104DA0000000000000A24A04000000000000000013
:104DB0000102030406070809000C0140200000005E
:104DC0000018014020000000010000000000000069
:104DD000000000005C4C0008DF09000820350008D6
:104DE000E509000808350008EB090008F034000860
:104DF000F10900083C350008F70900087D14000897
:104E0000AF140008A00E002000000068A0AE002033
:104E100000000F680000000000000000000000001B
:104E20000000000002040608000000000102030464
:084E3000010203040607080952
:04000005080000ED02
:00000001FF
